:020000040800F2
:1000000098240020E101000805430008FD42000893
:100010000143000841090008DD4900080000000014
:10002000000000000000000000000000CD460008B5
:10003000A5090008000000000D430008D146000893
:10004000FB01000809430008FB010008FB01000850
:10005000FB010008FB010008FB010008FB01000890
:10006000FB010008FB010008FB01000899090008DA
:10007000FB010008FB010008FB010008FB01000870
:10008000FB010008FB01000821080008FB01000833
:10009000D1490008FB010008FB010008FB01000832
:1000A000FB01000869470008FB010008FB0100088C
:1000B00075470008FB010008FB010008FB01000870
:1000C000FB010008FB010008FB010008FB01000820
:1000D000B546000889490008FB010008FB0100083B
:1000E000A9090008FB010008FB010008FB0100084A
:1000F000FB010008FB010008FB010008FB010008F0
:10010000FB010008FB010008FB010008FB010008DF
:100110006948000875480008FB010008FB01000859
:10012000FB010008FB010008FB010008FB010008BF
:1001300000F002F800F045F80AA090E8000C8244B4
:100140008344AAF10107DA4501D100F03AF8AFF291
:10015000090EBAE80F0013F0010F18BFFB1A43F0A5
:10016000010318475870000078700000103A24BF4F
:1001700078C878C1FAD8520724BF30C830C144BF0C
:1001800004680C607047000000230024002500264E
:10019000103A28BF78C1FBD8520728BF30C148BFEA
:1001A0000B607047642900F07780752900F0748037
:1001B000782900F0AD80002070471FB51FBD10B535
:1001C00010BD00F0F7FA1146FFF7F7FF04F050FEFC
:1001D00000F015FB03B4FFF7F2FF03BC00F018FBBF
:1001E0000948804709480047FEE7FEE7FEE7FEE7CB
:1001F000FEE7FEE7FEE7FEE7FEE7FEE70448054907
:10020000054A064B704700005947000831010008B5
:10021000981E00209824002098200020982000207C
:100220000FB41CB5074B06AA7B446946009005989D
:1002300000F071FA0020694600F080FA1CBC5DF8FD
:1002400014FB00001105000070B5044685690068C4
:10025000C10601D5302600E02026C00707D070BDBA
:10026000D4E9012130469047206A401C20626D1E6F
:10027000F6D570BD70B5044685690078C00707D112
:1002800070BDD4E9012120209047206A401C2062E3
:100290006D1EF6D570BD00002DE9F0410646002424
:1002A00010687529314616A510D0AFF300800028DC
:1002B00002DA404213A507E031688A0701D512A58A
:1002C00002E0490704D511A5012401E0AFF3008045
:1002D00000210A2206F1240709E0B0FBF2FCB0FB82
:1002E000F2F302FB1C00303078541846491C0028F9
:1002F000F3D123462A463046BDE8F04100F0ACB9C0
:10030000000000002D0000002B0000002000000075
:1003100070B504460D4621461068AFF30080218871
:10032000090502D50F4A7A4402E00E4A7A440E3299
:10033000002104F1240305E000F00F060009965D9A
:100340005E54491C0028F7D120780023000704D50B
:10035000702D02D009B1022311322046BDE8704051
:1003600000F07AB9C66B00002DE9F05F89460446BB
:100370004FF0000ADFF824B1FB44C0F820A020466B
:10038000E168884700287DD0252806D0D4E90121DE
:100390009047206A401C2062F1E700255F46204616
:1003A000E16888472028064607DB312E05D2B819B8
:1003B00010F8200C08B10543F1E7A80701D525F096
:1003C0000405C4F81CA00027C4F818A02A2E09D0E0
:1003D000304606F086FD38B304EB8708303EC8F897
:1003E000186019E059F8041B204604EB870291615C
:1003F000E1688847012F064618D1E069002820DA15
:1004000025F020051DE0D8F8180000EB800006EB71
:1004100040003038C8F818002046E1688847064692
:1004200006F05FFD0028EED1012F0AD02E2E08D154
:100430002046E16888477F1C0646022F45F02005CC
:10044000C4DBA069002803DA404245F00105A06141
:10045000E80701D025F01005A6B1A6F14100192842
:1004600002D8203645F400654A46314620462560CC
:100470004D46FFF797FE60B1012807D0ED1D25F02E
:10048000070000E007E000F1080978E705F104093A
:1004900075E730467AE7206ABDE8F09F9C6B000064
:1004A00040EA010310B59B070FD1042A0DD310C8F1
:1004B00008C9121F9C42F8D020BA19BA884201D943
:1004C000012010BD4FF0FF3010BD1AB1D30703D08B
:1004D000521C07E0002010BD10F8013B11F8014B41
:1004E0001B1B07D110F8013B11F8014B1B1B01D15D
:1004F000921EF1D1184610BD10B5431C02E010F851
:10050000011B71B18107FAD14FF0013202C88C1A78
:100510008C4314EAC211F9D0C01A0A0603D0C01ED7
:1005200010BDC01A10BD0A0401D0801E10BD090202
:10053000FCD0401E10BD032A40F2308010F0030CA6
:1005400000F0158011F8013BBCF1020F624498BF26
:1005500011F801CB00F8013B38BF11F8013BA2F1C3
:10056000040298BF00F801CB38BF00F8013B11F03E
:10057000030300F0E880083AC0F0088051F8043B1B
:10058000083A51F804CBA0E80810F5E7121D5CBF4B
:1005900051F8043B40F8043BAFF30080D20724BF7E
:1005A00011F8013B11F801CB48BF11F8012B24BF12
:1005B00000F8013B00F801CB48BF00F8012B704761
:1005C0004FF000020429C0F0128010F0030C00F07C
:1005D0001B80CCF1040CBCF1020F18BF00F8012BFA
:1005E000A8BF20F8022BA1EB0C0100F00DB85FEAC8
:1005F000C17C24BF00F8012B00F8012B48BF00F894
:10060000012B70474FF0000200B513469446964602
:10061000203922BFA0E80C50A0E80C50B1F1200115
:10062000BFF4F7AF090728BFA0E80C5048BF0CC0C3
:100630005DF804EB890028BF40F8042B08BF704721
:1006400048BF20F8022B11F0804F18BF00F8012B93
:1006500070477047704770472DE9F0470D4699463F
:100660009246044600F124080168880604D5E06932
:1006700021F01001216000E00120A84201DD471BAC
:1006800000E00027A1697A1902EB0900081AA061AD
:100690002078C00602D42046FFF7D6FD002608E0E9
:1006A000D4E901211AF806009047206A401C761C04
:1006B00020624E45F4DB2078C0060AD52046FFF7BD
:1006C000C3FD06E0D4E9012130209047206A401C98
:1006D0002062381EA7F10107F4DC07E0D4E901210C
:1006E00018F805009047206A401C2062281EA5F1DA
:1006F0000105F3DC2046FFF7BDFD2078000602D59A
:100700000220BDE8F0870120FBE7000001694A1CD8
:1007100002610878704700B58FB0CDE90131002142
:10072000059105497944CDE9031011466846FFF764
:100730001BFE0FB000BD0000E5FFFFFF0A6802F8D6
:10074000010B0A60704710B5203AC0F00B80B1E889
:100750001850A0E81850B1E81850A0E81850203AF6
:10076000BFF4F5AF5FEA027C24BFB1E81850A0E8FF
:10077000185044BF18C918C0BDE810405FEA827C19
:1007800024BF51F8043B40F8043B08BF7047D20730
:1007900028BF31F8023B48BF11F8012B28BF20F8D1
:1007A000023B48BF00F8012B70470000004870472B
:1007B000200000207546FFF7F9FFAE4605006946A8
:1007C000534620F00700854618B020B5FFF716FD08
:1007D000BDE820404FF000064FF000074FF0000842
:1007E0004FF0000BAC46ACE8C009ACE8C009ACE87F
:1007F000C009ACE8C00921F007018D46704710B56B
:100800000446AFF300802046BDE81040FFF7E2BC8D
:1008100001491820ABBEFEE7260002007047000029
:1008200040F2B400C2F2000000F000BCF0B581B0AC
:100830000668436801680446406801F16042B2F509
:10084000803F04D8013118BF10F101010BD140F2F3
:100850002440C2F2000036A10D22642301B0BDE89D
:10086000F04003F08DBC20F00100A042EFD304F56E
:100870005E318842EBD240F22445C2F2000527A146
:10088000284610221F46642303F07AFC642001F0FE
:1008900085FA02F03DF901F071FA284602F01CFFDA
:1008A000642001F07BFAEFF3108072B64EF2100074
:1008B000CEF2000000210160416081604FF0FF3105
:1008C000C0F87011C0F87012C0F87411C0F874123A
:1008D000C0F87811C0F87812C0F87C11C0F87C120A
:1008E000C0F88011C0F88012C0F88411C0F88412DA
:1008F000C0F88811C0F88812C0F88C11C0F88C12AA
:100900004EF60850CEF20000046086F3088862B606
:10091000384601B0BDE8F040004700BF4A756D7031
:10092000696E6720746F206170700D0A000000000E
:10093000496E76616C6964206170700D0A00000078
:10094000FEE700002DE9F0439DB00646684690465C
:100950000F4606F049F9BFB140F28004E946C2F201
:10096000000400BF3D46B7F5806F28BF4FF4806597
:10097000484631462A4606F08FFA20462E447F1B11
:1009800001F070FE002FEDD16846414606F08EF86A
:100990001DB0BDE8F083000040F27810C2F2000004
:1009A00001F05CB8704700004FF4004001F0E2BB7A
:1009B00082B041F20044C4F201044AF220152046FC
:1009C0004FF40061C0F2070501F0D8FC0026019643
:1009D0000198A84217DA0198013001900198A842C5
:1009E00011DA0198013001900198A8420BDA0198C0
:1009F000013001900198A84205DA01980130019078
:100A00000198A842E7DB20464FF4006101F0B6FCF4
:100A100001960198A84217DA0198013001900198D7
:100A2000A84211DA0198013001900198A8420BDA2E
:100A30000198013001900198A84205DA019801302F
:100A400001900198A842E7DB20464FF4006101F0D5
:100A500095FC002601960198A84217DA019801300A
:100A600001900198A84211DA019801300190019893
:100A7000A8420BDA0198013001900198A84205DAEA
:100A80000198013001900198A842E7DB20464FF41D
:100A9000006101F073FC01960198A84217DA0198F1
:100AA000013001900198A84211DA019801300190BB
:100AB0000198A8420BDA0198013001900198A842F0
:100AC00005DA0198013001900198A842E7DB204641
:100AD0004FF4006101F052FC002601960198A842F3
:100AE00017DA0198013001900198A84211DA0198B3
:100AF000013001900198A8420BDA01980130019071
:100B00000198A84205DA0198013001900198A842A5
:100B1000E7DB20464FF4006101F030FC01960198BC
:100B2000A84217DA0198013001900198A84211DA21
:100B30000198013001900198A8420BDA0198013028
:100B400001900198A84205DA0198013001900198BE
:100B5000A842E7DB20464FF4006101F00FFC0026BD
:100B600001960198A84217DA019801300190019886
:100B7000A84211DA0198013001900198A8420BDADD
:100B80000198013001900198A84205DA01980130DE
:100B900001900198A842E7DB20464FF4006101F084
:100BA000EDFB01960198A84217DA019801300190F7
:100BB0000198A84211DA0198013001900198A842E9
:100BC0000BDA0198013001900198A84205DA0198EA
:100BD000013001900198A842E7DB20464FF4006104
:100BE00001F0CCFB002601960198A84217DA019883
:100BF000013001900198A84211DA0198013001906A
:100C00000198A8420BDA0198013001900198A8429E
:100C100005DA0198013001900198A842E7DB2046EF
:100C20004FF4006101F0AAFB01960198A84217DA7F
:100C30000198013001900198A84211DA0198013021
:100C400001900198A8420BDA0198013001900198B7
:100C5000A84205DA0198013001900198A842E7DB2B
:100C600003F0BEFE70B542F20C060446C4F2020662
:100C700001F092FB3168C90717D13068800644BF84
:100C8000202030603068C00607D43069C00704D126
:100C9000306840075CBF002070BD3068C00620D4BB
:100CA00000203168490728D431E0002C44D00546A3
:100CB000601C0DD13068C007DFD03068C0071CBF92
:100CC00030685FEAC070D8D03068C007F2D1D4E78E
:100CD00001F062FB401BA0422ED83068C007F7D15C
:100CE000CBE740F21050C2F20000C16941F00201AE
:100CF000C16110203168490709D540F21051C2F294
:100D00000001CA6940F0040042F00102CA61316981
:100D1000C90702D13060012070BD40F21051C2F20B
:100D20000001CA6942F00402CA61316921F001017F
:100D300031613060012070BD032070BDF0B585B019
:100D400040F28004C2F20004054620460E4601F03F
:100D500089FC204601F086FC68054FF0010402D0B2
:100D6000204605B0F0BDF70A700518BF04EBD62782
:100D700001F00EF940F28000C2F2000001F072FCB6
:100D800042F20C00C4F20200342101600020019004
:100D900001A86946CDE9035701F014F820B101F02C
:100DA00089F8204605B0F0BD40F28000C2F2000094
:100DB00001F058FC002401F07DF8204605B0F0BD9C
:100DC0002DE9F047814600F17840000B7E284FF076
:100DD000010733D888464FF2000102EB0900C0F644
:100DE00007019246884229D801F0D2F8BAF1000FE3
:100DF0001FD00024012700BF611C18F804005145D2
:100E000006D208EB0401497840EA012502E000BF60
:100E100000F57F4509EB0406012031462A460023F0
:100E200001F052F840B93088A84204D10234544548
:100E3000E2D3002700E0012701F03CF83846BDE886
:100E4000F08700002DE9F04186B0054640054FF0DF
:100E5000010603D0304606B0BDE8F0810C4601F033
:100E600097F80020029002A801A9CDE9045600F0ED
:100E7000A9FF28B101F01EF8304606B0BDE8F081A8
:100E8000002740F2FD780126E25BE91901200023EA
:100E900001F01AF80028EDD1474507F10207F3D910
:100EA000002601F007F8304606B0BDE8F0810000EA
:100EB00070470000B0B581B00022009290F8242065
:100EC000012A03D10221084601B0B0BD4B680122BE
:100ED000062B80F8242022D8D0F800C003EB83032F
:100EE00062465D1F1F2352F834EF03FA05F40B68C6
:100EF0002EEA040E03FA05F444EA0E05092B1560E8
:100F00002CD8DCF8102003EB4303072589689D40AB
:100F1000AA4399401143CCF8101000213EE0D0F8CC
:100F200000C00C2B624606D852F830EF03EB830367
:100F3000A3F1230405E052F82CEF03EB8303A3F1A4
:100F400041041F2303FA04F50B682EEA050E03FA89
:100F500004F444EA0E05092B1560D2D903EB4305CE
:100F6000DCF80C201E3D07248968AC40A243A94050
:100F7000114323F00102102ACCF80C100DD142F2DB
:100F80000841C4F20101A1F1080294450CD0816A24
:100F900041F020018162012100E00021002280F85F
:100FA0002420084601B0B0BD0A6812022FD40A6896
:100FB000102B42F400020A602BD140F21801C2F259
:100FC000000109684DF68362C4F21B32A1FB0212D4
:100FD000910C01EB8101490000910099D9B1009970
:100FE000013900910099C1B100990139009100992E
:100FF000A9B1009901390091009991B10099013985
:101000000091009900294FF00001E8D1C6E70021C6
:10101000C4E70021C2E70021C0E70021BEE70021AC
:10102000BCE70021BAE700007047000070B5044635
:10103000006806684568B10727D515F0200124D05F
:10104000A16AC90603D4A16A41F40071A162816852
:1010500001F46021B1F5602F10D1217B71B9416895
:1010600021F020014160A06A20F48070A062A06A93
:10107000C00403D4A06A40F00100A0622046FFF73C
:10108000D3FF20686FF012010160710732D515F0AF
:1010900080012FD0A16AC90603D4A16A41F400518E
:1010A000A162816801F4E041B1F5E04F0FD14168E0
:1010B00021F080014160A06A20F48050A062A06A03
:1010C000C00510D4A06A40F00100A0620BE04168A6
:1010D000490508D4816801F46021B1F5602F02D17F
:1010E000217B0029E3D02046FFF7E2FE20686FF065
:1010F0000C010160F00718BF15F0400000D170BD71
:10110000A06A40F48030A062204600F0C3F8206856
:101110006FF00101016070BD002804BF012070471D
:1011200070B50646044656F8280F20B12168886835
:10113000C0070BD114E00020E06284F824002046B0
:1011400000F0AAF821688868C00709D0886820F0F4
:101150000100886001F020F921688A68D20730D147
:1011600032683068D20645D441F202129043023010
:10117000A062E36981F0804080F49E3083F44022D5
:10118000104308BF4FF40023D4E9010243EA000CE6
:10119000531EB3FA83F35D091346B2F5807F18BF7F
:1011A0002B02207D257B01284CEA450032D135B346
:1011B000A56A45F02005A562E56A45F00105E562EE
:1011C00028E0054603E000BF8868C007C8D001F0EA
:1011D000E3F8401B21680328F6D38868C007F3D0E2
:1011E000A06A40F01000A062E06A40F00100E062F6
:1011F000A06AA06A40F010010120316070BDD4F8EF
:1012000018C04EF20005CFF6FF7505EB4C352B43A9
:1012100043F400634D68B2F5807F25F4694543EAE5
:1012200005034B608B684FF2FD75CFF6E17503EA5D
:10123000050343EA00038B6001D0012A06D122692D
:101240000023CFF6F07303EB025200E00022CB6ADA
:1012500023F470031A43CA62896840F6FE62CFF62F
:101260001F721140814207D10020E062A16A012271
:1012700062F30101316070BDA06A40F0100020F0FF
:101280000200A06254F82C0F40F001010120264614
:10129000316070BD704700002DE9F04385B0002734
:1012A00040F600050497CDE902770446C4F2010533
:1012B000006805F5E0518842019702D005B0BDE80D
:1012C000F08341F21800C4F20200016801AE41F45B
:1012D0000071016001684FF0030801F40071009192
:1012E0000099016841F010010160016801F01001EE
:1012F00000910099016841F00401016000683146E5
:1013000000F00400009000983120019005F5006085
:10131000CDF8088000F03AFF4FF0800928463146AA
:10132000CDE9019800F032FF40F278150820C2F2B2
:101330000005C4F202004FF48071C5E9000705F111
:1013400010004FF480622023C5E902798EC0284640
:1013500000F0C4FC002818BFFFF72AFB122003216D
:10136000002225626C6201F019FA122001F006FADF
:1013700005B0BDE8F083000090F82020013A012A72
:1013800007D8006800F114020020136819431160A7
:10139000704700F1240201204FF4802113681943A3
:1013A00011607047B0B5026890F82030013B012B06
:1013B00027D8D2F80002012340F00100C2F8000251
:1013C000D1F814E0CC690EF01F0003FA00F0D2F857
:1013D0001C326FEA000C8343012CC2F81C3216D079
:1013E00064BBD2F80C3203EA0C03C2F80C32CB68AF
:1013F0008C8844EA034302EBCE04C4F840320B4627
:1014000014E0416A41F4802141620120B0BDD2F86C
:101410000C320343C2F80C320B688C8844EA034355
:1014200002EBCE04C4F8403201F10C038C681B8837
:1014300043EA044302EBCE04C4F84432D2F8043247
:101440008D6943EA0004D1F810E0096A002D08BF55
:1014500003EA0C04C2F80442D2F81432BEF1000FC1
:1014600043EA000408BF03EA0C040129C2F814424D
:1014700004D1D2F81C120843C2F81C02D2F80002B0
:1014800020F00100C2F800020020B0BD704700004B
:101490002DE9F04F81B0044600684669D0F8049009
:1014A0008768D0F80CB0D0F810A0D0F81880F107F9
:1014B00003D1002530071CD423E0F90710D0012107
:1014C000BA07816009D4780700F1AA80380700F1D3
:1014D000B080204600F0FEF902E0204600F0FCF962
:1014E0000025F80500F18480F80300F1AA80300798
:1014F00007D51BF0100004D0206845F400751021BA
:10150000C160700708D51BF0080005D020680821CD
:10151000C160204600F0A6F9B00706D52068C06873
:10152000800702D0204600F09FF9700607D51AF018
:10153000100004D0206845F4806510210161B006D8
:1015400008D51AF0080005D020680821016120465E
:1015500000F08CF9F00606D520680069800702D0FB
:10156000204600F085F9B00308D519F0100005D029
:10157000206810214160204600F07CF9F00308D576
:1015800019F0080005D0206808214160204600F0CD
:10159000ADF9300440F18F805FEA497040F18880F6
:1015A00006F4807008EA102028435FEA887101463B
:1015B00048BF41F00201B20558BF01465FEA4870DA
:1015C0000D4648BF45F00405700558BF0D4630056F
:1015D0006ED518F070006BD010380009052862D85D
:1015E000DFE800F0035356595C5F45F008055AE008
:1015F00020684FF48071BA0581600AD4780512D44E
:10160000380519D4204600F069F9F8037FF56FAF6B
:1016100017E0204600F064F9F8037FF568AF10E0AA
:101620004FF400655DE705F50055F8037FF55FAF02
:1016300007E04FF4805554E705F58045F8037FF542
:1016400056AF20684FF48031BA0381600AD4780322
:101650000FD4380313D4204600F044F930073FF587
:1016600048AF4EE7204600F03FF930073FF541AF65
:1016700047E705F5004530073FF53BAF41E705F586
:10168000803530073FF535AF3BE745F010050AE000
:1016900045F0200507E045F0400504E045F08005F1
:1016A00001E045F480752068816921F07001816155
:1016B0002068042141604DB1606A40EA050120467E
:1016C000616201B0BDE8F04FFFF7E0BE01B0BDE8D8
:1016D000F08F0000B0B5C8B1044690F8200010B9F2
:1016E000204600F077F82068016841F001010160B0
:1016F00000F052FE054600BF20684168C90707D1C7
:1017000000F04AFE401B0B28F6D312E00120B0BDCA
:10171000016821F00201016000F03EFE054600BFB5
:101720002068416889070DD500F036FE401B0B2864
:10173000F6D3606A052140F400306062012084F82D
:101740002010B0BD217E0268012922F0800308BF6D
:1017500042F080030360617E0268012922F04003A9
:1017600008BF42F040030360A17E0268012922F015
:10177000200308BF42F020030360E17E02680129D4
:1017800042F0100308BF22F010030360217F0268BB
:10179000012922F0080308BF42F008030360617FBB
:1017A0000268012922F0040308BF42F00403036029
:1017B000D4E901C2D4E9033561691A432A431143CC
:1017C000ACF101021143C16100200121606284F883
:1017D0002010B0BDB0B586B0002140F600040591E0
:1017E000CDE90311C4F201040068A4F5244290423B
:1017F000029101D006B0B0BD41F21800C4F202005F
:10180000426802AD42F000724260426802F000722B
:101810000192019A026842F004020260006800F03E
:101820000400019001984FF40060CDE90201049199
:101830002046294600F0AAFC4FF480500290022076
:101840000390032005902046294600F09FFC1420B9
:101850000221002200F0A2FF142000F08FFF06B04A
:10186000B0BD0000704700007047000070470000E6
:101870007047000070470000B0B5044690F82000A3
:1018800001281DD1022084F820002068016821F081
:101890000101016000F080FD054600BF206840683E
:1018A000C00713D000F078FD401B0B28F6D3606A08
:1018B00040F400306062052084F820000120B0BDB3
:1018C000606A40F4002060620120B0BD00206062C8
:1018D000B0BD000070470000704700007047000076
:1018E000704700007047000070470000704700001C
:1018F000014690F82100022816D10868D1E90FC3EB
:10190000026822F00E020260026822F00102026008
:10191000012000FA03F2CCF8042081F82100002015
:10192000002281F8202070470420886301200022D3
:1019300081F820207047000080B590F8211002291E
:1019400027D1026840F2040C1368C4F2020C23F0A1
:101950000E03136013680CF17C018A4223F001012D
:1019600011601BD940F20841C4F202018A4248D0FA
:1019700040F21C41C4F202018A4246D040F230419A
:10198000C4F202018A4244D14FF48073CCF800348F
:1019900058E0042181630121084680BD4321C4F23F
:1019A00002018A420EDD6B21C4F202018A421BDC75
:1019B0004421C4F202018A4239D05821C4F2020102
:1019C0008A4231E00821C4F202018A4232D01C214D
:1019D000C4F202018A4232D03021C4F202018A42AA
:1019E00022D14FF480722BE06C21C4F202018A42B2
:1019F00022D08021C4F202018A4215D14FF08072B8
:101A00001EE00123CCF800341CE01023CCF8003495
:101A100018E00CF588614FF480338A4208BF4FF418
:101A20008053CCF800340DE04FF4803208E04FF4DE
:101A3000805205E0012203E04FF4801200E0102202
:101A4000CCF80020012180F82110426B002180F8A1
:101A500020100AB190470021084680BD10B5D0F88B
:101A600000E0D0E90FC3DCF80020DEF800104C07DE
:101A70002ED504249C4014402AD0DEF8001089069C
:101A800005D4DEF8001021F00401CEF80010042285
:101A9000C4F2020202F17C018E454DD940F20841A8
:101AA000C4F202018E4500F0AD8040F21C41C4F248
:101AB00002018E4500F0AA8040F23041C4F20201DA
:101AC0008E4540F0A7804FF48061C2F80014EEE02C
:101AD0008C0746D502249C40144042D0DEF800100A
:101AE000890608D4DEF8001021F00A01CEF80010B3
:101AF000012180F821100422C4F2020202F17C01CB
:101B00008E454CD940F20841C4F202018E4500F0E6
:101B1000AE8040F21C41C4F202018E4500F0AB8061
:101B200040F23041C4F202018E4540F0A8804FF4EB
:101B30000071C2F80014C9E04321C4F202018E45CD
:101B400041DD6B21C4F202018E454EDC4421C4F21A
:101B500002018E4500F09E805821C4F202018E459C
:101B600063E0090740F1B88008219940114008BF9F
:101B700010BDDEF8001021F00E01CEF8001001219A
:101B800001FA03F2CCF80420816380F82110016B84
:101B90000022002980F8202040F08B809CE0432127
:101BA000C4F202018E4543DD6B21C4F202018E4571
:101BB00050DC4421C4F202018E457DD05821C4F28C
:101BC00002018E456EE00821C4F202018E4564D008
:101BD0001C21C4F202018E4567D03021C4F20201FB
:101BE0008E4522D14FF4806160E06C21C4F2020185
:101BF0008E4554D08021C4F202018E4515D14FF09C
:101C0000806153E00421C2F8001450E04021C2F882
:101C100000144CE002F588634FF480219E4508BF14
:101C20004FF48041C2F8001441E04FF480213DE0C0
:101C30000821C4F202018E4541D01C21C4F20201E8
:101C40008E4541D03021C4F202018E452AD14FF495
:101C500000713AE06C21C4F202018E4531D080213E
:101C6000C4F202018E451DD14FF000712DE002211A
:101C7000C2F800142AE02021C2F8001426E002F580
:101C800088634FF400319E4508BF4FF40051C2F8FD
:101C900000141BE04FF4804108E0042106E04FF4FB
:101CA000800103E04FF400310FE040211160C16A70
:101CB00091B1BDE8104008474FF4005105E0022102
:101CC00003E04FF4001100E020211160816A00223E
:101CD000002980F82020ECD110BD0000014600282A
:101CE0004FF0010008BF70472DE9F04740F2000CAB
:101CF000C4F2020C0A684FF6F8330CF5816ECBF68D
:101D0000FD73724538BF03F5806302EB030E4CF69A
:101D1000CD43CCF6CC43AEFB033E6FF003060CF58F
:101D2000806506EA9E06D1E901A9D1F80C803CBF86
:101D30000025C4F20205C1E90F56022681F8216090
:101D4000166843F6F075AE4346EA0A06D1E9045731
:101D500046EA090646EA0806D1E906432E43374318
:101D600027433B43136000228A6381F8210081F8F6
:101D700020200020BDE8F0477047000080B541F208
:101D80000C00C4F202004FF0FF31002241604260BB
:101D90000160026000F0B2FC002080BDB0B50446D6
:101DA00000F0FAFA054640F20000C2F200000078A6
:101DB000611C18BF044400BF00F0EEFA401BA042B3
:101DC000FAD3B0BD2DE9F04381B040F21056C2F213
:101DD0000006327E012A03D1022001B0BDE8F08363
:101DE000054601202C6830764CF250308846FEF7CC
:101DF00039FF022C1CD100284ED1002042F21004E1
:101E0000F061C4F20204206840F004002060206801
:101E100040F0400020604CF25030FEF723FF216874
:101E200021F0040121600021317601B0BDE8F0838A
:101E300090BB4FF0FF30C8F80000D5E9027007EB07
:101E4000C020874228D242F21004C4F202044FF0AC
:101E5000000900BFC6F81C90206840F00200206016
:101E60006760206840F0400020604CF25030FEF780
:101E7000F9FE216821F00201216098B9D5E902013B
:101E800007F5006700EBC1208742E3D30020002163
:101E9000317601B0BDE8F08301200021317601B038
:101EA000BDE8F083C8F800700021317601B0BDE8CC
:101EB000F083000042F21001C4F20201086840F011
:101EC000800200200A6070472DE9F04F81B040F297
:101ED0001058C2F20008924698F81820012A03D13F
:101EE000022001B0BDE8F08F8146012088F818007B
:101EF0004CF250301C460E46FEF7B4FE28B10021CD
:101F000088F8181001B0BDE8F08F4D4642F2100776
:101F1000B9F1020F18BF0425C4F20207B9F1010F8D
:101F200008BF4D466FF01F0900204FF0000B00BFA7
:101F3000202200230101A2EB0012C8F81C3004FA91
:101F400002F22AFA01F13B68114309EB0012002A60
:101F500058BF24FA02F143F001023A6026F810104B
:101F60004CF25030FEF77EFE3968002821F0010166
:101F70003960C4D10BF1010B5FFA8BF08542D7D8E1
:101F80000020002188F8181001B0BDE8F08F000093
:101F900042F20400C4F20200C16809065CBF0020DE
:101FA000704740F22311C4F26751016048F6AB114B
:101FB000CCF6EF510160C068C0F3C010704700005C
:101FC0002DE9F04F002978D041F60043A0F180427E
:101FD000C4F20103A2F584324FF0060A98424FF092
:101FE000000340F2004B08BF4FF0050AB3EBB22FDD
:101FF000C4F2010B63D04FEAB222531E6FF01F04EC
:102000000127042B38BF92461BE000BF0346B5F5FD
:10201000807F24BF264604331D680F22B24025EA84
:102020000202042505FA06F632431A60C26802EA83
:102030000E02C26031FA07F207F1010704F104044D
:102040003BD07A1E0123934013EA0105F2D04FEAF8
:102050009209ABF57E7C04F120065CF8292006F09D
:102060000C0E0F2303FA0EF802EA08020AFA0EF326
:102070009A426FEA050EC9D1DBF8003040F20C42FB
:1020800003EA0E03CBF80030DBF80430C4F201029F
:1020900003EA0E03CBF80430136803EA0E0313605F
:1020A000DBF8083003EA0E03CBF808305CF829307F
:1020B00023EA08034CF82930A8E7BDE8F08F4FF079
:1020C000010800264FF00F0C01241CE0B2F5807FC0
:1020D0003246034624BF203A04331D680CFA02F747
:1020E000BD43042707FA02F22A431A60C26802EAD3
:1020F0000E02C26031FA04F204F1010406F1040692
:1021000008BFBDE8F08F631E08FA03F20A40F1D061
:102110004FEA930AABF57E7555F82A7006F00C036A
:102120000CFA03F917EA090F6FEA020ECED1DBF8B9
:10213000003040F20C4703EA0E03CBF80030DBF826
:102140000430C4F2010703EA0E03CBF804303B6805
:1021500003EA0E033B60DBF8083003EA0E03CBF81A
:10216000083055F82A3023EA090345F82A30ADE74C
:102170007047000040F21441C4F201010A680242B3
:1021800014BF08607047FFF7F3BF00002DE9F04F60
:1021900082B0D1F800C0BCF1000F00F0EC80A0F1DB
:1021A000804241F60045A2F58432C4F2010540F2B6
:1021B000004E4FEAB2240627A842C4F2010E08BF1F
:1021C0000527052C4FF000044FF001084FF00F03D6
:1021D0004FF0000A4FF0000B38BF4FEAB2270097CC
:1021E0000AE000BFD1F800C00AF1010A3CFA0AF285
:1021F00004F1040400F0BF8008FA0AF91CEA090F90
:10220000F0D04E684FF6FF72C1F21002964211DC18
:10221000122E51D8DFE806F0340A42465050505092
:10222000505050505050505050494D00D1F80CB0C3
:1022300042E000BF4FF6FF72C1F2210296420FDC6E
:102240000022C1F2110296421AD00022C1F21202FB
:10225000964215D00022C1F22102964210D02BE006
:102260000022C1F2220296420AD00022C1F23102BB
:10227000964205D00022C1F2320296421CD100BF24
:102280008A6842B1012A14BFC0F81490C0F81090B7
:102290004FF0080B10E04FF0040B0DE0CA6802F19C
:1022A000080B09E04FF0000B06E0CA6802F1040BCE
:1022B00002E0CA6802F10C0B22460646BAF1080F8A
:1022C00024BF203A0436376803FA02F5AF430BFA0D
:1022D00002F23A433260CA79D2067FF583AF41F207
:1022E0001807C4F202073A684FF6084342F00102A9
:1022F0003A603A68CFF6FF7302F001020192019A48
:102300002AF0030272440F25D75804F00C06B5409A
:10231000AF43009D05FA06F63743D7504E6840F2AA
:102320000C45F202DEF8082054BF22EA090242EA14
:102330000902CEF80820C4F201052A68B70254BF8A
:1023400022EA090242EA09022A60DEF80420B70301
:1023500054BF22EA090242EA0902CEF804200F2300
:10236000DEF80020F70354BF22EA090242EA09021C
:10237000CEF8002036E702B0BDE8F08FC26802EA6E
:102380000103914341EA034101617047002A08BFFC
:10239000090401617047000041F63460C2F2000098
:1023A00000687047B0B5B0B3044690F83D0028B956
:1023B000002084F83C00204600F0C6F8242084F871
:1023C0003D002068016821F001010160016841F4CD
:1023D00000410160016821F40041016000F00CFC43
:1023E00048F28041C0F21E0140F6001288424FF0D0
:1023F0000001C0F23D02656838BF0121904248F2F9
:10240000A1624FF00003C0F2010238BF01239542E0
:1024100038BF0B460BB10120B0BD4DF68361C4F24D
:102420001B31A0FB011221684FEA924C4B6823F04C
:102430003F0343EA92424A600A6A48F2A063C0F24C
:1024400001039D4222F03F0313D80CF10102013831
:102450006D001A43B0FBF5F00A62CA6901304CF610
:10246000FF736FF31F3022EA030C042898BF042087
:102470003FE04FF496720CFB02FC44F6D352C1F2DB
:102480006202ACFB022C012202EB9C121A430A628C
:10249000CA69A3684CF6FF7C22EA0C0CA0F1010E7D
:1024A0009BB119206843BEFBF0F00422013062F3B7
:1024B0001F30000512D09BB119206843BEFBF0F01D
:1024C0000422013062F31F3011E005EB4500BEFB32
:1024D000F0F001306FF31F300005ECD1012008E06F
:1024E00005EB4500BEFBF0F001306FF31F3040F408
:1024F000004040EA0C00C8610868D4E9072320F0D6
:10250000C000104318430860886848F2FF3204F1A5
:102510000C0C90439CE82C10184310438860C8684A
:1025200020F0FF00284340EA0C00C860086840F033
:102530000100086000202021206484F83D10206301
:1025400084F83E00B0BD000010B586B0006845F6C6
:102550000001C4F2000188424FF00001CDE90411EE
:10256000CDE902112AD045F20041C4F200018842AF
:1025700048D141F21804C4F20204206802A940F0D4
:1025800008002060206800F0080001900198C02039
:102590000290122003900320059040F60040C4F200
:1025A0000100FFF7F3FD606840F4001060606068B0
:1025B00000F400100190019806B010BD41F218041B
:1025C000C4F20204206802A940F0080020602068DC
:1025D00000F00800019001984FF440600290122032
:1025E00003900320059040F60040C4F20100FFF77D
:1025F000CDFD606840F480006060606800F4800099
:102600000190019806B010BD70B540B30446006853
:10261000D4E901124CF6CC43036045F255530360F4
:1026200041608260FFF7B8FE2168CA68920711D046
:10263000054641F23D3602E0C86880070AD0FFF740
:10264000ABFE401B2168B042F6D3C8688007F3D0C8
:10265000032070BD4AF6AA200860002070BD01204A
:1026600070BD000001684AF6AA2200200A60704787
:1026700040F2000041F63461C2F20000C2F20001F3
:1026800000780A68104408607047000080B542F284
:102690000000C4F20200016841F010010160032053
:1026A00000F0A8F80F2000F005F800F029F800204D
:1026B00080BD000070B540F20006C2F2000640F294
:1026C00018013278C2F200014FF47A730968B3FB43
:1026D000F2F20446B1FBF2F1084600F0A7FD0F2C20
:1026E0004FF0010508D838B94FF0FF3021460022DD
:1026F000002500F053F87460284670BD7047000054
:1027000080B582B041F21800C4F2020001680022D4
:1027100041F001010160016801F00101019101999D
:10272000416841F0805141604068002100F08050D4
:1027300000900098012000F031F8012000F01EF810
:102740000420C4F201000168022262F31A610160F0
:1027500002B080BD002848BF704700F01F01012271
:1027600002FA01F14EF280124009CEF2000242F864
:102770002010BFF34F8FBFF36F8F7047002848BF03
:10278000704700F01F01012202FA01F14EF200121F
:102790004009CEF2000242F82010704710B54EF604
:1027A0000C5CCEF2000CDCF80030C3F3022E8EF08D
:1027B0000704042C28BF0424BEF103034FF0FF3E9E
:1027C0000EFA04F438BF0023A14399400EFA03F334
:1027D0009A4300F00F03043B1143634409010C3397
:1027E00000F16042B0F1FF3FC8BF02F564431970C9
:1027F00010BD00004EF60C51CEF200010A684FF6F3
:10280000FF031A4060F30A2242F0806040F0FD703E
:10281000086070477047000010B540F21444C4F2DD
:1028200001042068C00358BF10BDFFF7F3FF4FF449
:102830008030206010BD00002DE9F04182B00446D8
:10284000007841F21C06C007C4F202064ED0306880
:10285000C0000BD430684FF0010840F08050306069
:10286000306800F080500190019801E04FF00008BE
:1028700047F20007C4F200073868C00512D4386870
:1028800040F480703860FFF787FD05463868C00562
:1028900008D4FFF781FD401B6428F7D9032002B05C
:1028A000BDE8F081706810F4407012D0616801F4E6
:1028B000407188420DD0706840F24042C4F242221A
:1028C000012320F4407113600023C007136071607E
:1028D00029D17068616820F440700843B8F1000F96
:1028E000706003D0306820F080503060206881072D
:1028F00007D556F8181CA26821F44041114346F848
:10290000181CC00603D4002002B0BDE8F08156F8C0
:10291000180C616920F48000084346F8180C002068
:1029200002B0BDE8F081FFF737FD054641F2883778
:1029300070688007CDD4FFF72FFD401BB8424FF0E1
:102940000300F5D9ECE700002DE9F04381B0002841
:1029500000F0858042F20008C4F202080446D8F86C
:1029600000000D4600F0070088420CD2D8F80000A5
:1029700020F007002843C8F80000D8F8000000F055
:102980000700A8426BD1206841F204098107C4F214
:10299000020917D5410705D5D9F8001041F4E061C7
:1029A000C9F80010010705D5D9F8001041F46051AD
:1029B000C9F80010D9F80010A26821F0F001114305
:1029C000C9F80010C00743D1D8F8000000F0070094
:1029D000A8420CD9D8F8000020F007002843C8F816
:1029E0000000D8F8000000F00700A84237D12068A6
:1029F000410707D5D9F80010E26821F4E0611143DE
:102A0000C9F80010000708D5D9F80000216920F4A2
:102A1000605040EAC100C9F80000D9F8001042F245
:102A2000004001F00C02042AC0F2F40054D0082A3D
:102A300020D146F64373C1F38342C0F600039A5C8B
:102A4000C9033DD440F60010C0F23D00504343E0BE
:102A50006068012807D159F8041C890311D40120AA
:102A600001B0BDE8F08359F8041C022807D18901A0
:102A7000F5D506E041F20020C0F27A002CE089078B
:102A8000EDD5D9F8001021F003010843C9F8000082
:102A9000FFF782FC064641F2883700BFD9F80000F4
:102AA000616800F00C00B0EB810F3FF48DAFFFF7D1
:102AB00073FC801BB842F1D9032001B0BDE8F0835C
:102AC000D9F8001046F64173C1F34041C0F6000347
:102AD000595C5043B0FBF1F0D9F8001046F629726A
:102AE000C1F30311C0F60002515C40F2180220FA53
:102AF00001F140F20400C2F200000068C2F20002DC
:102B00001160FFF7D7FD002001B0BDE8F0830000A1
:102B100070B541F20005C4F20205FFF73DFC2968DB
:102B2000044641F0010028602868800706D4FFF7BA
:102B300033FC001B0228F7D9032070BD2868102140
:102B400061F3C7002860FFF727FC0446002041F22C
:102B500088366860686810F00C0F06D0FFF71CFC20
:102B6000001BB042F6D9032070BD40F20400C2F24F
:102B7000000040F2180141F200220068C2F2000198
:102B8000C0F27A020A60FFF795FD00281CBF012001
:102B900070BDFFF701FC2968044621F080702860B1
:102BA0002868800106D5FFF7F7FB001B0228F7D93C
:102BB000032070BD00206860FFF7EEFB2968044623
:102BC00021F410202860286880030AD5FFF7E4FB71
:102BD000001B64284FF0030088BF70BD2868800385
:102BE000F4D4286820F480202860686A40F080705F
:102BF00068620020A86070BD40F2180041F2040134
:102C0000C2F20000C4F202010068096846F6397297
:102C1000C1F30221C0F60002515CC84070470000B9
:102C200040F2180041F20401C2F20000C4F20201B5
:102C30000068096846F63972C1F3C221C0F6000285
:102C4000515CC840704700002DE9F04182B0002877
:102C500067D00446007841F20006C007C4F20206BD
:102C600024D0706800F00C0004281AD0706800F0BE
:102C70000C00082802D17068C00312D460680028D4
:102C800000F04181B0F5803F07D03168B0F5A02F4A
:102C900040F06E8141F480203060306840F4803034
:102CA0006CE13068800301D56068D0B3207880077C
:102CB00018D5706810F00C0F07D0706800F00C0089
:102CC000082856D17068C00353D43068800702D5F5
:102CD0002069012825D13068616920F0F80040EAB8
:102CE000C1003060207800071FD42078400731D41D
:102CF000E56995B1706800F00C00082840F08B8001
:102D0000012D0ED07068216A00F480328A4208D109
:102D1000616A00F47010884203D1002002B0BDE85F
:102D2000F081012002B0BDE8F081A069B8B30020B5
:102D3000C4F242200121C0F88014FFF72DFB0546A4
:102D4000706A800700F18A80FFF726FB401B02288B
:102D5000F6D920E1F069C00033D4F0694FF00108E2
:102D600040F08050F061F06900F0805000900098D1
:102D700029E02069002840F20000C4F2422000F05F
:102D8000978001210160FFF707FB05463068800747
:102D9000A1D4FFF701FB401B0228F7D9FBE000207C
:102DA000C4F242200021C0F88014FFF7F5FA05466E
:102DB000706A800799D5FFF7EFFA401B0228F7D910
:102DC000E9E04FF0000847F20007C4F20007386856
:102DD000C00510D4386840F480703860FFF7DCFA22
:102DE000054600BF3868C00505D4FFF7D5FA401B7B
:102DF0006428F7D9CFE0E06800286BD0012806D01E
:102E0000316A052840F0968041F004003062306A53
:102E100040F0010094E00027C4F242270020386609
:102E2000FFF7BAFA022D05460CD100BF30688001C9
:102E300040F1B580FFF7B0FA401B02284FF00300C5
:102E4000F4D96BE7306880017FF567AFFFF7A4FA2C
:102E5000401B02284FF00300F4D95FE740F218004E
:102E6000C2F20000006844F6D351C1F26201A0FB37
:102E70000101480A019000BF00BF0198411E0028CF
:102E800001913FF432AF00BF0198411E002801912B
:102E90003FF42BAF00BF0198411E002801913FF481
:102EA00024AF00BF0198411E00280191E4D11CE726
:102EB00000210160FFF770FA054600BF3068800707
:102EC0007FF510AFFFF768FA401B02284FF00300B0
:102ED000F4D923E7306A20F001003062306A20F034
:102EE00004003062FFF758FA054641F2883700BF08
:102EF000306A800733D5FFF74FFA401BB8424FF0D6
:102F00000300F5D90AE7306820F48030306030687B
:102F100020F480203060FFF73FFA054630688003D8
:102F20007FF5C4AEFFF738FA401B64284FF003006A
:102F3000F4D9F3E621F001003062306A20F0040099
:102F40003062FFF729FA054641F28837306A800778
:102F500005D4FFF721FA401BB842F7D91BE0B8F1BE
:102F6000000F3FF4C5AEF06920F08050F061BFE67D
:102F700021F480303060306820F480203060FFF72A
:102F80000BFA0546306880033FF590AEFFF704FA70
:102F9000401B6428F6D9032002B0BDE8F081206A06
:102FA000B0F5803F05D17168A26821F4003111436A
:102FB00071607168626A21F4741110430843706093
:102FC00001203866FFF7E8F9044600BF3068800149
:102FD0003FF5A3AEFFF7E0F9001B02284FF0030016
:102FE000F4D99BE670470000B0B584B00446006891
:102FF000416882684B0609D502F04103012B05D1D7
:10300000216C204604B0BDE8B04008470B0608D547
:1030100012F0020305D0616C204604B0BDE8B04058
:1030200008478B0610D512F060030DD012F0400354
:1030300017D094F85130032B08D100210291C168B8
:10304000029180680290029804B0B0BD636D43F0B5
:103050000403636500230393C368039383680393A6
:10306000039B12F020020CD0626D42F001026265F7
:103070000022019282680192026822F040020260FE
:10308000019A626D002ADFD04268890722F0E002CF
:1030900042604FF0010284F851201FD0416844F291
:1030A000C16521F003014160E06CC0F6000538B154
:1030B0004563FEF741FC18B1606D40F0400060656B
:1030C000A06C0028C0D04563FEF736FC0028BBD0BA
:1030D000606D40F04000606504B0B0BD204604B0B3
:1030E000BDE8B040FFF77EBF70B538B10446406A16
:1030F00030B10020206104F1140007E0012070BD10
:103100006068B0F5827F03D004F11C0000210160EB
:103110000026A66294F851004FF0000C38B9204602
:1031200084F8506000F03AF8A06A00F4005C0221D4
:1031300084F8511094E80E00E0680D6802F4827281
:1031400025F040050D6003F404431A44236900F49C
:103150000060104403F002026369104403F00102AE
:10316000A369E569104403F40072104405F03802C5
:10317000256A104405F08002104340EA0C00086004
:10318000042000EA13404860C86920F40060C86168
:103190000120666584F85100304670BD70B586B078
:1031A000002640F600440596CDE90366C4F201040A
:1031B0000068A4F554418842029601D006B070BD63
:1031C00041F21800C4F20200416802AD41F48041AE
:1031D0004160416801F4804101910199016841F029
:1031E000080101600068294600F00800019001987C
:1031F0004FF42040029002200390032005902046C7
:10320000FEF7C4FF4FF48040CDE902062046294670
:103210000496FEF7BBFF242002210022FFF7BEFA2E
:103220002420FFF7ABFA06B070BD0000411E00205D
:10323000B0EB116F1CBF012070474EF21002CEF2AE
:10324000000251604EF62351CEF20001F0230B70C4
:1032500007219060116070477047000070470000C0
:1032600010B590F83C20012A4FF0020241D0012312
:1032700080F83C3080F83D200268D2F804E0D2F8B3
:1032800008C00C682EF07003234340F6FF34C4F2EC
:103290000004A24253600FDCB2F1804F1ED040F216
:1032A0000043C4F200039A4218D040F60003C4F26F
:1032B00000039A4212D016E040F60043C4F2000325
:1032C0009A420BD043F20043C4F201039A4205D064
:1032D00042F60043C4F201039A4204D149682CF03B
:1032E0008003194391600121002280F83D1080F88D
:1032F0003C20104610BD0000002804BF012070478C
:1033000010B5044690F83D0028B9002084F83C0030
:10331000204600F01FF8022084F83D002068211D9F
:1033200001F02EFA012084F8460084F83E0084F86B
:103330003F0084F8400084F8410084F8420084F89B
:10334000430084F8440084F8450084F83D000020E0
:1033500010BD000010B582B00068B0F1804F17D0EA
:1033600042F60041C4F2010188422AD141F218001C
:10337000C4F202000168002241F4006101600068AB
:10338000032100F40060019001981920192410E035
:1033900041F21800C4F202004168002241F001012C
:1033A00041604068052100F00100009000981C2059
:1033B0001C24FFF7F3F9204602B0BDE81040FFF7E8
:1033C000DDB902B010BD000080B590F83C20012AA4
:1033D0004FF0020200F0C280012380F83C3080F8F8
:1033E0003D20D0F800C04FF67772DCF8083023EAB1
:1033F0000202CCF808200B684F2B28DC1F2B43DD82
:10340000202B44D0302B42D0402B40F0A980D1F863
:1034100004E0C968DCF82030DCF8202022F001024A
:10342000CCF82020DCF8182022F0F00242EA01114A
:1034300023F00A0242EA0E02CCF81810CCF8202041
:10344000DCF8081041F0470121F030017DE06F2BDE
:1034500025DDB3F5005F46D0B3F5805F77D0702BE4
:103460007ED1D1E901E3C968DCF8082043EA0E0304
:1034700022F47F4243EA01211143CCF80810DCF822
:10348000081041F0770160E00BB1102B68D1DCF837
:10349000081021F07001194341F0070155E0502B4D
:1034A00034D0602B5CD1D1F804E0C968DCF820305E
:1034B000DCF8202022F01002CCF82020DCF81820C4
:1034C00022F4704242EA013123F0A00242EA0E12D5
:1034D000CCF81810CCF82020DCF8081041F0670177
:1034E00021F0100131E0D1E901E3C968DCF80820DE
:1034F00043EA0E0322F47F4243EA01211143CCF850
:103500000810DCF8081041F480411EE0D1F804E016
:10351000C968DCF82030DCF8202022F00102CCF869
:103520002020DCF8182022F0F00242EA011123F0FA
:103530000A0242EA0E02CCF81810CCF82020DCF87F
:10354000081041F0570121F02001CCF808100022AA
:10355000012180F83D10002180F83C10104680BD0C
:103560000122F5E770470000B0B504460068C16865
:10357000026902EA0105A90720D4680738D42807A0
:1035800052D4E8066BD4E80740F08780280600F1A3
:103590008E80680606D520686FF0400101612046E4
:1035A00000F096F8A80658BFB0BD21686FF0200261
:1035B00020460A61BDE8B040FFF750BE6FF002013F
:1035C0000161012121778069800707D02046FFF73C
:1035D000C9FF002020776807D1D509E0204600F018
:1035E00071F8204600F070F8002020776807C6D5F3
:1035F00020686FF00401016102212177806910F4D5
:10360000407F07D02046FFF7ADFF00202077280736
:10361000B7D509E0204600F055F8204600F054F8F0
:10362000002020772807ACD520686FF008010161E1
:1036300004212177C069800707D02046FFF792FF59
:1036400000202077E8069ED509E0204600F03AF8F1
:10365000204600F039F800202077E80693D520684E
:103660006FF01001016108212177C06910F4407FDB
:1036700008D02046FFF776FF00202077E8073FF4C8
:1036800085AF0AE0204600F01DF8204600F01CF847
:1036900000202077E8073FF479AF20686FF0010140
:1036A0000161204600F012F828067FF572AF20680D
:1036B0006FF0800101612046FFF7CEFD68067FF5BF
:1036C00071AF68E770470000704700007047000066
:1036D0007047000070470000002804BF01207047B9
:1036E00010B50446242084F841002068C16821F404
:1036F0000051C160204600F04DFB0020606484F85A
:10370000410084F842002063606384F8400010BDEB
:1037100081B0416CC9B1002100910068026800923B
:1037200042680092009A00910268009242680092FA
:10373000009A00910268009242680092009A0091FB
:103740000168009140680090009801B07047000047
:10375000F0B581B0044600680168C268456901F0AF
:103760002F03202B02F0200306D12BB1204601B0FD
:10377000BDE8F04001F08AB85FEA017C07D005F0AF
:10378000010E12F4907F8EF001052FD175B3236BDB
:103790001140CA0618D5012B16D1002100910168ED
:1037A00000914168009100994169490600F18481C6
:1037B000A18DE28DE38D002B1CBF891A5FEA0142C7
:1037C00040F0FD8001B0F0BD0A0600F12E824906EE
:1037D000F8D5C16821F04001C1602021204684F85D
:1037E000411001B0BDE8F04000F086BDCE0718BF23
:1037F00012F4807603D0666C46F00106666401F030
:103800000407012686EA97072F4303D1676C47F028
:103810000207676401F0020786EA5706354303D1C1
:10382000656C45F00405656453EA0E0318BF012377
:10383000BCF1000F04D51BB1636C43F00803636453
:10384000636C002BBED01140890603D5204601F0E1
:103850001DF820684169626C01F0400102F0080225
:10386000891800F0F38100BF50E8030F216820F4AD
:10387000907041E80302C2B3206850E8030F21684A
:1038800020F4907041E803027AB3206850E8030FF7
:10389000216820F4907041E8030232B3206850E8B8
:1038A000030F216820F4907041E80302EAB1206818
:1038B000DAE700BF206850E8050F216820F001001A
:1038C00041E80502DAB1206850E8050F216820F0D0
:1038D000010041E8050292B1206850E8050F216817
:1038E00020F0010041E805024AB1206850E8050FC8
:1038F000216820F0010041E80502002ADAD1206B9E
:10390000012824D1206850E8030F216820F010001E
:1039100041E80302DAB1206850E8030F216820F083
:10392000100041E8030292B1206850E8030F2168BB
:1039300020F0100041E803024AB1206850E8030F6C
:10394000216820F0100041E80302002ADAD120208B
:1039500084F842000020206320684169490640F154
:103960008E8150E8050F216820F0400041E80502F3
:10397000002A00F07281206850E8050F216820F0CD
:10398000400041E80502002A00F06781206850E805
:10399000050F216820F0400041E80502002A00F0F0
:1039A0005C81206850E8050F216820F0400041E864
:1039B0000502002A00F051812068D2E7206850E813
:1039C000030F226820F4907042E80303BBB3206821
:1039D00050E8030F226820F4907042E8030373B3A9
:1039E000206850E8030F226820F4907042E8030337
:1039F0002BB3206850E8030F226820F4907042E84F
:103A00000303002BDAD11AE0206850E8050F226882
:103A100020F0010042E80503DBB1206850E8050F03
:103A2000226820F0010042E8050393B1206850E8C5
:103A3000050F226820F0010042E805034BB1206821
:103A400050E8050F226820F0010042E80503002B32
:103A5000DAD1202084F8420000202063206850E85A
:103A6000030F226820F0100042E80303DBB1206856
:103A700050E8030F226820F0100042E8030393B1DE
:103A8000206850E8030F226820F0100042E803038A
:103A90004BB1206850E8030F226820F0100042E884
:103AA0000303002BDAD1022289B22046626301B0FF
:103AB000BDE8F040FFF70EBEE26B11684B689EB2A6
:103AC000002E3FF47FAEA18D8E42BFF47BAEE38526
:103AD0009269202A00F09E8050E8030F216820F4AC
:103AE000807041E80302E2B1206850E8030F2168CA
:103AF00020F4807041E803029AB1206850E8030F77
:103B0000216820F4807041E8030252B1206850E837
:103B1000030F216820F4807041E803020AB1206895
:103B2000DAE7206850E8050F216820F0010041E83D
:103B30000502BAB3206850E8050F216820F00100A3
:103B400041E8050272B3206850E8050F216820F0B3
:103B5000010041E805022AB3206850E8050F2168FA
:103B600020F0010041E80502002ADAD11AE02068BD
:103B700050E8050F216820F0400041E80502DAB165
:103B8000206850E8050F216820F0400041E8050258
:103B900092B1206850E8050F216820F0400041E80C
:103BA00005024AB1206850E8050F216820F0400066
:103BB00041E80502002ADAD1202084F842000020E2
:103BC0002063206850E8030F216820F0100041E8CE
:103BD0000302DAB1206850E8030F216820F01000DA
:103BE00041E8030292B1206850E8030F216820F0F9
:103BF000100041E803024AB1206850E8030F216831
:103C000020F0100041E80302002ADAD1E06BFDF752
:103C10006FFEA18D02206063E08D081A81B22046FC
:103C200001B0BDE8F040FFF755BD94F841102129DF
:103C30007FF4C8ADA168B1F5805F01D1216921B3DE
:103C4000216A4A1C22620978416025E02046FFF77C
:103C50005FFD0020606401B0F0BDE06B78B144F618
:103C60008101C0F600014163FDF766FE00283FF4C4
:103C7000A9ADE06B416B01B0BDE8F04008472046BC
:103C800001B0BDE8F040FFF743BD216A31F8022BD7
:103C90006FF35F2242602162E18C01390A04E18402
:103CA0007FF490ADC16821F08001C160C16841F02E
:103CB0004001C16001B0F0BD002804BF0120704781
:103CC00010B5044690F8410028B9002084F840005F
:103CD000204600F0EDF8242084F841002068D4E963
:103CE0000212C36823F40053C360036923F44053F2
:103CF0001A430261D4E904231143C268194341F213
:103D00000C639A431143C1604169A26921F4407177
:103D1000114343F60002C4F201029042416102D015
:103D2000FEF76AFF01E0FEF77BFF62681921484356
:103D30009100B0FBF1F048F21F51C5F2EB11A0FB6E
:103D400001235A096FF0630302FB0300322303EBE4
:103D50000010A0FB0101F02303EA5113206803EBDC
:103D60000212C1F3431111448160016921F49041B1
:103D70000161416921F02A014161C16841F40051AA
:103D8000C16000202021606484F8411084F8421052
:103D9000606310BD10B5006844F6FF31C4F2000145
:103DA000884229DD43F60001C4F20101884239D07E
:103DB00045F20001C4F2000188424CD044F60041B3
:103DC000C4F20001884218BF10BD41F21C00C4F2C9
:103DD0000200016821F40021016041F20040C4F2B8
:103DE0000100A0F580604FF44061FEF7E9F834204F
:103DF000BDE81040FEF7AEBC44F20041C4F2000141
:103E0000884243D044F60001C4F2000188424ED1FA
:103E100041F21C02C4F2020210684FF4407120F417
:103E200080233BE041F21C00C4F2020050F8041C65
:103E300021F4804140F8041C41F20040C4F201002A
:103E4000A0F540604FF4C061FEF7BAF82520BDE848
:103E50001040FEF77FBC41F21C00C4F20200016872
:103E600041F2004421F48011C4F201040160A4F580
:103E700080604FF48051FEF7A3F820460421FEF73E
:103E80009FF83520BDE81040FEF764BC41F21C02EB
:103E9000C4F202021068602120F4003341F20040B5
:103EA000C4F201001360BDE81040FEF789B810BDF0
:103EB000B0B586B0006844F6FF31C4F20001884214
:103EC0004FF00001CDE90411CDE9021150DD43F6B8
:103ED0000001C4F20101884200F0948045F2000123
:103EE000C4F20001884200F0C98044F60041C4F2E7
:103EF0000001884240F03C8141F21800C4F2020007
:103F0000416802AD41F400214160416801F40021A3
:103F100001910199016841F0100101600068294692
:103F200000F01000019001984FF480600290022090
:103F300003900320059041F20040C4F20100A0F577
:103F400080642046FEF722F94FF4006002900020C2
:103F5000CDE9030020462946FEF718F93420042154
:103F60000022FEF71BFC3420FEF708FC06B0B0BDB3
:103F700044F20041C4F20001884200F0C28044F6DD
:103F80000001C4F20001884240F0F28041F21800C2
:103F9000C4F20200416841F2004441F480214160D2
:103FA0004168C4F2010401F4802101910199016882
:103FB00002AD41F0200101600068294600F02000B8
:103FC000019001984FF4807002900220039003202A
:103FD00005902046FEF7DAF84FF4007002900020BA
:103FE000CDE9030020462946FEF7D0F80420C4F2AC
:103FF000010008220168C0F20072283211430160FA
:1040000006B0B0BD41F21800C4F20200016802AD72
:1040100041F480410160016801F4804101910199FE
:10402000016841F0040101600068294600F00400C5
:10403000019001984FF40070029002200390032039
:10404000059041F20040C4F20100A0F54064204612
:10405000FEF79CF84FF4806002900020CDE9030049
:1040600020462946FEF792F8252001210022FEF77E
:1040700095FB2520FEF782FB06B0B0BD41F218008B
:10408000C4F20200416841F2004441F480114160F1
:104090004168C4F2010401F48011019101990168A1
:1040A00002AD41F010010160016801F010010191C1
:1040B0000199016841F0200101600068294600F083
:1040C0002000019001984FF480500290022003904C
:1040D00003200590A4F58060FEF758F804200290B4
:1040E0000020CDE9030020462946FEF74FF8352091
:1040F00004210022FEF752FB3520FEF73FFB06B0FD
:10410000B0BD41F21800C4F20200416841F200441F
:1041100041F4003141604168C4F2010401F400310E
:1041200001910199016802AD41F020010160006830
:10413000294600F0200001900198202002900220E2
:104140000390032005902046FEF720F840200290BF
:104150000020CDE9030020462946FEF717F8042089
:10416000C4F20100016841F0E06141F00801016022
:1041700006B0B0BD40F2F400C2F200000078704713
:104180002DE9F041044690F8410020281CBF022090
:10419000BDE8F0810F4600294FF0010000F0A28039
:1041A0001646002A08BFBDE8F08100252120984668
:1041B000656484F84100FEF7EFF8A684E684A16800
:1041C0000646B1F5805F05D12069002814BF384646
:1041D0003D460746E28C206801680AB318F10102E7
:1041E00046D0B8F1000F70D0090608D4FEF7D4F815
:1041F000801B40457AD82068C1680168F4E717B190
:1042000017F8011B04E035F8021B00276FF35F214C
:104210004160E18C0139E184E28C0168002AE3D13C
:10422000490612D4B8F1000F56D018F1010138D167
:10423000016849065CBF01685FEA416105D4016815
:10424000490602D401684906F2D5202084F84100CD
:104250000020BDE8F08135F8021B00276FF35F21D5
:104260004160E18C0139E184E28C0168002AD7D0F9
:1042700009065FBF01685FEA016101685FEA0161E9
:1042800004D40168090601D40168F1E7002FE2D0E7
:1042900017F8011BE4E700BF2068C168006840060A
:1042A000D3D4FEF779F8801B4045F5D916E000BF5E
:1042B00035F8021B00276FF35F214160E18C013963
:1042C000E184E28C0168002AAAD009060CD5002FEF
:1042D000EED017F8011BF0E7FEF75EF8202084F817
:1042E00041000320BDE8F081FEF756F8202084F855
:1042F00041000320BDE8F08170470000FEE70000A8
:10430000FEE70000FEE70000FEF786BA70470000F7
:10431000F0B581B041F67867C2F20007F86800286E
:1043200000F0A28040F2E406F868C2F2000630789D
:10433000E0B1F868B188884240F2968041F638676B
:1043400041F678644FF0FF35C2F20007C2F2000474
:104350007819C11D204602F051FBB0880135854215
:10436000F6D3002030800120F0707DE07078B0B18D
:1043700041F63860C2F20000411D41F67860C2F299
:10438000000002F03BFBB068418809BA090CB1801B
:104390008188090409BAF1600121B17033E0F8683D
:1043A00006282CD341F6786441F63865C2F2000441
:1043B000C2F200052046294602F020FB691C204677
:1043C00002F01CFBA91C204602F018FBE91C204649
:1043D00002F014FB291D204602F010FB691D204647
:1043E00002F00CFBB068418809BA090CB1808188E1
:1043F000090409BAF16001217170B17003E0B0786D
:10440000012831D1B0680021B1700178552930D12F
:104410004078AA282DD1B089811E022903D345F600
:10442000A521884225D1F868B188884235D941F65E
:10443000386741F678644FF0FF35C2F20007C2F2E8
:10444000000400BF7819C11D204602F0D7FAB088D9
:1044500001358542F6D3002030800120F07001B094
:10446000BDE8F04000F024B801B0BDE8F04000F035
:104470001FB841F63860C2F20000B0F8011082881F
:104480000180C178A0F8032081704FF480703080E3
:1044900001B0BDE8F04000F00BB840F201103080F0
:1044A0000020F07001B0BDE8F04000F001B800005D
:1044B0002DE9F04381B040F2E408C2F2000898F818
:1044C0000300012840F0B88041F634540020D8F8A9
:1044D0000C20B8F80430C2F2000488F8030061A18F
:1044E0002046FBF79DFE2046FCF706F882B240F21C
:1044F0002440C2F2000021466423FFF741FED8F8B1
:1045000008E0B8F804509EF804300EEB05009EF861
:10451000054082799EF802009EF803602344184407
:1045200030443DB36B1E032B05F0030C01D2002475
:104530000FE0A5EB0C0500240EEB0406B779F37928
:10454000317A3844767A184408440434A542304419
:10455000F2D1BCF1000F0DD00EEB04018B79BCF150
:10456000010F184406D0CB79BCF1020F184401D0DA
:10457000097A084441F63454C2F20004C3B241A19E
:104580002046FBF74DFE2046FBF7B6FF82B240F215
:104590002440C2F2000021466423FFF7F1FDD8F861
:1045A0000890B8F8042099F8043009EB020099F853
:1045B000057090F806C099F8020099F803603B4432
:1045C000184400EB06033AB3501E032802F0030E12
:1045D00001D2002010E0A2EB0E05002009EB00073D
:1045E000BE79FC79397A33447F7A23441944043004
:1045F000854207EB0103F1D1BEF1000F0CD0484416
:104600008179BEF1010F0B4406D0C179BEF1020FD2
:104610000B4401D0007A0344D8B284450CD1D8F8B9
:104620000C0045F6A52180B2884208D0032808D0A6
:10463000022801D1012305E001B0BDE8F083002389
:1046400000E0022347F2540703EB4303C0F60007E0
:1046500007EB83039B6809F1060101B0BDE8F04355
:10466000184700BF4865616465723A20307825308C
:1046700034582C204C656E6774683A2025640D0A06
:10468000000000004352432052656365697665640B
:104690003A203078253032582C2043524320436151
:1046A0006C63756C617465643A20307825303258DB
:1046B0000D0A000040F26420C2F20000FEF794BC34
:1046C000406A0021C187C186FEF78CBC704700009C
:1046D000FDF7CEBFB0B596B0002409204FF40031ED
:1046E0001194CDE90F440C904FF480300E910121CC
:1046F00002250D9010911291CDE913504FF4C01086
:1047000015900CA80B94CDE90944CDE90744CDE9F7
:104710000544CDE90344CDE90144FEF795FAC0B95B
:104720000F20CDE907054FF480600994CDE90A0414
:1047300007A80221FEF708F958B9022001904FF4AA
:104740004040039001A8FEF777F8002804BF16B098
:10475000B0BDFCF72DF900004EF60850CEF2000077
:104760004FF000610160704740F2BC20C2F20000CF
:10477000FEF7FABE40F20430C2F20000FEF7F4BECB
:1047800010B540F6FF3E0368C4F2000E43F2004C41
:104790007045C4F2010C20DCB0F1804F2BD040F208
:1047A0000042C4F20002904225D040F60002C4F25A
:1047B000000290421FD0704523DCB0F1804F2ED014
:1047C00040F20042C4F20002904228D040F60002BB
:1047D000C4F20002904222D025E040F60042C4F22A
:1047E0000002904207D0604505D042F60042C4F274
:1047F00001029042DFD14A6823F0700313437045F1
:10480000DBDD40F60042C4F20002904207D0604572
:1048100005D042F60042C4F20102904203D1CA68B8
:1048200023F44073134323F080024B69D1F800E076
:104830008C681A4360450260C462C0F828E005D065
:1048400042F60042C4F20102904201D109690163BB
:10485000012141610169C90708BF10BD016921F04B
:104860000101016110BD000040F22440C2F20000CD
:10487000FEF76EBF40F26C40C2F20000FEF768BF68
:10488000406A0021C185C184FEF742BF81B090F823
:104890004210222920D18368B3F5805F08D10169D5
:1048A000002964D000F128010A6803685B680AE007
:1048B000014651F8282F13B90369002BF5D003687E
:1048C0005B6803F07F0313700A6801320A60C18DD0
:1048D00001390A04C18501D001B070470168CA6876
:1048E00022F02002CA60CA6822F48072CA604A6953
:1048F00022F001024A61202280F842200022426315
:10490000036B012B3CD1026351E8031F026821F0C5
:10491000100142E803130168DBB151E8031F02688C
:1049200021F0100142E80313016893B151E8031F1D
:10493000026821F0100142E8031301684BB151E80D
:10494000031F026821F0100142E803130168002BE5
:10495000DAD10A68D20606D5002200920A680092CF
:10496000496800910099818D01B0FEF7B3BE0168DE
:10497000826A49686FF35F2122F8021B8262A6E710
:1049800001B0FFF7F7BB000010B582B043F600049A
:10499000C4F201042068800604D4206800070FD404
:1049A00002B010BD60680DF107018DF8070041F6F7
:1049B0007860C2F2000002F04DF820680007EFD5E1
:1049C0002068009060680090009802B010BD000060
:1049D00040F28C00C2F20000FCF75ABDFEE7000076
:1049E0004EF60C50BFF34F8FCEF200000168042248
:1049F00001F4E061C0F2FA5211430160BFF34F8F3E
:104A000000BFFDE74EF60C50BFF34F8FCEF2000013
:104A10000168042201F4E061C0F2FA52114301601E
:104A2000BFF34F8F00BFFDE74EF60C50BFF34F8F23
:104A3000CEF200000168042201F4E061C0F2FA52F3
:104A400011430160BFF34F8F00BFFDE710B5C0B049
:104A500040F22440C2F2000017A112226423FFF7A3
:104A60008FFB6C4604F10B00F521FBF7A9FD40F22A
:104A7000B4414AF65520C2F20001C0F20040496834
:104A800000904FF40070ADF8040001EB112000EB32
:104A9000114000EB116006308DF80A0040F24C30F6
:104AA000CDF80610C2F2000021460B224FF47A73B3
:104AB000FFF766FB40B010BD68616E646C655F67B0
:104AC00065745F696E666F720D0A000010B5C0B044
:104AD00040F22440C2F200000FA113226423FFF72A
:104AE0004FFB6C46E01DF921FBF76AFD4AF65520A5
:104AF00000904FF44070ADF8040003208DF80600DC
:104B000040F24C30C2F20000214607224FF47A7383
:104B1000FFF736FB40B010BD68616E646C655F7076
:104B2000696E675F73746D33320D0A0070B540F2C1
:104B3000E406C2F20006B06841F63454D0F806101C
:104B400047F278057161D0F80A10C2F20004B16131
:104B5000817BC0F600053177C17B7177017CB1772D
:104B6000417CF177817C86F82010C17C86F8211089
:104B7000017D86F82210417D86F82310817D86F81C
:104B80002410C17D86F82510017E86F82610417E0E
:104B900086F82710817E86F82810C17E86F82910B5
:104BA000017F86F82A10417F86F82B10817F86F8D6
:104BB0002C10C17F86F82D1090F8201086F82E104A
:104BC00090F8211086F82F1090F8221086F83010F7
:104BD00090F8231086F8311090F8241086F83210DF
:104BE00090F8251086F8331090F8261086F83410C7
:104BF00090F8271086F8351090F8281086F83610AF
:104C000090F8291086F8371090F82A1086F8381096
:104C100090F82B1086F8391090F82C1086F83A107E
:104C200090F82D00294686F83B00327F2046FBF79E
:104C3000F7FA727FE01C2946FBF7F2FAB27FA01D5B
:104C40002946FBF7EDFAF27F04F109002946FBF74C
:104C5000E7FA96F8202004F10C002946FBF7E0FA69
:104C600096F8212004F10F002946FBF7D9FA96F8AF
:104C7000222004F112002946FBF7D2FA96F82320ED
:104C800004F115002946FBF7CBFA96F8242004F12D
:104C900018002946FBF7C4FA96F8252004F11B00FA
:104CA0002946FBF7BDFA96F8262004F11E00294696
:104CB000FBF7B6FA96F8272004F121002946FBF706
:104CC000AFFA96F8282004F124002946FBF7A8FA49
:104CD00096F8292004F127002946FBF7A1FA96F857
:104CE0002A2004F12A002946FBF79AFA96F82B208D
:104CF00004F12D002946FBF793FA96F82C2004F1D5
:104D000030002946FBF78CFA96F82D2004F1330089
:104D10002946FBF785FA96F82E2004F1360029463D
:104D2000FBF77EFA96F82F2004F139002946FBF7AD
:104D300077FA96F8302004F13C002946FBF770FA28
:104D400096F8312004F13F002946FBF769FA96F8FE
:104D5000322004F142002946FBF762FA96F833202C
:104D600004F145002946FBF75BFA96F8342004F17C
:104D700048002946FBF754FA96F8352004F14B0019
:104D80002946FBF74DFA96F8362004F14E002946E5
:104D9000FBF746FA96F8372004F151002946FBF755
:104DA0003FFA96F8382004F154002946FBF738FA08
:104DB00096F8392004F157002946FBF731FA96F8A6
:104DC0003A2004F15A002946FBF72AFA96F83B20CC
:104DD00004F15D002946FBF723FA2046FBF78CFB24
:104DE00040F22445C2F2000582B2284621466423DF
:104DF000FFF7C6F97269B3690CA12046FBF710FAF8
:104E00002046FBF779FB82B2284621466423FFF750
:104E1000B7F911A1284614226423FFF7B1F9012044
:104E200030747074FDF7B8FAF06370BD535441529A
:104E3000545F4F54412072656365697665643A201A
:104E400076657273696F6E3D25642C2073697A658F
:104E50003D25640D0A00000053544152545F4F54E5
:104E6000412072656365697665640D0A0000000083
:104E70008EB040F600060025C4F201060195FDF74C
:104E800005FC41F2180AC4F2020ADAF80C0001210A
:104E9000009040F2E040C4F242200160FFF71AFCAB
:104EA0000595DAF80000022240F00100CAF800007F
:104EB000DAF8000006F5006400F001000C900C9890
:104EC0000420C4F20100016862F31A610160DAF89B
:104ED000000044F2C03140F01000CAF80000DAF8D7
:104EE0000000012200F010000C900C98DAF800008D
:104EF00040F00400CAF80000DAF8000000F00400F6
:104F00000C900C98DAF8000040F00800CAF8000095
:104F1000DAF8000000F008000C900C98DAF80000B5
:104F200040F04000CAF80000DAF8000000F040004D
:104F30000C900C98DAF8000040F02000CAF800004D
:104F4000DAF8000000F020000C900C982046FDF7E5
:104F50001DFA204648F202010022FDF717FA3046FA
:104F600048F276010022FDF711FA06F58068404606
:104F700037210022FDF70AFA40464FF48051012202
:104F8000FDF704FA06F5406B584640F60101002291
:104F9000FDF7FCF958464FF470410122FDF7F6F990
:104FA00030464FF480710122FDF7F0F94FF40050C4
:104FB00002AFCDE902050226204639460496FDF7E8
:104FC000E5F84CF2C23002904FF001092046394614
:104FD000CDE903950596FDF7D9F80820CDE902053E
:104FE000204639460495FDF7D1F840F60004C4F296
:104FF000010420463946CDE902950495FDF7C6F82F
:105000004FF4BB70CDE902090220059020463946D5
:10501000012604954FF00209FDF7B8F80820029028
:105020000020C1F21100CDE9030520463946FDF705
:10503000ADF83720CDE9020640463946CDE904599E
:10504000FDF7A4F84FF47E5002A904F5805461C125
:1050500020463946FDF79AF80020C1F211004FF4BE
:10506000004900F58010CDF80890CDE903062046F0
:105070003946FDF78BF84FF48050CDE90206032442
:105080004046394604950594FDF780F84FF4784082
:10509000CDE9020602200590584639460495FDF7F1
:1050A00075F840F60000CDF8089043F20009C4F20C
:1050B00001003946C4F20009CDE903650594FDF706
:1050C00065F80120CDE9020058463946CDE904547F
:1050D000FDF75CF80820CDE9020502200490404667
:1050E0003946FDF753F8282005210022FDF756FB2D
:1050F0002820FDF743FB5AF8040C032140F001007F
:105100004AF8040C5AF8040C002200F00100029046
:1051100002980B20FDF742FB0B20FDF72FFB40F21E
:105120008006C2F2000609F55051304640F20017E1
:1051300040F80C1F04214FF440224FF48013C0F2BA
:105140000117C0E90115C0E90352C0E9053785839D
:10515000FCF7C0FA002840F0FE810120CDE9075598
:10516000CDE90255CDE904550695CDE909000E209B
:1051700006F10C040B9002A92046FCF713F9002855
:1051800040F0E9812046FCF777FB002840F0E381FE
:1051900020460221FCF7F0F8002840F0DC8140F2C4
:1051A000BC1009F51051C2F2000041F68022002423
:1051B0004FF48043C0F2060280E81600C0E90343C2
:1051C000C0E90544C0E90744FDF7ECF8002840F0C9
:1051D000C28140F60000C4F2010000F5105140F217
:1051E000BC20C2F200004FF6FF73CDE90444CDE9C4
:1051F0000244CDE90C443F2280E81600C0E90334A4
:10520000C0E90544FEF778F8002840F0A4814FF487
:105210008050029040F2BC20C2F2000002A9FEF7CA
:10522000D3F8002840F0978140F2BC200024C2F25D
:1052300000000CA9CDE90C44FEF712F8002840F05C
:105240008A8140F60000C4F2010000F5E0513046CA
:1052500040F8341F4FF4807101254FF4602205732C
:105260000475C261C0E9014104210494CDE90244FE
:105270000161FBF751FF002840F06D810A2006F123
:105280003404CDE90205072502A920460495FBF761
:1052900011FE002840F05F810220039002A9204601
:1052A0000295FBF707FE002840F055810E20029082
:1052B0000320039002A92046FBF7FCFD002840F0E4
:1052C0004A810F2002900420039002A92046FBF798
:1052D000F1FD002840F03F8140F2642009F50061B3
:1052E000C2F200004FF4827200244FF400731827BA
:1052F00080E816000A21C0E90344C0E90543C761FC
:10530000C0E90844C0E90A41FDF7EEFE002840F07C
:10531000228140F2244009F5E051C2F200004FF42E
:10532000E1370C25C0E90017C0E90244C0E9044593
:10533000C0E90644FEF7C0FC002840F00C8140F2B2
:105340006C4009F50051C2F200000024C0E90017CA
:10535000C0E90244C0E90445C0E90644FEF7ACFCDC
:10536000002840F0F88040F2943009F5A051C2F2D4
:1053700000004FF4E1370C25C0E90017C0E90244F2
:10538000C0E90445C0E90644FEF796FC002840F059
:10539000E28040F2DC3009F5C051C2F20000002486
:1053A000C0E90017C0E90244C0E90445C0E9064469
:1053B000FEF782FC002840F0CE8040F2102009F574
:1053C0002051C2F2000048F2A0624FF48043C0F2C4
:1053D000010280E81600C0E90343C0E90544C0E9C2
:1053E0000744FCF7DFFF002840F0B58006204FF4AB
:1053F0009C71C6E900903046B160FDF705F90028C0
:1054000040F0A98040F60000C4F2010040F24C38A0
:1054100000F54050C2F200084FF4E13100240C22A4
:1054200088E813004046C8E90344C8E90524C8F8E1
:105430001C40FEF741FC002840F08D8040F2043013
:10544000C2F200004FF080413F2240F2E73380E893
:1054500016008021CDE90444CDE90244CDE90C4495
:10546000C0E903348161FDF747FF002873D14FF491
:105470008050029040F20430C2F2000002A9FDF711
:10548000A3FF002867D10020CDE90C0040F20430D2
:10549000C2F200000CA9FDF7E3FE00285BD10098E2
:1054A00010F000503DD058464FF400610122FCF747
:1054B0006DFF40F280044FF00009C2F200044EF686
:1054C0005F274EF66025002603E000BF0136322E2E
:1054D00021D02046FDF7C6F8CDF808900298B842D2
:1054E000F4DC00BF0298013002900298A842EDDA85
:1054F0000298013002900298B842E7DC029801302D
:1055000002900298B842E1DC0298013002900298C1
:10551000A842E7DBDAE758464FF400610022FCF7C7
:1055200035FFD8F80000C16841F02001C16000F0EB
:10553000FFF900F081FB40F28004C2F2000400BFDA
:105540002046FDF78FF801F0B3F801F0F1F80120E3
:10555000FCF724FCF4E7FBF72BFA00002DE9F04FF1
:10556000C3B040F2B449C2F20009D9F8306002A8D1
:1055700001F03AFBF6B14FF20000C0F6000040F235
:10558000800700F562350DF10808C2F2000700BF80
:105590003446B6F5806F28BF4FF4806440462946F4
:1055A000224601F079FC38462544361BFDF75AF8AF
:1055B000002EEDD140F22410C2F2000000F12804C8
:1055C00002AE3046214601F071FA09F1340021465D
:1055D0002022FAF765FF00281CBF43B0BDE8F08F1A
:1055E00040F224404FF2000AC2F200005AA10C22FD
:1055F0006423C0F6000AFEF7C3FD4FF6000440F234
:105600008007CFF6FF74C2F200073846FDF72AF88C
:105610000AEB040000F5C0504FF40061FBF78EFB6D
:105620003846FDF71FF804F50064B4F55C3FECD391
:1056300040F22440C2F200004BA10C226423FEF78A
:105640009FFDD9F8300008B9002054E040F28008EE
:10565000711C0024C2F200080191071BB7F5807F7E
:1056600028BF4FF480770AEB040B9FB3781E032802
:1056700007F0030002D20021F0B92BE047F6030146
:10568000C0F604012144A0EB070C6FF0030211F8EF
:10569000035C019B1344DD7011F8025C04321D7140
:1056A00011F8015C5D710D7804319D710CEB020302
:1056B0000433ECD1111D68B10BF56232535C012843
:1056C000735407D04B1CD55C0228F55402D0881CBB
:1056D000115C31544046FCF7C5FF0BF58050314654
:1056E0003A46FBF76DFB4046FCF7BCFFD9F83000AB
:1056F0003C44A042B1D8D9F82C1009F134078CCF22
:1057000009F1480ED9E910659EE81050C9E9011069
:1057100009F10C008CC009F12000C9E9066580E898
:105720001050484600F026F8C9F8540050464FF48F
:105730008051FBF703FB504649465822FBF740FBDC
:1057400040F28000C2F20000FCF78CFF6420FCF7FE
:1057500025FBFFF757F900BF53746172745F6572E0
:1057600061736541000000006572617365415F64AB
:105770006F6E650090F800C042788378C17862440B
:105780001A44114402794379114482791944C37946
:105790001144027A1944437A1144827A1944C37A33
:1057A0001144027B1944437B1144827B1944C37B1F
:1057B0001144027C1944437C1144827C1944C37C0B
:1057C0001144027D1944437D1144827D1944C37DF7
:1057D0001144027E1944437E1144827E1944C37EE3
:1057E0001144027F1944437F1144827F1944C37FCF
:1057F000114490F82020194490F82130114490F879
:105800002220194490F82330114490F824201944A0
:1058100090F82530114490F82620194490F827304C
:10582000114490F82820194490F82930114490F838
:105830002A20194490F82B30114490F82C20194458
:1058400090F82D30114490F82E20194490F82F3004
:10585000114490F83020194490F83130114490F8F8
:105860003220194490F83330114490F83420194410
:1058700090F83530114490F83620194490F83730BC
:10588000114490F83820194490F83930114490F8B8
:105890003A20194490F83B30114490F83C201944C8
:1058A00090F83D30114490F83E20194490F83F3074
:1058B000114490F84020194490F84130114490F878
:1058C0004220194490F84330114490F84420194480
:1058D00090F84530114490F84620194490F847302C
:1058E000114490F84820194490F84930114490F838
:1058F0004A20194490F84B30114490F84C20194438
:1059000090F84D30114490F84E20194490F84F30E3
:10591000114490F85020194490F85130114490F8F7
:105920005220194490F85300114408447047000075
:105930002DE9F04F9FB04FF20A0740F2B441C0F694
:1059400000070020C2F20001C21912F80A3C0B54F1
:1059500012F8096C0B185E7012F8086C9E7012F841
:10596000076CDE7012F8066C1E7112F8056C5E7121
:1059700012F8046C9E7112F8036CDE7112F8026C5E
:105980001E7212F8016C5E72C65D16309E725678F9
:105990005828DE7296781E73D6785E7316799E73D9
:1059A0005679DE7396791E74D6795E74167A9E7473
:1059B000567ADE74967A1E75D27A5A75C4D140F240
:1059C000B449C2F2000900264846C0F60106FFF7B6
:1059D000D1FE31680546706801F1604240F2241B37
:1059E000B2F5803FC2F2000B3DD8013118BF10F173
:1059F000010138D000F1774000F57F000021B0F5BB
:105A00005E3F4FEAD02038BF01216E288BF800108E
:105A10002CD8D9F8088002A8019501F0E5F8B8F172
:105A2000000F19D040F280050DF1080AC2F20005FE
:105A30004446B8F5806F28BF4FF480645046314625
:105A4000224601F029FA28462644A8EB0408FCF770
:105A500009FEB8F1000FEBD10BF1080102A801F02B
:105A600025F8019D02E000208BF8000040F224445C
:105A7000C2F2000445F65A2649A1204618226423A2
:105A8000CAF2A556FEF77CFB4BA120460D226423EB
:105A9000FEF776FB9BF800004BA24DA1002808BF43
:105AA0001146204604226423FEF76AFBD9F8000061
:105AB000B0420DD1D9F85400A84209D140F2244097
:105AC000C2F200004CA11E226423FEF759FB3AE00B
:105AD00040F22440C2F200003FA11C226423FEF7E2
