:020000040800F2
:10000000703100200D0200086BA900082B9C00082D
:1000100069A9000835440008E9CB00080000000089
:10002000000000000000000000000000E1B0000837
:10003000856100080000000099AA000805B20008C8
:100040002702000895AA00082702000827020008D6
:1000500027020008270200082702000827020008DC
:10006000270200082702000827020008794A000832
:1000700027020008270200082702000827020008BC
:100080002702000827020008FD04000827020008D4
:1000900091BC000827020008270200082702000878
:1000A0002702000885B2000827020008270200087E
:1000B00091B2000827020008270200082702000862
:1000C000270200082702000827020008270200086C
:1000D0007DAF000827020008270200082702000859
:1000E000D56100082702000827020008270200083F
:1000F000270200082702000827020008270200083C
:10010000270200082702000827020008270200082B
:10011000F9B9000805BA00082702000827020008FC
:10012000270200082702000827020008270200080B
:1001300000F002F800F05AF80AA090E8000C82449F
:100140008344AAF10107DA4501D100F04FF8AFF27C
:10015000090EBAE80F0013F0010F18BFFB1A43F0A5
:10016000010318475C2201007C2201000A444FF081
:10017000000C10F8013B13F0070408BF10F8014B06
:100180001D1108BF10F8015B641E05D010F8016B4B
:10019000641E01F8016BF9D113F0080F1EBF10F8AF
:1001A000014BAD1C0C1B09D16D1E58BF01F801CBD2
:1001B000FAD505E014F8016B01F8016B6D1EF9D555
:1001C0009142D6D37047000000230024002500266A
:1001D000103A28BF78C1FBD8520728BF30C148BFAA
:1001E0000B6070471FB51FBD10B510BD00F04BF977
:1001F0001146FFF7F7FF0DF055FC00F069F903B465
:10020000FFF7F2FF03BC00F071F9000009488047D6
:1002100009480047FEE7FEE7FEE7FEE7FEE7FEE7E8
:10022000FEE7FEE7FEE7FEE704480549054A064B00
:100230007047000081B2000831010008702B0020D7
:1002400070310020702D0020702D0020B2F12003AD
:100250000AD5C2F1200301FA02F120FA03F300FAF1
:1002600002F041EA0301704700FA03F14FF0000089
:100270007047B2F120030AD5C2F1200320FA02F040
:1002800001FA03F321FA02F140EA0300704721FA70
:1002900003F04FF00001704740EA010310B59B07DF
:1002A0000FD1042A0DD310C808C9121F9C42F8D0E0
:1002B00020BA19BA884201D9012010BD4FF0FF3091
:1002C00010BD1AB1D30703D0521C07E0002010BDA7
:1002D00010F8013B11F8014B1B1B07D110F8013B33
:1002E00011F8014B1B1B01D1921EF1D1184610BD14
:1002F000032A40F2308010F0030C00F0158011F852
:10030000013BBCF1020F624498BF11F801CB00F829
:10031000013B38BF11F8013BA2F1040298BF00F87D
:1003200001CB38BF00F8013B11F0030300F025803A
:10033000083AC0F0088051F8043B083A51F804CB61
:10034000A0E80810F5E7121D5CBF51F8043B40F827
:10035000043BAFF30080D20724BF11F8013B11F832
:1003600001CB48BF11F8012B24BF00F8013B00F876
:1003700001CB48BF00F8012B704710B5203AC0F000
:100380000B80B1E81850203AA0E81850B1E8185096
:10039000A0E81850BFF4F5AF5FEA027C24BFB1E8D3
:1003A0001850A0E8185044BF18C918C0BDE8104044
:1003B0005FEA827C24BF51F8043B40F8043B08BF4D
:1003C0007047D20728BF31F8023B48BF11F8012B14
:1003D00028BF20F8023B48BF00F8012B704702F00D
:1003E000FF0343EA032242EA024200F002B84FF060
:1003F00000020429C0F0128010F0030C00F01B80F2
:10040000CCF1040CBCF1020F18BF00F8012BA8BFFF
:1004100020F8022BA1EB0C0100F00DB85FEAC17CC3
:1004200024BF00F8012B00F8012B48BF00F8012B76
:1004300070474FF0000200B51346944696462039A7
:1004400022BFA0E80C50A0E80C50B1F12001BFF48D
:10045000F7AF090728BFA0E80C5048BF0CC05DF8F3
:1004600004EB890028BF40F8042B08BF704748BF41
:1004700020F8022B11F0804F18BF00F8012B7047B5
:10048000704770477047754600F02CF8AE4605007F
:100490006946534620F00700854618B020B5FFF79F
:1004A000C3FEBDE820404FF000064FF000074FF0BC
:1004B00000084FF0000B21F00701AC46ACE8C00982
:1004C000ACE8C009ACE8C009ACE8C0098D4670478B
:1004D00010B50446AFF300802046BDE81040FFF79A
:1004E0008EBE0000004870470C2B002001491820E8
:1004F000ABBEFEE72600020070470000014805F091
:10050000E2BF0000B015002070B5044600688168A5
:10051000C943C90717D1816821F00101816007F043
:1005200003FB05460AE000BF07F0FEFA401B022865
:1005300004D920688068C043C00706D0206880685E
:10054000C043C007F0D0002070BDA06A40F010008A
:10055000A062E06A40F00100E062012070BD10B5C9
:100560000146406A826A12F0500F05D0006A026BA1
:10057000BDE8104008461047816A41F4007181626D
:1005800001688968C1F3424107290CD1017B51B947
:10059000816A21F480718162816AC90403D4816A0D
:1005A00041F00101816205F08BFF10BD10B5406A7A
:1005B000816A41F040018162C16A41F00401C16277
:1005C00005F080FF10BD10B5406A05F07AFF10BD40
:1005D000F8B500260446009600688168C943C9073B
:1005E0002DD0816841F001018160164816490068EC
:1005F000B0FBF1F000E0401E00900028FBD107F0B6
:1006000093FA054616E000BF07F08EFA401B022859
:1006100010D920688068C043C0070BD0A06A40F0A2
:100620001000A062E06A40F00100E06284F82460FB
:100630000120F8BD20688068C043C007E4D10020D5
:10064000F8BD00009002002040420F000022114639
:1006500030F81130491C1A444029F9DB90097047E1
:1006600000F00F01000900EB800001EB4000C0B278
:10067000704700002DE9F04FF748ADB0817C0129AB
:100680007DD1824690F8671090F8310001264FF036
:1006900000091B90014300D0B146DFF8BCB3EF491D
:1006A0000BF1800B0BF18007BBF93C001D90BBF8F0
:1006B000360009905C46786911F06EF9796B0D4649
:1006C00011F0C8FA03950890786A07951C90E08AA3
:1006D0001890208B17900120DFF884831A901990CE
:1006E00016901590149013906FF488754FF47A74E7
:1006F000D8F8000011F012FAADF83000D8F8040074
:1007000011F00CFAADF83200D8F8080011F006FA32
:10071000ADF83400D8F80C0011F000FAADF836004E
:10072000386C11F0FBF9ADF83800786C11F0F6F97F
:10073000ADF83A00D8F8180011F0F0F9ADF83C0027
:10074000F86B11F0EBF9ADF83E0000200DF130032D
:1007500033F91010A94205DD01221692421CD2B2D3
:100760000D461592A14205DA0C4601211491411C57
:10077000C9B21391401C0828EADB002200E08EE297
:10078000DFF8DCC2ABF83E204FF6FF73ABF8403029
:100790001146ACF1200C50463CF81170974204D938
:1007A00001F101083A4680F833809F4206D2B7F53E
:1007B000FA7F03D93B464F1C80F83470491C10293E
:1007C000EADBA549924680319B46A1F84030CA87B2
:1007D00090F833101F9190F834101E9190F83F104C
:1007E000C177239190F83E1080F82010249190F862
:1007F000401080F82110009190F8411090F84220AC
:10080000114300D0012180F82210049190F8471084
:1008100090F84620114390F84420114301D0012361
:1008200000E0002380F8233090F84A1090F8492027
:10083000114301D0012200E000228A4980F82420DF
:100840000F780FB98F7807B1012780F825702097AE
:100850004F780FB9CF7817B14FF0010C01E04FF08E
:10086000000C7D4880F826C00F7980F8277091F839
:10087000058080F828808879BE4608B9C87900B11B
:100880000120754F87F829000F7A0FB9497A01B115
:100890000121714F87F82A10CDE926302498CDE93F
:1008A000280ECDE92A210498CDE9248C21900098C6
:1008B000002722906C48C05D00287CD06648EF304D
:1008C000C05D002877D1694807EB071100EB810074
:1008D000804630F9332F1D99761C11441D914288B2
:1008E0000999F6B211440991C17A027B090441EADF
:1008F0000221427BC37B1143827B120442EA032222
:10090000037C1A43059298F83900042808D2B8F8F5
:10091000371064204143B8F83A00642250430590F0
:10092000084611F04FF9089910F080FF08900598DB
:1009300011F048F90590039910F078FF039007999A
:10094000059810F073FF0790494807EB870100EB0B
:100950004100189930F9052F4FF4FA7E114418918F
:10096000B0F90210179808441790002098F8013049
:10097000BA1C1AE008EB4001498851450AD902F037
:10098000FF0CCDF868C000F1010C0CF0FF0C8A469A
:10099000CDF87CC0594507D2714505D98B46D1B2F7
:1009A0001991411CC9B21E91401C8342E2DC002017
:1009B00098F8223021E099E008EB40014FF00A0C52
:1009C000B1F92310A1F6AB2191FBFCF109B2A942C8
:1009D0000ADD02F0FF0CCDF858C000F1010C0CF05C
:1009E000FF0C0D46CDF854C0A14205DA0C46D1B239
:1009F0001491411CC9B21391401C8342DCDCB8F84D
:100A00003C101C9808441C90C7EBC70000EB800109
:100A100018480844817FCA0701D0012223920A06A0
:100A200001D48A0701D5012228924A0701D5012263
:100A30002292CA0601D5012221924A0601D48906D2
:100A400001D501212691017F022902D0012913D06D
:100A500014E00121209111E0600000200000C84254
:100A60005C0B0020350A002016000020E202002066
:100A7000AE030020CC03002001212591C17E022974
:100A800001D101212991417F022901D10121249124
:100A9000002142780EE043189B78022B02D0012BF4
:100AA00004D006E001232393209302E0012328933E
:100AB0002593491C8A42EEDC0021827C0EE043181B
:100AC000DB7C022B02D0012B04D006E0012326930D
:100AD000279302E001232A932B93491C8A42EEDCE0
:100AE00090F82000C00601D54FF001097F1C032FAC
:100AF000FFF6E0AE6B482A99DFF8AC8180F824104D
:100B00002B9980F82A10269980F82310279980F8CD
:100B10002910289980F820101091259980F8261026
:100B2000239FC777209980F82510249980F82810F2
:100B3000299980F82710219980F82210229980F8AD
:100B4000211006761D98C8F80400039811F002F8E9
:100B5000C8F85400534890F82C80EEB309985149D6
:100B6000B0FBF6F08031C883304611F02BF8064612
:100B700009901C9811F026F8314610F00DFF0EF088
:100B800005FE10F0E7FF4749803188850398B0F5EE
:100B9000000F0DDB4549089811F05CF8039910F03F
:100BA000FBFE0EF0F3FD10F0D5FF3E4980310885C5
:100BB0003C4E8036308D632803D317B9B8F1000F4F
:100BC00032D057EA080001D06420308538490998AE
:100BD00011F040F8354900E00BE00390079811F060
:100BE00039F8039910F0D8FE0EF0D0FD10F0B2FFE6
:100BF00070852C4847EA08078030418B8184818BBF
:100C0000C1841899018417994184264991F82E20AE
:100C100091F8793017431B9A17430A461F43567BB6
:100C200092F80FC009D101E06320CEE7B9F1000FBF
:100C300003D116B9BCF1000F01D00022028491F853
:100C40002B70109A3A431B9F3A431A4352EA090207
:100C500003D116B9BCF1000F01D00022428481F803
:100C60001990C5850486A0F842A0A0F844B01A984F
:100C700081F835001F9881F83600199881F83700FF
:100C80001E9881F83800169881F83900159881F877
:100C90003A00149881F83B00139881F83C002DB07D
:100CA000BDE8F08F60000020600100200000C84215
:100CB000005299482DE9F05F524C607C002830D0FA
:100CC000E07D05282DD0504807F07FFA08214F48D5
:100CD00006F018FF012800D00020E17D0027DFF892
:100CE00030A14C4D05264FF001084FF002094FF49A
:100CF000FA7B062946D2DFE801F0031631466C8202
:100D0000A774A775FF20E074002210213F4806F069
:100D100006FF06F009FFA86106F006FF286284F8C6
:100D20001780BDE8F09F58B106F0FEFE296A401A10
:100D30005845F6D90420E07506F0F6FEA861F0E704
:100D400006F0F2FEA969401A40F6B831884201D98E
:100D500084F8179006F0E8FE2862E2E784F8128033
:100D6000464684F8139001221021284806F0D7FE49
:100D7000AAF800708AF8027026760326667506F0D7
:100D8000D3FEA86139E006F0CFFEE969401A584564
:100D900006D3617D20480AF0DEF806F0C5FEE86162
:100DA000607D0AEB000111F8031C59B1401C60750D
:100DB000207E401C207606F0B7FEA861607D0528E5
:100DC00000D9E67506F0B0FEA969401A41F28831F3
:100DD00011E0A07D032808D3A774A07DE074012250
:100DE00010210A4806F09BFEE67506F09DFEA969F3
:100DF000401A43F69821884293D9E67591E76774C3
:100E00008FE7000060000020B0160020000C0140B9
:100E100016000020E0010020EC1700202DE9F84F1B
:100E2000DFF8508298F81200012842D106F07CFECB
:100E3000064608F58070904F80884FF0010901B296
:100E400098F80B0008F180040025A0B3DFF82CB25D
:100E500004F16C0A01286AD002287DD0032828D129
:100E600098F80E00B8B1962003F070FD002204211E
:100E70005C46584606F053FE00220221204606F04A
:100E80004EFE32200AF02EF9002220217C4806F086
:100E900046FE88F80E5098F80C001AF80010052944
:100EA00003D3744AEF3202F8009088F80D5088F8A6
:100EB0000B50BDE8F88FFFE7DFF8B8A10020714BB9
:100EC000714A0AF1EF0A4FF4C87EBB46C8311F5C75
:100ED00047B31AF800702FBB00EB001C0BEB8C071C
:100EE0007145B7F933701DD91437282F1AD8C0EBC4
:100EF000C00707EB870717440097FF7F5FEA877CEF
:100F000010D47F070ED4009F97F82070FF0609D4F5
:100F100088F80C0088F80B90A66788F80D9088F880
:100F20000E50C6E7401CC0B20328D0D3C1E7A06F63
:100F300040F6B831301A8842BBD998F80C00032526
:100F4000C11CC9B200EB001007EB80000091B0F8A3
:100F50003500E18E081A00E03DE040F2DC518842A5
:100F600001DD022526E040F2DC51C84222DA0125EB
:100F700088F80E90962003F0E9FC002204215846E0
:100F800006F0CDFD00220221584606F0C8FD1420CF
:100F90000AF0A8F801222021394806F0C0FD0A20F5
:100FA0000AF0A0F8942003F0D1FC01220421584655
:100FB00006F0B5FD2A463548009909F0B7FF98F8C4
:100FC0000C101AF80120521C0AF801200220A66712
:100FD00088F80B006DE798F80E0018B398F80C002D
:100FE000E18E00EB001007EB8000B0F83500401AEE
:100FF000B0F57A7F16DA962003F0A8FC00220421CF
:10100000584606F08CFD00220221584606F087FD66
:1010100032200AF067F800222021194806F07FFDEF
:1010200088F80E5098F80C10164B01EB011207EBE4
:1010300082025F5CB2F933204046032387B10A3253
:10104000142A0AD8C1EBC1020F4F02EB82023A44C4
:10105000D27F970704D5520702D50AF80150C37210
:10106000A16F721A43F698218A42B3D988F80B30DF
:101070001FE7000060000020E2020020000801409D
:10108000000C014016000020CC030020EC170020CB
:1010900070B52B4C0021A4F144050846002204EB56
:1010A000C11300BF23F81200521C402AFADB25F8B6
:1010B0001100491C1029F1DB224C0021A4F180050C
:1010C00004F1800604F5907324F8110025F811004E
:1010D00026F8110023F8110003EB4102491C10848B
:1010E000A2F84000A2F860004029EDDB164A00217A
:1010F00022F81100491C1029FADB114A0021243A78
:1011000042F82100491C0929FADB10494FF6FF7209
:10111000C86308644864A1F58071C870087148719B
:1011200080315310A1F85A20A1F85C20A1F85E305C
:10113000A1F8602021F8360F4880C88070BD0000FB
:10114000800B00200014002000150020600100200A
:101150002DE9FE4300204D4E8DF8040000908DF8DF
:10116000080002464FF400652946304606F0D7FCD9
:1011700000222946304606F0D2FC0022294630469D
:1011800006F0CDFC41F228114148FFF752F94049E1
:101190004048086040484860404888604048C8600F
:1011A00040480861404848614EF6167138480FF0D3
:1011B00005FFE8BB002136480FF072FCC0BB0021E0
:1011C00033480FF067FC98BB31480EF0B5FC78BB94
:1011D0002F480EF051FB2E480FF084F9642006F0E2
:1011E000CFFA6A4601A92A480EF0EEFB00BB9DF833
:1011F0000400EF2820D19DF8000040281CD19DF864
:101200000100172818D122480EF08AFB002120483F
:101210000FF04EFC00211E480FF08CFD142006F04C
:10122000AFFA02A91A480EF031FC9DF8080000E060
:1012300002E010F07C0F05D0012004F0F9FF01203E
:10124000BDE8FE8300244FF47A784FF4803700BF66
:1012500004F500310E480FF099F918B940460FF027
:10126000DBFF20B1032004F0E3FF0320E8E704F5EF
:101270008054BC42ECD30D490120024681F87C0029
:101280002946304606F04BFC0020D9E70014014007
:1012900088190020CD0F0108C90F0108D10F0108DE
:1012A000E5B00008A1D90008B9D900086000002005
:1012B00070B50D4D00244FF40071284606F022FC55
:1012C00000B901244FF48061284606F01BFC08B9E0
:1012D00044F002044FF40061284606F013FC08B9FC
:1012E00044F00404204670BD00180140F8B54FF4E6
:1012F0008071354806F006FC60B10025FFF7D8FF85
:10130000324C04F5807120750003086025B14FF45C
:10131000165503E00125F1E74FF4E1352C4E7068D6
:10132000A8420FD0304608F0DCF83046756008F06F
:1013300063FA08B104F052FF244901220A3124481B
:1013400008F0E6FB2348416A4FF001028D004FF0A0
:1013500005034FF000011DD5257DEDB96174E375DE
:10136000A174C16941F08051C161C16901F080512E
:101370000091C16941F00061C161C06900F0006085
:1013800000901548006880B2C11E0F2900D90320C3
:10139000E0740BE0207D38B16174E375207D012895
:1013A0000ED0A174401CF3E76274E1750022102195
:1013B0000A4806F0B4FBBDE8F840642009F092BE8C
:1013C000A2740220E4E70000001801406000002041
:1013D000EC17002000100240046C0040000C01409B
:1013E0002DE9F05F4FF400517B4806F08BFBDFF8EE
:1013F000ECA1DFF8EC910AF58076DFF8E8B1A6F50C
:10140000C0744FF00108012817D09AF80300002794
:10141000F8B106F089FB306300280DD006F084FB9C
:101420007149096B401A40F6B831884204D999F8DD
:1014300000004E4600285ED0C9E001273A46B903B5
:10144000654806F06CFB002535639AF8030010B17F
:1014500030E0306BE0E799F80000012827D1FFF772
:1014600045FF03F06CFD00220421584606F057FBAF
:1014700000220221584606F052FB962003F066FA3D
:101480005A4989F8005081F80080FFF701FE84F87E
:101490000280FA2009F026FE01F038FD01F012FE6C
:1014A000AAF83C000BF094F9A57084F8088006F0C7
:1014B0003BFBF06299F80000617C084318D106F00C
:1014C00033FBF16A401A41F28831884210D9A57481
:1014D000A575E57400221021454806F020FB84F82C
:1014E0001180E57506F020FB42F210710844F062AD
:1014F0002577E5766BE0454684F81B8003F018FD00
:10150000002210213A4806F00AFB952003F01EFA4B
:1015100001220421584606F002FB0122022158460E
:1015200006F0FDFA94F87C0020B1207F10B900F09D
:101530002DF925774FF4807400222146584608F093
:1015400017FFDFF8949000226100484608F010FF72
:1015500000222146484608F00BFF00228021484621
:1015600008F006FF00224021484608F001FF610113
:10157000204C0022204608F0FBFE4FF48048002259
:101580004146204608F0F4FE00224FF40041204678
:1015900008F0EEFE0022A114204608F0E9FE1648ED
:1015A0000024224604700121114806F0B8FA0F48C1
:1015B00035700470C82009F095FD104806F005FE4E
:1015C00000224146484606F0AAFA074804638AF812
:1015D0000370BDE8F09F000000100140E000002013
:1015E0003200002000080140E0010020300000200F
:1015F000000C01400014014031000020B016002012
:101600000148C07870470000300000202DE9F04705
:10161000DFF8CC809AB098F87C0060B100252F46A6
:101620002E46A9462C462103282302AA2D480EF057
:10163000E3FDB0B903E001201AB0BDE8F087242132
:1016400002A80CF093F90B9981420AD10798A8429D
:1016500007D90546282202A90CA8FEF78EFE01270D
:101660002646641CE4B2102CDDD300244FF4003A6B
:101670000AEB0421282302AA1A480EF0BDFD80B906
:10168000242102A80CF072F90B99814209D1079824
:10169000A84206D90546282202A90CA8FEF76DFE2D
:1016A0000127641CA4B2FF2CE2D90F4C67B1761C51
:1016B00006F00F01256788F87A1009F58070E0665A
:1016C0000CA80EF007F8B7E70020206788F87A002A
:1016D00004F0EDFD6067052004F0AAFD0520ABE7EE
:1016E00060000020881900206001002070B52048AB
:1016F000807C01283BD106F017FA1E4C616B401A22
:10170000B0F57A7F33D306F00FFA6063194E0024E8
:10171000194D913E285DF0B1401E10F0FF00285594
:1017200019D1164904EB041001EB80004421FEF7A7
:101730005EFEC4EBC400124900EB80000844232184
:10174000FEF755FE0F4904EB840001EB4000002139
:10175000016041600181305D012805D1E01CC1B20A
:101760009522094809F094FB641C032CD2DB70BD60
:1017700060000020E001002016000020E2020020AE
:10178000CC030020AE030020EC170020F0B58BB096
:1017900028216846FEF74DFE454D95F87C00E8B3DC
:1017A00005F58074434F266F3946761C26676069BD
:1017B00010F050FA0DF0EAFF10F0CCF9ADF800008F
:1017C0003946A06910F046FA0DF0E0FF10F0C2F9BA
:1017D000ADF80200606A0190606B0290606F039048
:1017E00004F1800001788DF8101041788DF8111007
:1017F00081788DF81210C0788DF813000596606E10
:101800000690206E079002F063FE0890242168463F
:101810000CF0ACF8099095F87A0000E007E00603B8
:101820004FF47A7738460FF0F7FCB8B902E00120A0
:101830000BB0F0BD314620480EF0A8FE70B9384616
:101840000FF0EAFC50B928236A4631461A480FF0D7
:101850004FFC18B964200FF0DFFC20B1032004F026
:10186000E7FC0320E4E715F87A0F0122401C00F0A2
:101870000F0028700E48BDF8001080300F4D20F882
:10188000541FBDF802104180606AA065E06D401CE5
:10189000E065D4022146284606F041F9642005F0AF
:1018A0006FFF00222146284606F039F90020BFE7E5
:1018B000600000200000C842881900200014014088
:1018C0002DE9F0475848817C01297DD090F82E10F1
:1018D00090F83120DFF854A1114390F8792011439A
:1018E000C27E114390F83F20114320D190F83E1062
:1018F000E9B990F84010D1B990F84110B9B990F811
:101900004210A1B990F8431089B990F8471071B905
:1019100090F8461059B990F84A1041B990F849101A
:1019200029B990F8441011B990F8671051B12021ED
:101930005446504606F0E6F8012872D100222021D4
:1019400020466AE090F82C1001B30025814690F8FB
:101950002B00E8B100208046354801273C4600783E
:10196000002678B106F0E0F832490968401A42F2E0
:101970001071884206D23048407AC709C0F38014FB
:10198000C0F3800635B12FB1012504E00125DDE764
:101990000120E0E70025B8F1000F02D00CB10124CE
:1019A00000E0002499F8691099F86A0044EA4508B3
:1019B00041EA400000F0FF092021504606F0A2F85D
:1019C0000746C8450CD000E02BE00EB9012F0BD024
:1019D00055EA040014D0ADB1B4B1962002F0B6FFC0
:1019E000A6B19CB1012216E0962002F0AFFF322092
:1019F00009F078FB00222021504606F090F807E01D
:101A00009520EBE79420E9E79320E7E7012F08D141
:101A1000C84506D1002220215046BDE8F04706F017
:101A20007EB8BDE8F087000060000020000C014097
:101A3000100000201C000020D80200202DE9F04FEB
:101A4000DB4889B0807C01287CD1D94AD94B8032CF
:101A50000020B2F83680195C994669B1D449EF315B
:101A6000095C49B9D44900EB001401EB8401B1F8D9
:101A70003510414500D98846401CC0B20328EAD33E
:101A8000CEA0002500680090CCA0AB4600682C4694
:101A9000CB4E92460495019020E0FCB1391911F823
:101AA000011CC9B1011911F8011C012914D0C24847
:101AB00004EB041100EB810030F80F0CA8EB0007D9
:101AC0007CB1C04804EB840100EB410010F8011C1C
:101AD000C1F38000C9090EE035555BE0BAF8360065
:101AE000ECE72021B84806F00DF8012800D00020CE
:101AF000AF4991F86A10325DA2B106F015F8B3490A
:101B000051F82410401AB7F57A7F02DDB0498842B7
:101B100036D93555012001A90DF80400085504A84F
:101B2000055534E040F2DC5297420CDD0127375571
:101B300005F0FAFFA54941F8240004A80DF8045067
:101B4000075522E031E17CB10DF804109D4904EB0A
:101B5000840201EB420111F8011CC1F3801201A9BA
:101B60000A5504A9085512E0914991F86A208DF8A8
:101B7000002091F869108DF804108DF8100006E02F
:101B800004A90DF80450012008554FF0010B8C48B2
:101B90004F46B538641CE4B2032C7FF67EAF844C0C
:101BA00084F80FB094F83F0094F83E10084394F87E
:101BB0004010084394F84110084394F84210084339
:101BC0006AD194F84300002866D194F847000028B1
:101BD00062D194F8460000285ED194F84A000028AB
:101BE0005AD194F84900002856D194F844000028AE
:101BF00052D194F8670000284ED194F82E000028A6
:101C00004AD194F83100002846D194F87900002890
:101C100042D1E07E00283FD1607BE8BB94F82C00E5
:101C200008B18DF8005094F82B0008B18DF80450DD
:101C30009DF8100020B19DF8040008B1012600E0D5
:101C400000269AF80200DFF878B1D146ABF1240BF8
:101C500086423ED0DFF87C814FF09600FEB102F064
:101C600075FE00220421404605F059FF00220221A2
:101C7000404605F054FF142009F034FA01222021D7
:101C8000514805F04CFF0A2009F02CFA942002F08C
:101C90005DFE0122042100E041E0404611E002F037
:101CA00055FE00220421404605F039FF00220221A2
:101CB000404605F034FF322009F014FA00222021BA
:101CC000414805F02CFF89F8026005F02DFFCBF8A4
:101CD00028009DF804009DF8001040EA410014F827
:101CE000691FC0B2627841EA4201C9B2BEB98842F6
:101CF00015D005F019FFDBF828105C46401AB0F546
:101D0000FA6F0CD99DF8000000289DF8040032D02D
:101D100078B3962002F01AFE05F006FFA0620024B8
:101D2000385D38B3E01CC1B20595069507958DF86E
:101D300014104FF46140ADF815004FF42F40ADF88A
:101D400017000DEB040042789DF81D0062F3C710E8
:101D500001AA2244527862F3861004AA22445278DF
:101D600062F382008DF81D0002060BD5BAF816202A
:101D700009E005E015E008B19420CBE79520C9E71C
:101D80009320C7E70022ADF81920400602D5BAF823
:101D9000180000E00020ADF81B0005AA0E4809F06D
:101DA000A4F8641CE4B2032CBAD309B0BDE8F08FE8
:101DB0006000002016000020E20200200101010165
:101DC00004020020AE030020000C0140A0150020FA
:101DD00080A8120100080140EC17002070B5194CD2
:101DE000174960690FF0D8FD4FF07E55294610F075
:101DF0005FF8616B0FF02EFF1349E0620FF02AFFCE
:101E0000A062822002F0A2FD642009F06BF901F0CB
:101E100077FAE16A206A0FF009FD60664FF08046AC
:101E200033462A46094861690BF0F0FD33462A46DD
:101E3000A169BDE87040054810300BF0E7BD000017
:101E40000000C84260010020CDCC4C424C1900205B
:101E500008B501F045F800280AD060F30701000A30
:101E600060F30F2189B26B460122622004F08CF9E5
:101E700008BD00002DE9F04705F056FEDFF810829E
:101E8000D8F86810401A40F6B83188427AD301F089
:101E90007FFAA8F58074012794F82E0004F18009D8
:101EA000002548BB99F80B00C0F3001686B194F8E2
:101EB0002F0068B914F82D0F401C207005F034FE77
:101EC000C8F84C0014F82D090A2801D384F82E70A4
:101ED00094F82D0058B156B905F026FED8F84C10EC
:101EE000401A4EF66021884201D984F82D5084F8BA
:101EF0002F6094F82E0050B1B9F93C0010F1640F36
:101F000005DA84F82E5084F82D50FFF7A1FF6149BF
:101F1000D8F83C00884294F8791007DB39B984F886
:101F2000797005F001FEC8F850000EE069B15A4919
:101F30004646884209DC05F0F7FD316D411A47F24B
:101F40003050814201D384F879505448807B50B19D
:101F500094F83000401CC0B284F83000052804D347
:101F600084F8317001E084F83050494EB9F83600F9
:101F70004EF2204180364FF4FA7A884203D384F837
:101F80002C701CE05BE04DF2F022904214D9444AE0
:101F9000D8F8140090420FDBB9F93C0010F1C80FDB
:101FA0000DDAB06810B905F0BFFDB06005F0BCFDFA
:101FB000B168401A504503D384F82C5000E0B56056
:101FC000B9F836104AF6C002914202D884F82B7054
:101FD00015E04BF6600291420ED2B9F93C0064283C
:101FE0000DDD706810B905F09FFD706005F09CFD77
:101FF0007168401A504503D384F82B5000E0756097
:1020000094F82E0094F83110DFF89880084394F883
:102010007910084315D005F087FDF168401AB0F536
:102020007A7F05D9952002F091FC05F07DFDF060E6
:1020300001220221404605F072FD84F83270BDE8AD
:10204000F08794F83200012806D100220221404690
:1020500005F065FD84F8325094F8400094F8421081
:10206000084394F84110084394F84D10084394F83D
:102070004310084302D194F84C0008B1012200E05B
:1020800000224046BDE8F047402105F048BD000071
:10209000600100200000E6420000AA42350A00204C
:1020A0000000C0420008014010B509F0F7FD902083
:1020B00002F04CFC00287CD10222002149F2801061
:1020C00001F05AFA0222002149F2821001F054FA7A
:1020D0000222002149F2841001F04EFA022200216E
:1020E00049F2861001F048FA0222002149F28810D4
:1020F00001F042FA0222002149F28A1001F03CFA72
:102100000222002149F28C1001F036FA022200214D
:1021100049F28E1001F030FA0222002149F29010AB
:1021200001F02AFA0222002149F2921001F024FA69
:102130000222002149F2941001F01EFA022200212D
:1021400049F2961001F018FA0222002149F2981083
:1021500001F012FA0222002149F29A1001F00CFA61
:102160000222002149F29C1001F006FA022200210D
:1021700049F29E1001F000FA0222002149F2A0105B
:1021800001F0FAF90222002149F2A21001F0F4F95B
:102190000222002149F2A41001F0EEF902220021EE
:1021A00049F2A61001F0E8F90422FE4949F2A8100C
:1021B00000E0FDE301F0E0F90422FB4949F2AC1034
:1021C00001F0DAF90222002149F2B01001F0D4F94D
:1021D0000222002149F2B21001F0CEF90222402180
:1021E00049F2C61001F0C8F90222122149F2C810C2
:1021F00001F0C2F90122002149F2CA1001F0BCF934
:102200000122002149F2CB1001F0B6F90122002190
:1022100049F2CC1001F0B0F90122002149F2CD10B1
:1022200001F0AAF90122002149F2CE1001F0A4F92F
:102230000122002149F2CF1001F09EF90122002174
:1022400049F2D01001F098F90122002149F2D11091
:1022500001F092F90122002149F2D21001F08CF92B
:102260000122002149F2D31001F086F9022246F240
:102270002E3149F2E21001F07FF9022240F6D83106
:1022800049F2E41001F078F9022243F6FF7149F2B5
:10229000E61001F071F9022241F6EB0149F2E81073
:1022A00001F06AF902224CF25C3149F2EA1001F0C5
:1022B00063F9022246F2377149F2EC1001F05CF941
:1022C00002224AF2787149F2EE1001F055F9022229
:1022D00047F2A20149F2F01001F04EF902224FF448
:1022E000287149F2F21001F047F902224FF68D6190
:1022F00049F2F41001F040F902224FF4317149F231
:10230000F61001F039F902224FF2562149F2F81085
:1023100001F032F9022241F2BB3149F2FA1001F028
:102320002BF9022242F6B75149F2FE1001F024F9CE
:1023300002224BF697314FF4124001F01DF90222B0
:1023400046F29F4149F2022001F016F902224AF2B8
:10235000D73149F2042001F00FF9022247F6AF51BC
:1023600049F2062001F008F9022240F62A0149F25A
:10237000082001F001F902224FF2F97149F20A2016
:1023800001F0FAF8022240F68B3149F20C2001F0FC
:10239000F3F802224FF29D2149F20E2001F0ECF8F1
:1023A000022241F2211149F2102001F0E5F8022247
:1023B00044F25E3149F2142001F0DEF802220021DD
:1023C00049F2162001F0D8F80222002149F2182023
:1023D00001F0D2F80222002149F21A2001F0CCF8D3
:1023E0000222002149F21C2001F0C6F8022200213D
:1023F00049F21E2001F0C0F80222002149F22020FB
:1024000001F0BAF80222002149F2222001F0B4F8CA
:102410000222002149F2242001F0AEF8022200211C
:1024200049F2262001F0A8F80222002149F22820D2
:1024300001F0A2F80222002149F22A2001F09CF8C2
:102440000122092149F22D2001F096F84FF6FF7480
:102450000222214649F2D41001F08EF802222146D0
:1024600049F2D61001F088F8022242F6B04149F252
:10247000342001F081F80122002149F2362001F0D8
:102480007BF80122002149F2372001F075F8012282
:10249000002149F2382001F06FF80122122149F29F
:1024A000392001F069F80122002149F23A2001F0B7
:1024B00063F80122202149F23C2001F05DF801225D
:1024C000002149F23D2001F057F80122462149F24E
:1024D000FB2001F051F80122022149F2FA2001F01B
:1024E0004BF80122822149F2FC2001F045F801223B
:1024F000072149F2FD2001F03FF80122072149F2AE
:10250000FE2001F039F80122072149F2FF2001F0F5
:1025100033F8012207214FF4134001F02DF8012276
:10252000114649F2013001F027F80122114649F223
:10253000023001F021F80122062149F2033001F0B6
:102540001BF80222214649F2043001F015F801225D
:10255000502149F2073001F00FF8022240F20261E7
:1025600049F25F2001F008F80122FC2149F26120C4
:1025700001F002F80122F72149F2622000F0FCFF8D
:102580000122762149F2632000F0F6FF0122982112
:1025900049F2652000F0F0FF0122D52149F26620C2
:1025A00004E00000378995428423AA4B00F0E4FF41
:1025B0000122562149F2672000F0DEFF0122E421CA
:1025C00049F2692000F0D8FF0122E62149F26A2091
:1025D00000F0D2FF0122622149F26B2000F0CCFF13
:1025E00002224FF4FA6149F2732000F0C5FF022283
:1025F0004FF4784149F26D2000F0BEFF0122FC212A
:1026000049F26F2000F0B8FF0122F72149F2702053
:1026100000F0B2FF0122742149F2712000F0ACFFFA
:1026200001225F2149F2C42000F0A6FF01229F2170
:1026300049F2C52000F0A0FF0122002149F2C62086
:1026400000F09AFF0122002149F2C72000F094FF18
:1026500001225F2149F2C02000F08EFF012290216B
:1026600049F2C12000F088FF0122072149F2C2206F
:1026700000F082FF0122114649F2C32000F07CFFE6
:1026800001221D2149F2083000F076FF01220521C8
:1026900049F2093000F070FF022240F6BE2149F2F3
:1026A0000A3000F069FF022240F6543149F20C3042
:1026B00000F062FF0122FA2149F20E3000F05CFFC7
:1026C0000122142149F20F3000F056FF02220A21A4
:1026D00049F2103000F050FF0222052149F2123079
:1026E00000F04AFF0122052149F2143000F044FFB6
:1026F0000222002149F2153000F03EFF02220021A3
:1027000049F2173000F038FF0222002149F2193057
:1027100000F032FF0222002149F21B3000F02CFFB2
:102720000222002149F21D3000F026FF0222002182
:1027300049F21F3000F020FF0222002149F221302F
:1027400000F01AFF0222002149F2233000F014FFAA
:102750000222002149F2253000F00EFF0222002162
:1027600049F2273000F008FF0222002149F2293007
:1027700000F002FF0222002149F22B3000F0FCFEA3
:102780000222002149F22D3000F0F6FE0222002143
:1027900049F22F3000F0F0FE0222002149F23130E0
:1027A00000F0EAFE0222002149F2333000F0E4FE9C
:1027B0000222D02149F2433000F0DEFE0122032143
:1027C00049F2353000F0D8FE0122EC2149F23630D2
:1027D00000F0D2FE01223C2149F2373000F0CCFE5D
:1027E0000122462149F2383000F0C6FE01220321C1
:1027F00049F2393000F0C0FE01220C2149F23A3092
:1028000000F0BAFE40F648540222214649F23B301D
:1028100000F0B2FE01221E2149F23D3000F0ACFE74
:102820000122142149F23E3000F0A6FE0222214688
:1028300049F23F3000F0A0FE01221E2149F2413052
:1028400000F09AFE0122142149F2423000F094FE79
:102850000222002149F23F2000F08EFE02224FF4B6
:10286000875149F2412000F087FE0122052149F2FB
:10287000432000F081FE0122502149F2442000F063
:102880007BFE0122052149F2452000F075FE012260
:10289000002149F2522000F06FFE0122002149F28E
:1028A000532000F069FE0122002149F2542000F07B
:1028B00063FE0122052149F2552000F05DFE02224F
:1028C0000A2149F2482000F057FE0122052149F271
:1028D0004A2000F051FE0222C82149F24B2000F0AC
:1028E0004BFE01220A2149F24D2000F045FE022252
:1028F00041F2707149F24E2000F03EFE0222C821E2
:1029000049F2502000F038FE0222002149F2E01086
:1029100000F032FE0122362149F2752000F02CFE33
:1029200040F22D140222214649F2762000F024FEC6
:102930000122042149F27B2000F01EFE01224821E1
:1029400049F2782000F018FE0222214649F279204F
:1029500000F012FE0122052149F27C2000F00CFE5D
:102960000122032149F27D2000F006FE01220A2106
:1029700049F27E2000F000FE01220F2149F27F2063
:1029800000F0FAFD0122072149F2802000F0F4FD59
:1029900001227F2149F2812000F0EEFD02224FF654
:1029A000184149F2882000F0E7FD0222C82100E02A
:1029B0001CE249F2B02000F0DFFD0122072149F2BC
:1029C000822000F0D9FD01227F2149F2832000F00E
:1029D000D3FD0122082149F2842000F0CDFD01221F
:1029E0007F2149F2852000F0C7FD0122062149F22E
:1029F000862000F0C1FD01221F2149F2872000F04E
:102A0000BBFD0122052149F2942000F0B5FD022210
:102A10004FF6300149F28A2000F0AEFD012202217A
:102A200049F28C2000F0A8FD4FF47A74022221466E
:102A300049F28D2000F0A0FD01220A2149F28F20E9
:102A400000F09AFD01220A2149F2902000F094FD45
:102A500001223C2149F2912000F08EFD0222214604
:102A600049F2922000F088FD0122052149F29520CB
:102A700000F082FD01220A2149F2962000F07CFD3F
:102A800001220F2149F2972000F076FD0222214613
:102A900049F2982000F070FD0122412149F29A206C
:102AA00000F06AFD0122022149F29B2000F064FD42
:102AB0000122372149F29C2000F05EFD01224621CF
:102AC00049F29D2000F058FD0122022149F29E208A
:102AD00000F052FD01223C2149F29F2000F04CFD04
:102AE0000122732149F2A02000F046FD01220221BB
:102AF00049F2A12000F040FD0122552149F2A22017
:102B000000F03AFD01224B2149F2A32000F034FDF0
:102B10000122022149F2A42000F02EFD01224121D0
:102B200049F2A52000F028FD0122002149F2A6204B
:102B300000F022FD0122022149F2A72000F01CFD35
:102B40000122052149F2A82000F016FD0122EC2106
:102B500049F2A92000F010FD0122022149F2AA2029
:102B600000F00AFD0122F12149F2AB2000F004FD42
:102B70000122EC2149F2AC2000F0FEFC01220221EE
:102B800049F2AD2000F0F8FC0122F12149F2AE201B
:102B900000F0F2FC0122052149F2AF2000F0ECFC2C
:102BA00002223C2149F2B22000F0E6FC012205217C
:102BB00049F2B42000F0E0FC0122322149F2B520B4
:102BC00000F0DAFC0222012149F2B62000F0D4FC28
:102BD0000222FA2149F2BA2000F0CEFC02220021A2
:102BE00049F2BC2000F0C8FC0222114649F2BE2086
:102BF00000F0C2FC022240F6CA0149F2C82000F0EF
:102C0000BBFC0122022149F2CA2000F0B5FC0222DD
:102C100040F6F61149F2CB2000F0AEFC012205216E
:102C200049F2CD2000F0A8FC022240F6D86149F21A
:102C3000CE2000F0A1FC0122052149F2D02000F0B5
:102C40009BFC64100222214649F2D12000F094FC42
:102C50000122052149F2D32000F08EFC022244F229
:102C6000506149F2D42000F087FC0122052149F28D
:102C7000D62000F081FC02224BF2E01149F2D7206D
:102C800000F07AFC0122052149F2D92000F074FC01
:102C90000122502149F2DA2000F06EFC01220521C8
:102CA00049F2DB2000F068FC01227D2149F2DC20A2
:102CB00000F062FC0122052149F2DD2000F05CFCFD
:102CC000022240F6AC5149F2DE2000F055FC02220F
:102CD0000A2149F2E02000F04FFC0222214649F28D
:102CE000E22000F049FC0122052149F2E42000F035
:102CF00043FC0222642149F2E52000F03DFC02225F
:102D000040F6746149F2E72000F036FC02223221DD
:102D100049F2E92000F030FC0222C82149F2EB2000
:102D200000F02AFC0122052149F2ED2000F024FCEC
:102D30000222142149F2EE2000F01EFC012205219E
:102D400049F2F02000F018FC02224FF6EC7149F233
:102D5000F12000F011FC0122052149F2F32000F0DE
:102D60000BFC0222642149F2F42000F005FC012250
:102D7000052149F2F62000F0FFFB0122052149F26E
:102D8000F72000F0F9FB0122052149F2F82000F0BC
:102D9000F3FB0122052149F2F92000F0EDFB0122AD
:102DA000114649F2562000F0E7FB022241F21101E0
:102DB00049F2572000F0E0FB022242F2010149F201
:102DC000592000F0D9FB022244F64F4149F25B2022
:102DD00000F0D2FB022244F6476149F25D2000F088
:102DE000CBFBBDE81040922001F0B0BD10BD00004B
:102DF00008B500226B461146122003F0C5F90548BC
:102E00000178407801EB002002493239A1F86A00CC
:102E100008BD00001201002010B500221146A020BC
:102E200008F076F9002818D10C4A1079D2F805106C
:102E3000947840EA0121D078030A0006194340EA59
:102E4000044041EA14415478127840EA04201043C7
:102E5000034A41EA1461C2E91C0110BD1C0B0020A9
:102E6000E001002010B5962001F070FD002808D187
:102E700004F05AFE03498866A1F58071002081F8AC
:102E8000790010BD6001002008B500226B46114694
:102E9000662003F079F99DF8000008B1002008BD14
:102EA00003480178407801EB002080B208BD0000A3
:102EB0001201002008B500226B461146642003F081
:102EC00063F99DF8000008B1002008BD03480178AF
:102ED000407801EB002080B208BD00001201002004
:102EE00008B500226B461146622003F04DF99DF8AB
:102EF000000008B1002008BD03480178407801EBCC
:102F0000002080B208BD0000120100202DE9F84326
:102F100014274F4E00254F4CA946A6F14408F8B29D
:102F2000694600F009FB9DF8001021BB41F66411D1
:102F300088420AD9002001464B4606EBC51200BF65
:102F400022F81130491C4029FADBA17841B1002157
:102F500006EBC51222F81100491C4029FADB04E0F7
:102F6000E27806EBC51121F8120006EBC510FDF75B
:102F70006DFB28F815006D1CBF1C102DCFDB6946BA
:102F8000342000F0D9FA334D9DF80010803581B916
:102F9000A178314A31B1002122F81100491C4029A1
:102FA000FADB02E0E17822F811002B48FDF74EFB36
:102FB000E8866946362000F0BFFA9DF8001099B9FE
:102FC000254AA178803A39B15FF0000122F811005A
:102FD000491C4029FADB02E0E17822F811001E4882
:102FE0008038FDF733FB28876946382000F0A4FAC3
:102FF0009DF8001091B9184AA178803231B10021B2
:1030000022F81100491C4029FADB02E0E17822F89D
:10301000110011488030FDF719FB6887E0780F4EEA
:10302000401C00F03F00E0704C4600254746C6F8C3
:103030000C9000BF37F815000EF0C4FD21460EF0CD
:10304000F5FB6D1C0446102DF4DBF060BDE8F88341
:10305000800B002060000020001400206001002090
:1030600008B500226B461146122003F08DF89DF83A
:10307000000008B1002008BD06480649054A32395B
:103080000088A1F85800A1F84600C10BB23A82F8B6
:103090003D1008BD1201002008B500226B46114604
:1030A000104603F071F89DF8000008B1002008BD3B
:1030B00003480178407801EB002080B208BD000091
:1030C0001201002008B500226B4611463A2003F099
:1030D0005BF89DF8000008B1002008BD1348144BB0
:1030E000A0F1B201B0F90020887838B15FF000009B
:1030F00023F81020401C1028FADB02E0087923F89E
:10310000102008790A4A401C00F00F0008710020C6
:103110004FEA000132F91130491C18441029F9DB3B
:10312000C11700EB1170001100B208BD12010020A0
:103130000015002008B500226B4611467F2003F0E1
:1031400023F89DF80000002823D11249114A08787D
:103150004978323A00EB012191740E4900F00102E6
:10316000B23981F86A20C0F3400281F86B20C0F3C5
:10317000800201F8692FC0F3C002CA70C0F30012C8
:103180000A71C0F340124A71C0F380128A71C009FB
:10319000C87108BD1201002010B500221146572049
:1031A00007F0B6FF08B1002010BD0148008810BD2F
:1031B0001C0B0020F8B500226B4611460B2002F0D4
:1031C000E3FF4E4C9DF80000A4F1320620B92078B0
:1031D000617800EB0120B073484D2078B23D00F0DB
:1031E000010185F85110C0F3400185F85210C0F379
:1031F000800185F85310C0F3C00185F85410C0F366
:10320000001185F85510C0F3801185F85610C009DB
:1032100085F8570000226B4611460D2002F0B4FFDE
:103220009DF8000020B92078617800EB0120F07350
:103230002078002200F0010185F85810C0F3400109
:1032400085F85910C0F3800185F85A10C0F3C00109
:1032500085F85B10C0F3001185F85C10C00985F893
:103260005D006B4611460F2002F08EFF9DF80000B6
:1032700020B92078617800EB01203074207800229A
:1032800000F0010185F85E10C0F3400185F85F1081
:10329000C0F3800185F86010C0F3C00185F86110AB
:1032A000C0F3001185F86210C0F3401185F8631077
:1032B000C0F3801185F86410C00985F865006B467D
:1032C0001146112002F060FF9DF8000020B920781F
:1032D000617800EB01207074207800F0010085F81F
:1032E0006600B07BF17B0844317C0844717C401857
:1032F00000D0012085F86700F8BD00001201002011
:1033000070B520211F48FDF794F800221146762061
:1033100007F0FEFE002833D11A480178D0F80120CA
:1033200041EA0224184947F6FF72D4424C6527D07F
:10333000621C25D00279D0F8053042EA03228A6562
:10334000037AD0F8090043EA0020C86510460EF061
:1033500072F86FF01F020EF05CFE05460E46204626
:103360000EF052F82A4633460DF09EFF4FF0C04251
:10337000064B0EF073F80DF065FF034980390862C3
:1033800070BD00001C0B0020E001002066E6234019
:10339000F8B500226B461146022002F0F5FE544CAF
:1033A0009DF80000A4F1320620B92078617800EB86
:1033B0000120307200226B461146042002F0E4FE28
:1033C0009DF8000020B92078617800EB0120707230
:1033D00000226B461146062002F0D6FE9DF8000042
:1033E00020B92078617800EB0120B07200226B4692
:1033F0001146032002F0C8FE9DF8000020B9207895
:10340000617800EB0120F072394D2078B23DC0F3B5
:10341000800185F83E10C0F3C00185F83F10C0F36D
:10342000001185F84010C0F3401185F84210C0F338
:10343000801185F84110C00985F8430000226B46D1
:103440001146052002F0A0FE9DF8000020B920786A
:10345000617800EB012030732078002200F0010138
:1034600085F84A10C0F3400185F84910C0F3800187
:1034700085F84810C0F3001185F84710C0F34011DB
:1034800085F84610C0F3801185F84510C00985F80D
:1034900044006B461146072002F076FE9DF80000BE
:1034A00020B92078617800EB012070732078C0F398
:1034B000400185F85010C0F3800185F84F10C0F32B
:1034C000001185F84E10C0F3401185F84D10C0F37F
:1034D000801185F84C10C00985F84B00F07A317BDB
:1034E0000844717B401800D0012085F86800F8BDC1
:1034F0001201002008B500226B46114602F044FE7E
:103500009DF8000008B1084808BD084801784078D7
:1035100001EB00200EF056FB05490EF09BFBBDE8C9
:10352000084004490EF0CEBC0000C8411201002042
:10353000CDCCCC3D3393884370B50D460446022272
:103540000C4906F07DFC05B1287008B1002070BD63
:103550000848143C1E2C0178407801EB002001D86B
:1035600080B270BD00EB80004FF6FF7101EA4000B1
:1035700070BD0000120100200EB5002300938DF8ED
:103580000000000A8DF80100029301938DF80210EB
:10359000012A07D0C1F30720022A1AD0042A2CD00E
:1035A00001200EBD032269463E2006F0C5FE00281C
:1035B000F7D1022007F096FD0321684601F0B8F923
:1035C0008DF80800052031E0022007F08BFD002077
:1035D0000EBD8DF80300042269463E2006F0ACFEC5
:1035E0000028F5D1022007F07DFD0421684601F096
:1035F0009FF98DF80800062018E08DF80300080CEC
:103600008DF80400080E8DF80500062269463E205C
:1036100006F092FE0028DBD1022007F063FD0621B0
:10362000684601F085F98DF8080008208DF809003A
:10363000022202A9602006F07FFE0028C4D00EBD41
:103640002DE9F34FADF54F7DFF4ACF98DFF8FCA38E
:103650000068904201D1FE4F04E0504501D1FD4F7A
:1036600000E00027904201D1FB4D03E050457DD1A1
:10367000F94DAD1C002F79D0002DFCD0288808B959
:103680007E29F4D1288839542888401C288028882D
:103690000024B0F5007F36D20D29E8D12888102803
:1036A00064D938787E282ED10221781C0AF049FF8F
:1036B000C0B2CA900221F81C0AF043FF00F0FF08D4
:1036C0000221781D0AF03DFFC0B2C8900221F81D0A
:1036D0000AF037FF00F0FF09042107F109000AF0A2
:1036E00030FF83B2C3F30B06298806F11200814232
:1036F000D9D130460AF018FF984205D0D648801E2E
:103700000169491C0161F2E0B81904210D300AF089
:1037100018FF1FFA80FB06F10C01781C0BF061F812
:10372000584512D0B9F1440F03D0B9F1920F06D029
:10373000DDE0C948801E4169491C4161D7E0C648A7
:10374000801E8169491C8161D1E0C448007801284C
:103750004AD1DFF80CB39BF80000042844D1B8F13B
:10376000FF0F41D1C89846283ED100E0C0E0B9F132
:10377000410F39D1022E37D3022107F10D000AF093
:10378000E0FEB84F38703878B74E3070B748C1692E
:1037900041F08051C161C16901F080510091C1695E
:1037A00041F00061C161C06900F00060009004F068
:1037B00001FEAF493078086083A938780AF0CAF86A
:1037C000022083A90094CDE901103A78C89BCA99D8
:1037D000CF980BF0DFFE05218BF80010012210219D
:1037E000A44804F09CF982E0A3484FF0010B017853
:1037F000012943D1CF98026852453FD1A8F1030077
:1038000002283BD8C0B2032871D2934A0A21121D64
:10381000B9F1000F11546AD1642E0AD3974900EB15
:10382000001001EB8002314607F10D000BF097FA12
:103830001FE0A6F128013C290CD29049C0EBC00042
:1038400000EB8000EA314218314607F10D000BF021
:10385000CBF80EE0A6F11201162948D2874900EBF9
:103860008000CC3101EB4002314607F10D000BF036
:10387000A3FB7949891E81F801B038E07A480078C5
:10388000804509D0B8F1FF0F26D0B8F1020F06D05D
:10389000B8F1120F2BD102E0B8F1FF0F1CD0824615
:1038A00048464FF00008764B764A4FF42F49CDF842
:1038B000348363287ED027DC4FF04E0751287AD01E
:1038C0001ADC4FF010074FF0080642283DD044287C
:1038D00072D0472829D15CE349B9B9F1A00F06D1CC
:1038E000664A31464E3A07F10D000BF038FA2C804B
:1038F0000DF5517DBDE8F08F634E60287ED06128C4
:103900007DD0622811D1F3E36049942878D006DC99
:10391000642876D0922875D0932806D110E3952894
:10392000F7D096286FD09A286ED00420CDF83403B3
:10393000CD981FFA88F203A98DE807005246C89B6C
:10394000CA99CF980BF026FED1E7442183A8FCF753
:1039500070FD8DF80CA24E498DF80D72002083AADF
:1039600031F8103002EB4007401C7B801028F7DB59
:103970008DF82E62474E484F394630680EF06AF98E
:10398000DFF8188141460DF051FF0EF0C7F8ADF891
:103990002F02394670680EF05DF941460DF046FF82
:1039A0000EF0BCF8ADF831023946B0680EF052F9AD
:1039B000414602E0FEE31FE3B7E00DF037FF0EF0F3
:1039C000ADF8ADF833023946F0680EF043F94146E0
:1039D0000DF02CFF0EF0A2F8ADF835023048394654
:1039E00000680EF037F941460DF020FF0EF096F812
:1039F000ADF837022B483946006806E04DE38CE30A
:103A0000B1E234E31AE21BE3F4E30EF023F941469A
:103A10000DF00CFF0EF082F8ADF839023946B069AE
:103A20000EF018F941460DF001FF0EF077F8ADF8F1
:103A30003B021D48394600680EF00CF941460DF076
:103A4000F5FE0EF06BF831E0004C004000500040F5
:103A500035060020350800201200002071000020EB
:103A60007700002076000020730000200010024044
:103A7000046C0040000C014072000020E2020020B3
:103A8000F6000020F8000020780000207B000020D5
:103A90003C0B00205C0B00200000204100B02A45B8
:103AA000A0010020A40100209C010020ADF83D02EF
:103AB000FE480088ADF83F02FD480088ADF841029D
:103AC000FC49FD4800680DF067FFFC4909680E4697
:103AD0000EF0C0F80EF03EF8074630460EF03AF809
:103AE00001464FF6FF7004228DF84522ADF84302DF
:103AF000ADF84602F24883AA0088ADF84802380CB7
:103B00008DF84A02380A8DF84B028DF84C72080C79
:103B10008DF84D02080A8DF84E028DF84F124FF4C1
:103B2000007103A80BF074F886E1242190A8FCF73B
:103B300080FC00218DF840A28DF852628DF8417210
:103B4000DFF880834FF6FF700E468E468394849490
:103B500085940B46CDF8184238F81320824200D2E3
:103B600010468A4200D911461644B2F5616F06D359
:103B70000DF5107C9C4402278CF802700DE0B2F524
:103B80002F6F07D80DF5107C9C444FF0010E8CF878
:103B900002B002E090AF1F44BC7040F2B737A2F60B
:103BA0008C22BA4202D383AF07F803B05B1C102B00
:103BB000D2DB0A1AB2F57A7F22DDC6F30F128242F7
:103BC00001D9131A00E000239EB2914201D98A1A4A
:103BD00000E0002293B200225F469E4203D938F8EB
:103BE00012C0844505D0B34207D338F812C08C45C3
:103BF00003D10DF5037C0CF80270521C102AECDB8B
:103C0000B148B54FDFF8D482016888914168899145
:103C100081688A91C1688B91AC4988AE5B4609681E
:103C20008C91AB4909688D9180698E90A94890A9C3
:103C300000688F900020022256F820C0BC4504DDA9
:103C400001EB000C8CF8132008E0C44501EB000CDC
:103C500002DA8CF8133001E08CF81340401C08287D
:103C6000EADB9F490E790EB1022000E000208DF8BA
:103C70005B028F480088B0F5614F02D38DF85C225B
:103C800006E0484502D88DF85C3201E08DF85C42D0
:103C90004A790AB1022000E000208DF85D028B789D
:103CA0009DF85E0263F300006EF3410066F382004C
:103CB00062F30410CA7962F345108A79C97862F315
:103CC000861061F3C7108DF85E02864801789DF872
:103CD0005F0261F382008449097861F341008DF845
:103CE0005F022021814803F00DFF01289DF85F024B
:103CF0000FD020F0010000BF40F008008DF85F02F7
:103D00007B48007800289DF8600205D040F0010053
:103D100004E040F00100EFE720F001007549764A29
:103D20008DF8600209781278114302D040F0100635
:103D300001E020F0100660488DF860625D4900687F
:103D40000DF02AFE5D49096888460DF083FF0DF0ED
:103D500001FF074640460DF0FDFE874202D346F0C4
:103D6000080001E026F0080050498DF86002B1F922
:103D70000010322902DD40F0800001E020F08000D8
:103D80008DF8600211F1320F02DA40F0400001E0DC
:103D900020F0400020F020008DF860029DF80C1209
:103DA0009DF8610290AA61F300009DF80D1261F385
:103DB00041009DF80E1261F382009DF80F1261F32D
:103DC000C3009DF8101261F304109DF8111261F305
:103DD00045109DF8121261F386109DF8131261F3DD
:103DE000C7108DF861029DF814129DF8620261F30C
:103DF00000009DF8151261F341009DF8161261F361
:103E000082009DF8171261F3C3009DF8181261F348
:103E100004109DF8191261F345109DF81A1261F310
:103E200086109DF81B1261F3C7108DF862024FF4E3
:103E3000007103A80AF0E3FC804679E583948DF8CD
:103E40000CA24FF46140ADF80D0284948594ADF856
:103E50000F921888ADF811021088ADF813022021D6
:103E6000224803F04FFE01289DF815025FD020F094
:103E700004002249097861F3C3002149097861F3FC
:103E80000410204920F020008DF81502097861B156
:103E900020F040001C498DF815020978B1B320F0DC
:103EA000800000BF8DF8150231E043E01C010020C6
:103EB000160100200000C842740100209401002077
:103EC000840100203C0B00205C0B0020A00100209E
:103ED000A40100209C010020000070420000A040CE
:103EE000350A0020C9000020CA000020000C014053
:103EF00031000020C7000020910000207E0000203B
:103F0000640200208B0000208C00002015E042F2AB
:103F10001070009400BF0099491C00918142F9DBA8
:103F200083AA4FF4007103A80BF008F884E740F06F
:103F300004009EE740F04000ACE740F08000B1E7AD
:103F4000142183A8FCF775FA8DF80CA21022FE4903
:103F50000DF20D20FCF7CCF983AA4FF4007103A8F1
:103F60000BF004F968E7F94A314607F10D000BF050
:103F7000B0F803F0D9FDF6495246C86081F800B0A8
:103F8000029400940194C89BCA99CF980BF002FB4D
:103F9000CEE4182183A8FCF74CFA40F64260ADF855
:103FA0000C024FF42F60ADF80E0240F68C20ADF8F5
:103FB00010024FF41670ADF812024FF46140ADF8E4
:103FC0001802ADF81C9240F28A20ADF81E026FF084
:103FD000C70042F6E061ADF82002ADF81442ADF83A
:103FE0001612ADF82212ADF81A9283AA4FF400719E
:103FF00003A80BF086FA1FE7202183A8FCF719FA23
:1040000020220A2183A8FCF7EAF9D2A02022006826
:1040100083904FF40050ADF8160286A88DF8107208
:1040200014210646FCF7DBF90922CCA13046FCF747
:10403000A4F983AA4FF4007103A80AF053FFFBE62A
:1040400000948DF800A002208DF801000320019457
:104050008DF802408DF804008DF803008DF80540BE
:104060006A464FF4007103A80BF09EF8E4E681F86D
:1040700000B0952000F06AFCBB4E012204213046BE
:1040800003F04DFD01220221304603F048FD0022DD
:104090002021B64803F043FD4AE44FF48A7183A817
:1040A000FCF7C7F920220A2183A8FCF798F9A9A0F8
:1040B0002022006883908DF8107214210DF21620D2
:1040C000FCF78DF9A5A00168CDF816124068CDF86F
:1040D0001A0248208DF81E024FF40050ADF82A0253
:1040E000307800B901208DF82C02002683AF09E05A
:1040F00081E000BF07EB0610102293492130FCF746
:10410000F7F8761C9DF82C02B042F3DC83AA4FF43A
:10411000007103A80BF06AF98EE6342183A8FCF73E
:1041200088F993489C4A40F6AB210088ADF80C0210
:1041300090480088ADF80E028F4800788DF8100284
:104140008E480088ADF81102ADF813028C48007853
:104150008DF815028DF816028A480088ADF817020E
:104160008948007840F48070ADF8190287480088CB
:10417000ADF81B028648007840F48070ADF81D024F
:1041800084481288008802EB820200EB800001EB79
:10419000400001EB4201814AADF81F02ADF8210257
:1041A000ADF82512127842F480737D4AADF82332BF
:1041B000127800E0AFE042F48072ADF82722ADF84B
:1041C0003122ADF83912ADF82902ADF82F12ADF851
:1041D0003502ADF82B02ADF83302ADF83B22ADF855
:1041E0002D32ADF8373283AA4FF4007103A80BF0DB
:1041F00071F821E605E16B480094007828B19DF83C
:10420000020040F020008DF802006748007828B1D5
:104210009DF8020040F010008DF80200634800781D
:1042200028B19DF8030040F040008DF8030060487D
:10423000007828B19DF8030040F020008DF80300BD
:104240005C48007828B19DF8020040F008008DF825
:1042500002005948007828B19DF8020040F004009F
:104260008DF802005548007828B19DF8020040F012
:1042700002008DF802005248007828B19DF8000035
:1042800040F020008DF800004E48007828B19DF8DD
:10429000000040F010008DF800004B48007828B175
:1042A0009DF8000040F008008DF8000047480078B5
:1042B00028B19DF8000040F004008DF8000044484B
:1042C000007828B19DF8010040F040008DF8010011
:1042D0004048007828B19DF8010040F020008DF89A
:1042E00001003D48007828B19DF8030040F0080027
:1042F0008DF803003078022806D229B19DF801001C
:1043000040F010008DF801006A464FF4007103A8D8
:104310000AF06EFF90E500944FF46140ADF80000A4
:1043200001940294ADF802901888ADF8040010884A
:10433000ADF80600294801789DF8080061F3C71020
:10434000274909784EE0000028210108D802002002
:104350001000002050594C4F4E00000050594C4F57
:104360004E5445434800000000080140000C014045
:104370001601002064010020080100200C0100202B
:104380000A010020220100209500002024010020C5
:10439000970000200E01002010010020990000204D
:1043A0009B0000207F000020800000208100002072
:1043B000820000208300002084000020A400002050
:1043C0008500002086000020890000208A0000204F
:1043D0008700002088000020C7000020CA000020BD
:1043E000C900002061F3861011496A46097861F31B
:1043F00004108DF808004FF4007103A80BF050F87A
:104400001AE50294009401945246C89BCA99CF9829
:104410000BF0C0F8022E07D3022107F10D000AF0BD
:1044200090F8C0B206F0DCFF4FF0FF3004E500006A
:104430007E000020FEE7000070B5164C6078002872
:104440001AD003F071FB0546206A854214D36078C8
:1044500040F2EE26012804D002280ED003280BD10A
:10446000FA26A1790C4859B10022012103F057FB2B
:104470000020A071A819206270BD40F2D666F0E756
:104480000122114603F04BFB0120A071FA35256291
:1044900070BD000030000020000C014070B50346E4
:1044A000002040F207140EE01D78802206064FEA35
:1044B000400000D56040C0B2154201D06040C0B29B
:1044C0005208F3D15B1C491EC9B2EDD270BD000089
:1044D000084910B5091D07480A68091D00680968E0
:1044E000054C064B50406140484058404FEAF06050
:1044F00010BD0000E8F7FF1F014C9A00474E4F4CDB
:1045000070B50E4D0E4629460DF046FA0446294672
:1045100030460DF041FA0146094D20460DF09AFB58
:1045200029460DF097FB0749886407490DF092FB77
:10453000BDE8704005490DF02FBA00000000C842E8
:1045400000009D4360010020CDCC4C4200007A4425
:104550007CB5FEF785FD2A4CC0F300360021EEB392
:104560002078052804D2401CC0B22070052844D30E
:104570006078A0BB002201916B4611460B2001F030
:1045800003FE1F4D9DF80000323510B928788DF8D4
:10459000040000226B4611460D2001F0F5FD9DF848
:1045A000000010B928788DF8050000226B461146EE
:1045B0000F2001F0E9FD9DF8000010B928788DF872
:1045C000060000226B461146112001F0DDFD9DF82A
:1045D000000010B928788DF8070001E00CE00CE02D
:1045E0000422084901A8FBF757FE30B1054801999C
:1045F0000160FDF7CBF800E0217066707CBD000023
:10460000E0000020E001002010B501F050FE11494B
:10461000114BA1F580744A699A4208DB4A6F8242C5
:1046200002D04867FDF7B2F80020A0770DE0496F8F
:10463000401A1E2802D30120A07701E0A07F20B1FC
:1046400094F87F0008B9FDF7A1F8A07F84F87F00F7
:1046500010BD0000600100200000C2422DE9F05FA3
:1046600003F062FA06468021914803F04BFA50B1FC
:104670000020904C0025DFF840822179DFF83CA231
:10468000012711B145E00120F3E7E8B3A06AE0B3E8
:10469000301A41F2883188424DD3207A00284AD11D
:1046A0004FF4807B277204225946404605F060FE95
:1046B0000422D101D146504605F05AFE0422594643
:1046C000484605F055FE04228021484605F050FE7C
:1046D00004224021484605F04BFEDFF8E491042215
:1046E000D102484605F044FE04221103484605F075
:1046F0003FFE04225103484605F03AFE042291028F
:10470000484605F035FE01E017E012E02771E66249
:10471000E770E770E06A2179301ADFF8A8B1DFF8B6
:10472000A89108297ED2DFE801F0C00A1B37414C6E
:10473000545FA6622572BDE8F09FA562FAE70122E8
:1047400004214546404603F0EAF9012202212846A9
:1047500003F0E5F9952000F0F9F80220E66241E067
:104760003228E8D3FCF794FC5848ABF800505A497B
:1047700005805748058057480580584801605848CB
:1047800089F80070057057480570574805705748FC
:1047900005700320E66225E03228CCD30122D10344
:1047A000504603F0BCF90420E6621BE0C828C2D3DF
:1047B00000224FF40041504603F0B1F90520E662B3
:1047C00010E06428B7D3122000F0C0F80620E6629B
:1047D00008E06428AFD3FDF767FC9A2000F0B6F834
:1047E0000720E6622071A6E7B0F5FA7FA3D3DFF8D1
:1047F00000A189F8007042F21072BAF800104E461B
:10480000914249D93B48007808B1FDF7E7FAFEF735
:104810007DFBFEF757FCDFF8E090A9F8000007F0F9
:10482000D7FF00E041E03548BAF80010ABF80010BF
:1048300001882648018032480188254801802548A2
:10484000B9F8001001802F48016824480160FDF785
:10485000FFFA2D4805702D4805702D4805702D482C
:1048600005702D4805702D4805702D4805702D48A0
:1048700005702D480570FCF739FD2C4800220421F5
:10488000077035704646404603F049F90022022180
:10489000304603F044F905E040F6B8318842A2D929
:1048A00089F800502571E57045E7257143E7000060
:1048B00000180140300000200008014000100140B5
:1048C00000140140780200206200002080020020D5
:1048D000820200207A0200200000C8427C020020F0
:1048E00063000020640000206600002067000020B4
:1048F00016010020DC0000201C010020180100200F
:104900001A010020740100208E0000208D0000207C
:104910008F00002091000020900000208C000020DB
:104920008B000020D90000209200002068000020A9
:1049300010B500231A4604E0845C521C2344DBB209
:10494000D2B28A42F8D3D843C0B210BD38B50021E4
:1049500000918DF80000000A8DF8010002226946DE
:104960003E2005F0E9FC0446022006F0BBFB204691
:1049700038BD10B5002303E0C45CCC545B1CDBB233
:104980009342F9D310BD70B504460D46002040F2A5
:104990005631A06021601346E0600822194628467F
:1049A00009F0EEFD206170BD70B504460D46002093
:1049B0004FF45771A06021601346E0600822194649
:1049C000284609F0D1FE206170BD70B504460D4641
:1049D000002040F25931A06021601346E0600822B7
:1049E0001946284609F0E5FD206170BD70B5044602
:1049F0000D46002040F25131A06021601346E06076
:104A000008221946284609F03CFE206170BD0000CE
:104A10001CB50B46094904460822D1E90001CDE93D
:104A20000001002040F25E31A0602160E060694634
:104A3000184609F044FE20611CBD00002021010839
:104A400070B504460D46002040F25531A06021604B
:104A50001346E06008221946284609F0AEFE2061A0
:104A600070BD0A21B0FBF1F201FB1202B0FBF1F0C4
:104A700042EA0010C0B27047014802F0E7BC0000F3
:104A8000B02A002030B590F840500124AC40C56BEE
:104A90006C60046863604368102B036803D09960FE
:104AA0000068C26030BD9A600068C16030BD1CB54E
:104AB0000C468DF80000000A8DF8010002226946BC
:104AC0003E2005F039FC002810D1022006F00AFB38
:104AD00000208DF80400012201A9402005F0B0F962
:104AE000002803D19DF80400207000201CBD0000A8
:104AF0001FB510208DF80C000121642203A88DE859
:104B000007000B460722D021014803F01FFA1FBD02
:104B10005C1600202DE9F0410446002086B00546D1
:104B2000039003AE64274FF007080490CDE90068B6
:104B300001230022D0211B48029703F0D9F858B175
:104B400005F074F8052006F0CDFA6D1CEDB2032DCA
:104B5000ECD306B0BDE8F0819DF80C0000F07F00BA
:104B6000FBF77EFD20709DF80D00FBF779FD60706E
:104B70009DF80E00FBF774FDA0709DF80F00FBF789
:104B80006FFDE0709DF81000FBF76AFD20719DF845
:104B90001100FBF765FD60719DF81200FBF760FDE9
:104BA000A071D6E75C16002000B585B00346002052
:104BB000039004901878FFF754FF00F07F008DF801
:104BC0000C005878FFF74DFF8DF80D009878FFF72F
:104BD00048FF8DF80E00D878FFF743FF8DF80F00DF
:104BE0001879FFF73EFF8DF810005879FFF739FF6D
:104BF0008DF811009879FFF734FF8DF812006422C8
:104C0000072103A88DE8070001230022D0210248D4
:104C100003F09CF905B000BD5C16002010B5B0F59E
:104C2000000F01DA0B2110E00B49884200DB084637
:104C30000DF03EF909490CF0AFFE0CF08BFFC0B24D
:104C40000B2800D90B20801DC1B2BDE810404FF4E5
:104C5000B85001F077BA00000000C842295C8541D5
:104C60002DE9F041002001F079FB8046002001F0A1
:104C70008FFB444E444C4FF4000770B10CF0A2FF80
:104C8000054640460CF09EFF21460CF0E3FF294606
:104C90000CF082FE0146B84201DA0B2110E02046FA
:104CA000814200DB21460DF00DF931460CF074FE17
:104CB0000CF050FFC0B20B2800D90B20801DC1B2F0
:104CC0004FF4884001F03EFA012001F047FB804696
:104CD000012001F05DFB70B10CF074FF0546404609
:104CE0000CF070FF21460CF0B5FF29460CF054FE85
:104CF0000146B84201DA0B2110E02046814200DB78
:104D000021460DF0DFF831460CF046FE0CF022FF94
:104D1000C0B20B2800D90B20801DC1B243F207009E
:104D200001F010FA022001F019FB8046022001F088
:104D30002FFB70B10CF046FF054640460CF042FFD9
:104D400021460CF087FF29460CF026FE0146B842AA
:104D500001DA0B2110E02046814200DB21460DF0F4
:104D6000B1F831460CF018FE0CF0F4FEC0B20B287E
:104D700000D90B20801DC1B2BDE8F04143F2120002
:104D800001F0E0B9295C85410000C842104810B527
:104D9000007810F0FF0019D0642800D364200CF0D4
:104DA00011FF0C490DF084F80B490CF0F5FD0CF0E7
:104DB000D1FEC0B20B2800D90B20801D5FFA80F114
:104DC000BDE810404FF4505001F0BCB90B21F7E79B
:104DD000080100200000C842295C854170B50546E5
:104DE0000C46012000234FF6FF7105E000EB800028
:104DF0005B1C01EA4000DBB29342F7D30CF0E2FE09
:104E000021460CF027FF0AF0C1FC0CF087FE01B22E
:104E10002846BDE8704000F001B800001CB55A22D9
:104E20008DF80020A5228DF8012005228DF80220A2
:104E300082228DF80320020A8DF804208DF80500E7
:104E4000080A8DF806008DF807100A230822694623
:104E5000014804F099FE1CBDC418002000218220E6
:104E600000F008B8642800D964200146822000F0D0
:104E700001B800001CB55A228DF80020A5228DF83B
:104E8000012004228DF8022082228DF80320020ADC
:104E90008DF804208DF805008DF806100A230722EE
:104EA0006946024804F070FE1CBD0000C4180020D2
:104EB00070B51D48007801280CD00021084600F08C
:104EC00053FD0021012000F04FFD0021084600F0B5
:104ED00065FD18E0154C207803281ED000252946D2
:104EE000002000F041FD2946012000F03DFD94F82E
:104EF0004400042813D00021002000F04FFD94F856
:104F0000880005280DD00021002000F061FDBDE8DB
:104F100070400021084600F075BD0125DFE7012142
:104F2000EAE70121F0E7000072000020E202002021
:104F300010B500F005FEBDE81040FFF78FBF10B5BB
:104F400000F005FE062140F2FE2000F0C3FDBDE8A2
:104F500010406420FFF786BF70B588B0050012D0FE
:104F600020220A496846FBF708FA00244FEA0D069A
:104F700055F8241036F81400032201F0C3F8641C1D
:104F8000E4B2102CF4D308B070BD0000A0200108DA
:104F900008494FF49053884206D20749884203DA01
:104FA00000211846FFF73ABF014601221846FFF7D5
:104FB00015BF0000CDCC4CBECDCC4C3E10B50CF096
:104FC000C9FD81B2BDE810404FF4A85001F0BAB855
:104FD00010B5304C2078C10740F2051001D01221E5
:104FE00000E0132101F0AEF8207881074FF48370C0
:104FF00001D5122100E0132101F0A4F82078410727
:1050000040F2071001D5122100E0132101F09AF8B7
:10501000207801074FF4847001D5122100E013219C
:1050200001F090F82078C10640F2091001D5122154
:1050300000E0132101F086F8207881064FF4887093
:1050400001D5122100E0132101F07CF820784106FF
:1050500040F2111001D5122100E0132101F072F885
:10506000207801064FF4897001D5122100E0132148
:1050700001F068F82021084802F044FD014640F2A2
:105080001310012904D01321BDE8104001F05AB8D3
:105090001221F9E7F2000020000C01404FF4805388
:1050A00001460122184601F02DB810B50AF06EFB3A
:1050B0000CF050FD81B2BDE810404FF4985001F063
:1050C00041B8014601224FF4C06001F01BB810B591
:1050D0000AF05CFB0CF03EFD81B2BDE8104041F2ED
:1050E000100001F02FB810B50AF050FB0CF032FDA3
:1050F00081B2BDE810404FF4C05001F023B8000069
:10510000F0B599B020222A496846FBF736F9294DB7
:10511000294E00246F4600BF05EB440040880CF088
:1051200051FD31460CF038FC014637F814000322DB
:1051300000F0E8FF641CE4B2102CEDD31C492022DF
:10514000203108A8FBF719F9002408AF05EB44004B
:10515000B0F846000CF036FD31460CF01DFC01465F
:1051600037F81400032200F0CDFF641CE4B2102CC9
:10517000ECD30F492022403110A8FBF7FEF80024A1
:105180000DF1400705EB4400B0F88A000CF01AFD61
:1051900031460CF001FC014637F81400032200F000
:1051A000B1FF641CE4B2102CECD319B0F0BD0000C8
:1051B000C0200108E202002000007A442DE9F041FD
:1051C000164EB6F933000CF0E5FC154F39460CF0DD
:1051D000E3FB0546B6F977000CF0DCFC39460CF031
:1051E000DBFB0446B6F9BB000CF0D4FC39460CF0EE
:1051F000D3FB0646012229464FF48A40FFF7EEFD15
:105200000122214643F20300FFF7E8FD3146BDE8E5
:10521000F041012243F21100FFF7E0BDE20200205D
:105220000000C84210B50A4C4FF48C40A18F00F02A
:1052300089FFB4F8801043F2050000F083FFB4F852
:10524000C410BDE8104043F2140000F07BBF000022
:10525000E20200202DE9F041164EB6F835000CF0C0
:10526000B1FC154F39460CF097FB0546B6F87900AE
:105270000CF0A8FC39460CF08FFB0446B6F8BD00D4
:105280000CF0A0FC39460CF087FB064601222946AB
:10529000900300F037FF0122214643F2010000F0A5
:1052A00031FF3146BDE8F041012243F2080000F031
:1052B00029BF0000E202002000007A4410B500205F
:1052C00001F04CF80CF07EFC184C21460CF064FB0D
:1052D0000AF05CFA0CF03EFC81B24FF4824000F020
:1052E00031FF012001F03AF80CF06CFC21460CF083
:1052F00053FB0AF04BFA0CF02DFC81B243F2040090
:1053000000F020FF022001F029F80CF05BFC2146A0
:105310000CF042FB0AF03AFA0CF01CFC81B2BDE83A
:10532000104043F2130000F00DBF000000007A446B
:1053300070B5002001F012F80CF044FC1D4C214621
:105340000CF02AFB1C4D29460CF084FC21460CF085
:1053500023FB0146012244F2300000F0D3FE01207D
:1053600000F0FCFF0CF02EFC21460CF015FB29464A
:105370000CF070FC21460CF00FFB0146012241F2BB
:10538000030000F0BFFE022000F0E8FF0CF01AFC62
:1053900021460CF001FB29460CF05CFC21460CF088
:1053A000FBFABDE870400146012241F2060000F020
:1053B000A9BE000000007A44CDCC4C4270B5002359
:1053C000184600F0E5FF0446002000F0C7FF304E0D
:1053D00005466CB120460CF0F5FB044628460CF05F
:1053E000F1FB31460CF036FC21460CF0D5FA0346B1
:1053F00018460AF0CBF90CF0ADFB81B24FF48640B1
:1054000000F0A0FE0023012000F0C2FF04460120AE
:1054100000F0A4FF05466CB120460CF0D3FB044617
:1054200028460CF0CFFB31460CF014FC21460CF062
:10543000B3FA034618460AF0A9F90CF08BFB81B2C7
:1054400043F2020000F07EFE0023022000F0A0FFE5
:105450000446022000F082FF05466CB120460CF0A5
:10546000B1FB044628460CF0ADFB31460CF0F2FBD4
:1054700021460CF091FA034618460AF087F90CF021
:1054800069FBBDE8704081B243F2150000F05ABEDE
:105490000000C84270B5002000F07AFF0CF092FBCB
:1054A0001D4C21460CF0D6FB1C4D29460CF074FA1D
:1054B0000AF06CF90CF04EFB81B24FF4844000F01E
:1054C00041FE012000F064FF0CF07CFB21460CF053
:1054D000C1FB29460CF060FA0AF058F90CF03AFBCF
:1054E00081B243F2060000F02DFE022000F050FFD2
:1054F0000CF068FB21460CF0ADFB29460CF04CFA91
:105500000AF044F90CF026FBBDE8704081B243F28A
:10551000090000F017BE00000000C8420052994880
:1055200070B51F4CB4F923000CF034FB1D4D294617
:105530000CF032FA1C4E31460CF0C4FC0AF026F98D
:105540000CF008FB81B244F2100000F0FBFDB4F94E
:1055500067000CF01FFB29460CF01EFA31460CF0D8
:10556000B1FC0AF013F90CF0F5FA81B241F2010036
:1055700000F0E8FDB4F9AB000CF00CFB29460CF090
:105580000BFA31460CF09EFC0AF000F90CF0E2FA3E
:10559000BDE8704081B241F2040000F0D3BD0000CC
:1055A000E202002000002041CD8C8843024801889F
:1055B0004FF4585000F0C6BD0C010020074810B54C
:1055C00000880CF0FFFA0AF0E1F80CF0C3FA81B29F
:1055D000BDE810404FF44C5000F0B4BD080100206D
:1055E000074810B500880CF0EDFA0AF0CFF80CF07F
:1055F000B1FA81B2BDE810404FF4485000F0A2BDAE
:105600000A0100202DE9F0411348124F3946006885
:105610000CF020FB114E05460024305D40B1E0B295
:1056200000F09CFE0CF0CEFA29460CF0FFF805467F
:10563000641C032CF1DB394628460CF0ADF90AF066
:10564000A5F80CF087FABDE8F04181B24FF4445060
:1056500000F078BD00007A44A80100201600002068
:105660002DE9F0411248134E134F05680024305DB8
:1056700058B1E0B200F072FE0CF0A4FA39460CF01A
:105680008BF929460CF0D2F80546641C032CEEDB9E
:105690000A4928460CF0DEFA39460CF07DF9BDE8DF
:1056A000F0410146012243F2300000F02BBD000022
:1056B000A80100201600002000007A44CDCC4C4206
:1056C000064810B500680AF061F80CF027FA01B23C
:1056D000BDE8104043F21000FFF7A0BB5C0B0020B8
:1056E000074810B500680CF055FA06490CF054F95B
:1056F0000146BDE8104001224FF45450FFF76EBB45
:10570000640100200000C842074810B500880CF072
:1057100059FA06490CF040F90146BDE81040012253
:105720004FF4405000F0EEBCFE00002000007A4430
:1057300010B54FF488540AF029F80CF0EFF901B2D3
:105740002046BDE81040FFF769BB41F20113014656
:1057500001221846FFF742BB41F202130146012223
:105760001846FFF73BBB41F20313014601221846DE
:10577000FFF734BB41F20413014601221846FFF73C
:105780002DBB41F20713014601221846FFF726BB45
:1057900041F20813014601221846FFF71FBB41F2F0
:1057A0000513014601221846FFF718BB41F2061304
:1057B000014601221846FFF711BB10B50446817857
:1057C000002000F0BFFC61784FF4807000F0BAFC5C
:1057D00021794FF4007000F0B5FC61794FF440700E
:1057E00000F0B0FCA179BDE810404FF4806001F5F5
:1057F000FA6100F0A7BC000010B5B0F5000F0DDB9A
:105800000A49884200DB08460CF052FB08490CF0BC
:10581000C3F80CF09FF9C1B2052900D90521BDE8F4
:1058200010404FF4A06000F08DBC00000000C842A2
:10583000295C85412DE9F041002000F0A9FD0346D7
:10584000002000F08BFD464D464C07460BB3184632
:105850000CF0B8F9064638460CF0B4F921460CF0C5
:10586000F9F931460CF098F80CF074F910F0FF00DB
:105870000FD0642800D364200CF0A4F921460CF06A
:1058800017FB29460CF088F80CF064F9C1B2052921
:1058900000D9052144F2200000F054FC012000F062
:1058A00077FD0346012000F059FD07460BB318466B
:1058B0000CF088F9064638460CF084F921460CF0C5
:1058C000C9F931460CF068F80CF044F910F0FF000B
:1058D0000FD0642800D364200CF074F921460CF03A
:1058E000E7FA29460CF058F80CF034F9C1B2052952
:1058F00000D9052141F2020000F024FC022000F052
:1059000047FD0346022000F029FD07460BB3184669
:105910000CF058F9064638460CF054F921460CF0C4
:1059200099F931460CF038F80CF014F910F0FF003A
:105930000FD0642800D364200CF044F921460CF009
:10594000B7FA29460CF028F80CF004F9C1B2052981
:1059500000D90521BDE8F04141F2050000F0F2BB9D
:10596000295C85410000C8427FB507A43CCC8DE886
:105970003C008DF80A008DF80D100A230E226946AE
:10598000054804F001F97FBD5AA50B8200B05AA565
:105990000001000500000000C41800207FB507A426
:1059A0003CCC8DE83C008DF80A008DF80D100A23E0
:1059B0000E226946054804F0E7F87FBD5AA50B8220
:1059C00000B05AA5000E000500000000C418002019
:1059D0007FB507A43CCC8DE83C008DF80A008DF81B
:1059E0000D100A230E226946054804F0CDF87FBD4C
:1059F0005AA50B8200B05AA5001500050000000052
:105A0000C41800207FB507A43CCC8DE83C008DF87D
:105A10000A008DF80D100A230E226946054804F08D
:105A2000B3F87FBD5AA50B8200B05AA50018000537
:105A300000000000C41800200E4810B5007810F0D7
:105A4000FF000FD0642800D364200CF0BBF80A4993
:105A50000CF02EFA09490BF09FFF0CF07BF8C1B255
:105A6000052900D90521BDE8104043F2200000F0CF
:105A700069BB0000080100200000C842295C854184
:105A800070B51148017841F61200441C012915D166
:105A90000E4A00230E4D127819466E5C2EB9491C31
:105AA0000329FADB022A00D243B1162100F04AFB97
:105AB00017212046BDE8704000F044BB142100F0DF
:105AC00041FB1421F5E7000072000020780000205F
:105AD000160000200A460146042000F001B800002C
