:020000040801F1
:10000000304C0020E1010108D13A0208191702081A
:10001000CD3A0208E18C01087D770208000000005B
:10002000000000000000000000000000C1480208BD
:10003000D5C4010800000000E13D0208614B020840
:10004000FB010108DD3D0208FB010108FB0101087D
:10005000FB010108FB010108FB010108FB0101088C
:10006000FB010108FB010108FB010108C59401081F
:10007000FB010108FB010108FB010108FB0101086C
:10008000FB010108FB01010821080108FB0101082F
:100090006D580208FB010108FB010108FB01010882
:1000A000FB010108FD4B0208FB010108FB010108EF
:1000B000094C0208FB010108FB010108FB010108D2
:1000C000FB010108FB010108FB010108FB0101081C
:1000D0008947020825580208FB010108FB010108B5
:1000E000D9C40108FB010108FB010108FB0101085B
:1000F000FB010108FB010108FB010108FB010108EC
:10010000FB010108FB010108FB010108FB010108DB
:100110000557020811570208FB010108FB010108FD
:10012000FB010108FB010108FB010108FB010108BB
:1001300000F002F800F045F80AA090E8000C8244B4
:100140008344AAF10107DA4501D100F03AF8AFF291
:10015000090EBAE80F0013F0010F18BFFB1A43F0A5
:1001600001031847DC290200FC290200103A24BFD1
:1001700078C878C1FAD8520724BF30C830C144BF0C
:1001800004680C607047000000230024002500264E
:10019000103A28BF78C1FBD8520728BF30C148BFEA
:1001A0000B607047642900F07780752900F0748037
:1001B000782900F0AD80002070471FB51FBD10B535
:1001C00010BD00F0F7FA1146FFF7F7FF18F058F8E6
:1001D00000F015FB03B4FFF7F2FF03BC00F018FBBF
:1001E0000948804709480047FEE7FEE7FEE7FEE7CB
:1001F000FEE7FEE7FEE7FEE7FEE7FEE70448054907
:10020000054A064B70470000E94B0208310101081E
:1002100030460020304C002030480020304800207C
:100220000FB41CB5074B06AA7B446946009005989D
:1002300000F071FA0020694600F080FA1CBC5DF8FD
:1002400014FB00001105000070B5044685690068C4
:10025000C10601D5302600E02026C00707D070BDBA
:10026000D4E9012130469047206A401C20626D1E6F
:10027000F6D570BD70B5044685690078C00707D112
:1002800070BDD4E9012120209047206A401C2062E3
:100290006D1EF6D570BD00002DE9F0410646002424
:1002A00010687529314616A510D0AFF300800028DC
:1002B00002DA404213A507E031688A0701D512A58A
:1002C00002E0490704D511A5012401E0AFF3008045
:1002D00000210A2206F1240709E0B0FBF2FCB0FB82
:1002E000F2F302FB1C00303078541846491C0028F9
:1002F000F3D123462A463046BDE8F04100F0ACB9C0
:10030000000000002D0000002B0000002000000075
:1003100070B504460D4621461068AFF30080218871
:10032000090502D50F4A7A4402E00E4A7A440E3299
:10033000002104F1240305E000F00F060009965D9A
:100340005E54491C0028F7D120780023000704D50B
:10035000702D02D009B1022311322046BDE8704051
:1003600000F07AB9E41E02002DE9F05F89460446E8
:100370004FF0000ADFF824B1FB44C0F820A020466B
:10038000E168884700287DD0252806D0D4E90121DE
:100390009047206A401C2062F1E700255F46204616
:1003A000E16888472028064607DB312E05D2B819B8
:1003B00010F8200C08B10543F1E7A80701D525F096
:1003C0000405C4F81CA00027C4F818A02A2E09D0E0
:1003D000304620F0B1FF38B304EB8708303EC8F850
:1003E000186019E059F8041B204604EB870291615C
:1003F000E1688847012F064618D1E069002820DA15
:1004000025F020051DE0D8F8180000EB800006EB71
:1004100040003038C8F818002046E1688847064692
:1004200020F08AFF0028EED1012F0AD02E2E08D10D
:100430002046E16888477F1C0646022F45F02005CC
:10044000C4DBA069002803DA404245F00105A06141
:10045000E80701D025F01005A6B1A6F14100192842
:1004600002D8203645F400654A46314620462560CC
:100470004D46FFF797FE60B1012807D0ED1D25F02E
:10048000070000E007E000F1080978E705F104093A
:1004900075E730467AE7206ABDE8F09FBA1E020091
:1004A00040EA010310B59B070FD1042A0DD310C8F1
:1004B00008C9121F9C42F8D020BA19BA884201D943
:1004C000012010BD4FF0FF3010BD1AB1D30703D08B
:1004D000521C07E0002010BD10F8013B11F8014B41
:1004E0001B1B07D110F8013B11F8014B1B1B01D15D
:1004F000921EF1D1184610BD10B5431C02E010F851
:10050000011B71B18107FAD14FF0013202C88C1A78
:100510008C4314EAC211F9D0C01A0A0603D0C01ED7
:1005200010BDC01A10BD0A0401D0801E10BD090202
:10053000FCD0401E10BD032A40F2308010F0030CA6
:1005400000F0158011F8013BBCF1020F624498BF26
:1005500011F801CB00F8013B38BF11F8013BA2F1C3
:10056000040298BF00F801CB38BF00F8013B11F03E
:10057000030300F0E880083AC0F0088051F8043B1B
:10058000083A51F804CBA0E80810F5E7121D5CBF4B
:1005900051F8043B40F8043BAFF30080D20724BF7E
:1005A00011F8013B11F801CB48BF11F8012B24BF12
:1005B00000F8013B00F801CB48BF00F8012B704761
:1005C0004FF000020429C0F0128010F0030C00F07C
:1005D0001B80CCF1040CBCF1020F18BF00F8012BFA
:1005E000A8BF20F8022BA1EB0C0100F00DB85FEAC8
:1005F000C17C24BF00F8012B00F8012B48BF00F894
:10060000012B70474FF0000200B513469446964602
:10061000203922BFA0E80C50A0E80C50B1F1200115
:10062000BFF4F7AF090728BFA0E80C5048BF0CC0C3
:100630005DF804EB890028BF40F8042B08BF704721
:1006400048BF20F8022B11F0804F18BF00F8012B93
:1006500070477047704770472DE9F0470D4699463F
:100660009246044600F124080168880604D5E06932
:1006700021F01001216000E00120A84201DD471BAC
:1006800000E00027A1697A1902EB0900081AA061AD
:100690002078C00602D42046FFF7D6FD002608E0E9
:1006A000D4E901211AF806009047206A401C761C04
:1006B00020624E45F4DB2078C0060AD52046FFF7BD
:1006C000C3FD06E0D4E9012130209047206A401C98
:1006D0002062381EA7F10107F4DC07E0D4E901210C
:1006E00018F805009047206A401C2062281EA5F1DA
:1006F0000105F3DC2046FFF7BDFD2078000602D59A
:100700000220BDE8F0870120FBE7000001694A1CD8
:1007100002610878704700B58FB0CDE90131002142
:10072000059105497944CDE9031011466846FFF764
:100730001BFE0FB000BD0000E5FFFFFF0A6802F8D6
:10074000010B0A60704710B5203AC0F00B80B1E889
:100750001850A0E81850B1E81850A0E81850203AF6
:10076000BFF4F5AF5FEA027C24BFB1E81850A0E8FF
:10077000185044BF18C918C0BDE810405FEA827C19
:1007800024BF51F8043B40F8043B08BF7047D20730
:1007900028BF31F8023B48BF11F8012B28BF20F8D1
:1007A000023B48BF00F8012B70470000004870472B
:1007B000600000207546FFF7F9FFAE460500694668
:1007C000534620F00700854618B020B5FFF716FD08
:1007D000BDE820404FF000064FF000074FF0000842
:1007E0004FF0000BAC46ACE8C009ACE8C009ACE87F
:1007F000C009ACE8C00921F007018D46704710B56B
:100800000446AFF300802046BDE81040FFF7E2BC8D
:1008100001491820ABBEFEE7260002007047000029
:1008200040F2EC40C2F200000CF0D6B90146406A3A
:10083000826A12F0500F03D0006A026B084610471C
:100840000168826A42F400728262896801F4602160
:10085000B1F5602F01D1017B09B10CF0B7B9816A04
:1008600021F480718162816AC90448BF0CF0AEB97D
:10087000816A41F0010181620CF0A8B9406A816A85
:1008800041F040018162C16A41F00401C1620CF093
:10089000A1B90000406A0CF09BB90000B0B582B06D
:1008A00004460020019021688A68D2074ED18868EA
:1008B00040F00100886040F23800C2F20000006899
:1008C0004DF68361C4F21B31A0FB0101880C01903D
:1008D0000198A0B1019801380190019878B1019870
:1008E00001380190019850B10198013801900198A8
:1008F00028B101980138019001980028EAD10EF042
:1009000027F821688968C9071CD1054603E000BFA4
:100910008068C00719D10EF01BF8411B206803291D
:10092000F6D38168C907F3D1A06A40F01000A06235
:10093000E06A40F00100E062002084F82400012019
:1009400002B0B0BD002002B0B0BD002002B0B0BD0A
:1009500001884288C388114482881144028919445D
:100960004389114482891944C3891144028A194474
:10097000438A1144828A1944C38A1144028B194460
:10098000438B1144828B1944C38B1144028C19444C
:10099000438C1144828C1944C38C1144028D194438
:1009A000438D1144828D1944C38D1144028E194424
:1009B000438E1144828E1944C38E1144028F194410
:1009C000438F1144828F1944C38F1144B0F84020E3
:1009D0001944B0F842301144B0F844201944B0F83A
:1009E00046301144B0F848201944B0F84A30114458
:1009F000B0F84C201944B0F84E301144B0F85020F3
:100A00001944B0F852301144B0F854201944B0F8E9
:100A100056301144B0F858201944B0F85A301144F7
:100A2000B0F85C201944B0F85E301144B0F8602092
:100A30001944B0F862301144B0F864201944B0F899
:100A400066301144B0F868201944B0F86A30114497
:100A5000B0F86C201944B0F86E301144B0F8702032
:100A60001944B0F872301144B0F874201944B0F849
:100A700076301144B0F878201944B0F87A30114437
:100A8000B0F87C201944B0F87E0011440844800975
:100A9000704700002DE9F04F81B00DF059FF40F292
:100AA0006038C2F20008D8F838108146401AFA2897
:100AB000C0F0C28040F2682B40F2000A40F2404E83
:100AC00040F2DC154FF6FF7CC2F2000B0022C2F2AE
:100AD000000A4FF0FF30C2F2000EC2F200054FF6DE
:100AE000FF770023C8F83890ABF84220AAF802003C
:100AF00003E000BF0433102B64D00EEB4304208CC2
:100B000096B2B04206D943F0010285F8332002467E
:100B1000ABF84200B0F5FA7F09D9BEB2B04206D2B6
:100B200043F001060746AAF8020085F83460608C9D
:100B300096B2B04203F1010605D9721C85F8332044
:100B40000246ABF84200B0F5FA7F08D9B9B2884244
:100B500005D2711C0746AAF8020085F83410A08C53
:100B600091B2884203F1020606D946F0010102461D
:100B7000ABF8420085F83310B0F5FA7F09D9B9B265
:100B8000884206D246F001010746AAF8020085F81D
:100B90003410E08C91B2884203F1030405D9611C42
:100BA0000246ABF8420085F83310B0F5FA7FA1D9C0
:100BB000B9B288429ED2611C0746AAF8020085F8A5
:100BC000341097E795F83F401CBBB8B2B0F5486FBA
:100BD0001FD8BBF94000ACF1300109B2884218DAE5
:100BE000DAF810000021C4F2A81120F077FF80B9D4
:100BF000D8F83C004EF66021002804BFC8F83C90AD
:100C00004846A9EB0000884216D3012485F83F40EE
:100C100000E074B184B1DAF810000021C4F2A01130
:100C200020F04EFF40B9002085F83F0001B0BDE83C
:100C3000F08F0020C8F83C0001B0BDE8F08F000044
:100C40002DE9F04FABB040F2DC1BC2F2000B9BF879
:100C50001300012841F000809BF8310040F2682A1F
:100C600003909BF86B00C2F2000A2990BAF9400089
:100C700040F200010690BAF83A00C2F200010B906F
:100C80000869896919910021C4F2C82120F088FF00
:100C900040F2E421C2F200012A90086A40F2A04426
:100CA0000A90486BC2F200042790D1E90E60D4E9A3
:100CB00002582690BAF81C000D90BAF81E00029057
:100CC0004FF6EF60C0F2E830CAF8440040F201107D
:100CD000ABF83500D4E9000721F058F881463846D2
:100CE00021F054F80746284621F050F805464046C2
:100CF00021F04CF88046304621F048F8289026989C
:100D000021F044F8A1690646084621F03FF8044660
:100D1000279821F03BF819F5887F6FF4887208DB7B
:100D20000121B9F57A7F4A46AAF844908BF835102C
:100D300014DA0121AAF846908BF83610DDF8A0C02D
:100D4000BA4212DA02213A46AAF844708BF83510FA
:100D5000B9450DDC0123AA4212DB17E04A464FF4E5
:100D60007A79DDF8A0C0BA42ECDB0121B945F1DDAA
:100D70000223B946AAF846708BF83630AA4205DA43
:100D800003212A46AAF844508BF83510A94500F3F0
:100D900037814245C0F23D81C14500F34381624540
:100DA000C0F24981E14500F34F81B242C0F2558162
:100DB000B14500F35B81A242C0F26181A14500F31D
:100DC0006781824205DA08210246AAF844008BF8BE
:100DD0003510CDE914210399299A814541EA020190
:100DE00005DD08238146AAF846008BF83630C8B2E4
:100DF0002993CDF85890002818BF01201890199811
:100E00002A9921F093F86FF4887E40F20005844619
:100E100000200EF58874C2F2000540F24048AAF89E
:100E200042006C80C2F20008002102E00431102967
:100E300060D008EB4102138C87B2BB4206D941F067
:100E400001071846AAF842308BF83370B3F5FA7FE1
:100E500008D9A7B2BB4205D241F001071C466B80FE
:100E60008BF83470538C87B2BB4201F1010705D96E
:100E70007E1C1846AAF842308BF83360B3F5FA7F2F
:100E800007D9A6B2B34204D201371C466B808BF857
:100E90003470938C87B2BB4201F1020706D947F048
:100EA00001061846AAF842308BF83360B3F5FA7F92
:100EB00008D9A6B2B34205D247F001071C466B80A1
:100EC0008BF83470D28C83B29A4201F1030305D9B6
:100ED0005F1C1046AAF842208BF83370B2F5FA7FF7
:100EE000A4D9A7B2BA42A1D2013314466A808BF8C2
:100EF00034309BE721909BF843109BF842001B91F4
:100F00008BF81F101A908BF820009BF844009BF878
:100F100045109BF846208BF8210052EA01009BF80F
:100F200033609BF8349018BF01208BF822009BF8A7
:100F30004B009BF84A109BF848200843104318BF09
:100F400001209BF84E109BF84D208BF8230052EAAD
:100F5000010018BF01208BF8240040F24410C2F2B7
:100F600000000178837842781943C77818BF0121BF
:100F70008BF825109BF840103A43114318BF01210C
:100F80008BF8261081888279C379ABF8271053EA51
:100F9000020118BF0121027A407A8BF82910104310
:100FA00018BF01208BF82A0044F27D3044F214323D
:100FB000C2F20000C2F200022792024601200F9006
:100FC0000120139001201290012040F2F6012090A0
:100FD00001200EF1DF05C2F2000140F2D607DDF874
:100FE00018E0CDE910401998C2F2000701940023DF
:100FF0000C46CDF838E00C90CDF85CC0049576E056
:101000000323A946AAF846508BF836304245BFF66E
:10101000C3AE04214246AAF844808BF83510C1457E
:101020007FF7BDAE0423C146AAF846808BF8363060
:101030006245BFF6B7AE05216246AAF844C08BF8F8
:101040003510E1457FF7B1AE0523E146AAF846C069
:101050008BF83630B242BFF6ABAE06213246AAF864
:1010600044608BF83510B1457FF7A5AE0623B14635
:10107000AAF846608BF83630A242BFF69FAE072131
:101080002246AAF844408BF83510A1457FF799AE67
:101090000723A146AAF846408BF836308242FFF675
:1010A00092AE96E60BF12A000BF12407012139706C
:1010B000012401709EF8200040F2D607C00618985F
:1010C00048BF2046DDF818E040F2F604049D1D9B61
:1010D000C2F20004C2F200071890269A2798013342
:1010E0004432032B00F12300279000F0A28403EB8D
:1010F000830104EB4108B8F8071000202692AE45A2
:10110000B8BF0120B1FA81F1FA5C49090140002A17
:101110000AEB030080F87110DFD090F86B00002814
:10112000DBD144F27D3103EB0310C2F2000101EB8D
:10113000800797F83900B7F93310B7F8352003283E
:101140001D93CDE90821CDF8A88007D8B7F837005E
:10115000798F6422504301FB02F513E097F83F00BA
:1011600097F83E10000297F8402040EA014097F8B7
:101170004210104497F84120090297F8433041EAA1
:101180000241CD18DDF830A020F054FE014617983A
:1011900020F026FC8046284620F04CFE04465046AF
:1011A000214620F01DFC05461998214620F018FC28
:1011B0002A9A7978B2F905301990CDF85C800C95AF
:1011C00007931C9779B11D984A1E0230032A01F03B
:1011D000030205921F9009D2DDE920B5DDE9102E4A
:1011E0004FF00008B2E0DDF8A4C048E1891A219D63
:1011F000DDF880B0DDE9102E1E914FF000086FF091
:10120000030100BF269CCDF8A88004EB4800B0F88D
:1012100002C02390ABB22A98289124939C4588BFA2
:101220006546A9B293B240F00108219188BF4646B5
:101230009C454FF0000338BF0123BCF5FA7F4FF007
:10124000000788BF012713EA0700259018BF6246F0
:10125000289897B20444B4F808A018BFC1468A453C
:1012600088BF55462A984FF0000300F1020088BF5E
:101270000646BA4538BF0123BAF5FA7F4FF000079A
:1012800088BF01273B40229318BF524618BF8146B2
:1012900067891FFA85F893B2474540F0010484BF7F
:1012A0003D4626469F424FF0000038BF0120B7F56B
:1012B000FA7F4FF0000188BF01210840209018BF3D
:1012C000A146239BA9B21C8918BF3A468C4288BF0D
:1012D0002546249B9C451F9B88BF9E46219882459E
:1012E00088BF9E46474588BF9E468C4288BF9E4623
:1012F0002A9997B201F104012A912A9988BF0E46D2
:10130000BC424FF000014FF0000738BF0121B4F597
:10131000FA7F88BF0127394018BF2246259F002F3A
:1013200018BF9B46229FDDF8A880002F18BF9B4660
:101330002098002818BF9B46002928991CBF9B466F
:10134000C1461E98083140457FF45CAFCDE9102EB0
:10135000059A1F9CCDF880B040F2DC1B40F2682A51
:10136000DDF8A4C01C9F002AC2F2000BC2F2000AE2
:10137000219500F0888007EB4801DDF884A04B88B8
:101380001FFA8AF0834288BF9A46DDF844E025467A
:1013900088BFA64608F10101834288BF0E46109C13
:1013A0004046A7B2BB424FF00007A8464FF00005E9
:1013B00038BF0127B3F5FA7F88BF01252F4018BF3A
:1013C0001C461546209A1CBF42468946012D04D171
:1013D000CDE9104ECDE9202A24E02A901C981FFA6E
:1013E0008AF300EB4100408801319842A3B282BFEA
:1013F0008246C6460E4698424FF000034FF0000763
:1014000038BF0123B0F5FA7F88BF01273B4017465C
:101410001EBF044647468946022D05D1CDE9104E30
:10142000CDE9207A1C9F2AE02A981C9D023005EB0A
:10143000400149881FFA8AF29142A2B200F10100EC
:1014400088BF8A46CDF884A088BFC646CDF844E060
:1014500088BF064691424FF0000238BF0122B1F525
:10146000FA7F4FF0000388BF01231A4018BF0C46D3
:10147000109418BF4746209718BF81462F4640F268
:10148000682AC2F2000A97F822101F96002900F07D
:1014900041811D984A1E0230032A01F00302CDF853
:1014A00078900592239007D2DDF858E0DDE9149892
:1014B000DDE9127B00269DE0DDF858E0DDE91498B7
:1014C000DDE9127B891A0026229100BF26982A9610
:1014D00000EB4601B1F92730B1F9234046F26760CD
:1014E000B1F92950C6F26660A3F6AB23B1F92560C5
:1014F000A4F6AB2183FB003A81FB0014A5F6AB23D5
:10150000A6F6AB2183FB003581FB0061A3102A986E
:1015100003EBD4730FFA89F440F00106A3420FFAEB
:101520008EF0C4BF9946B04628908342BCBF9E4609
:10153000B4468E1006EBD1710FFA89F6B142C8BFDE
:1015400089462A9800F102020FFA8EF0C8BF904631
:10155000259081424FEAAA00BCBF8E46944600EB1C
:10156000DA700FFA89FACDF8A4C042F0010C5045A8
:101570000FFA8EF2C4BF8146E04624929042B8BF73
:101580008646299AB8BF62462992AA1002EBD57204
:101590000FFA89F5AA42C8BF9146A342239CC8BF4F
:1015A0002746B1422A9EC8BF27465045C8BF274696
:1015B000AA420FFA8EFAC8BF274606F10406C8BF32
:1015C000B0465245B8BF9646289DAB42B8BFA34629
:1015D000259B9942B8BFA3462499DDF8A4C0884250
:1015E000B8BFA3465245BCBFA346B4462298B042FA
:1015F0007FF46CAF059A2398CDE9127BCDE914985E
:1016000040F2DC1B40F2682ADDF878901C9F002A2B
:10161000C2F2000BC2F2000ACDF858E07AD007EB14
:101620004601B1F9231046F26768A1F6AB21C6F274
:10163000666881FB0813149D991001EBD3732FB2D8
:10164000BB42C8BF1D46129CC8BF0446711CB646AB
:10165000159E8246BB42C8BF0E46169807B2BB42D3
:10166000B8BF1846139F0346BCBF57468C46012A95
:101670001FD01C98CDF8A8E000EB4100B0F9230082
:101680009646A0F6AB2080FB0802901000EBD270CB
:101690002AB290421AB201F10101C2BF0546544676
:1016A0000E469042BEBF034657468C46BEF1020F1F
:1016B00006D1CDE912471C9FCDE91456169325E0BB
:1016C0002A98DDF870E002300EEB4001B1F92310EA
:1016D0000130A1F6AB2181FB0812911001EBD27110
:1016E0002AB291421AB2C8BF0D461495C8BF5446DB
:1016F0001294C8BF064615969142B8BF0B46169382
:10170000B8BF57461397B8BF8446774640F2682A59
:10171000C2F2000A1D9844F21431C2F200012322E1
:1017200000FB021E1B9E9EF81E00BA8FC1071CBF45
:1017300001268BF81F6010F0820F1A9D1CBF012537
:101740008BF8205041074FF0010748BF8BF82170FC
:10175000C10648BF8BF8227010F0600F18BF8BF8DD
:1017600023709EF81C000BF12503022804D00128E9
:1017700004D10BF1260000E0184607709EF81B000C
:1017800028A9022808BF8BF827709EF81D000228A0
:1017900008BF8BF828709EF8010081E8045000B360
:1017A000411E032900F00301259120D20022259932
:1017B000CDE91A56DDE90A56DDF8A8E00124002932
:1017C00000F09880724490780BF11F0C02285BD0D7
:1017D000012862D10BF126000BF1200101241A949B
:1017E00056E0CDE91A56DDE90A56012482E0A0EB65
:1017F000010C002208E000BF012618468EF8007098
:10180000077004329445D2D027980BF11F0E81182F
:101810008878022808D001280BD10BF126000BF1A3
:101820002004012503E000BF0126744618462770F6
:101830000770C878012805D002280AD1012674460D
:10184000184604E00BF126000BF120040125277057
:1018500007700879022807D001280AD10BF1260069
:101860000BF12004012502E001267446184627707A
:10187000077048790228BFD00128C2D10BF1260099
:101880000BF1200E0125B9E701201B906146184697
:1018900001270F7025990124077001292AD0D078DB
:1018A000022808D001280FD10BF126000BF12001EE
:1018B00001241A9403E001201B9061461846012779
:1018C0000F70259901240770022913D0107902287E
:1018D00008D001280ED10BF126030BF1200C0120BA
:1018E0001A9001E001201B9001208CF800000124D7
:1018F000187000BF0F98099901300F900E98079A41
:1019000008440D990E900898114406449EF8120060
:101910000D9128990B961F9E00280D440A953FF4BF
:10192000C9AB411E032900F0030C16D20022DDF8DA
:10193000A8E00124BCF1000F3FF4BCAB7244D17CA1
:101940000BF1290002290BF123074BD001294FD1BC
:101950000BF12A030BF1240146E0A0EB0C0E002250
:10196000012708E00BF12A010BF1240007700F702A
:1019700004329645DBD027980BF129018318DC7CD3
:101980000BF12300022C07D0012C09D10BF12A0402
:101990000BF1240502E000BF05460C462F702770AE
:1019A0001C7D012C04D0022C08D105460C4603E016
:1019B0000BF12A040BF124052F7027705C7D022C9B
:1019C00006D0012C08D10BF12A040BF1240501E00B
:1019D00005460C462F7027709B7D022BC6D0012B2D
:1019E000C0D0C5E739460346012501240D701D709E
:1019F000BCF1010F3FF45EAB117D022906D0012935
:101A00000AD10BF12A030BF1240101E03946034608
:101A1000012501240D701D70BCF1020F3FF44AAB8B
:101A2000517D02293FF442AB01293FF43BABFFF764
:101A300041BB40F2E4240E98DDF830800F9DC2F2E5
:101A40000004A06040468BF8185020F0BBF9E06419
:101A5000179820F0B7F9EFB22065384620F0EAF980
:101A600045F20021C4F69901054620F05FFA20F006
:101A7000A9F9002F60654CD004460B98B0FBF7F035
:101A8000AAF824000A9820F0D5F9294620F088F811
:101A90001FF081FC20F07AF9AAF8320040460021BC
:101AA00020F00EF878B100211798C4F2C82120F078
:101AB0003DFA414620F074F81FF06DFC20F066F905
:101AC000AAF82E0001E0BAF82E009BF82C1063282B
:101AD0001B9840EA010003D3010601D1632002E014
:101AE000000602D06420AAF82E0000211998C4F242
:101AF000C82120F01BFA0546204620F09BF901463C
:101B0000284620F04DF81FF046FC20F03FF9AAF8D7
:101B10003000DAF820009AF87110CAF82A000D98FF
:101B20009AF86E70AAF82600019840F2F60483B283
:101B30009AF86B00C2F20004084340F2D601C2F2E8
:101B4000000107430878B6469BF83F20B4F80760C9
:101B500000284D78897808BF0646002F4FF0000C0A
:101B600018BF6646002A3246029808BF0244B3F501
:101B70002F6F98BF32469AF86C309AF872709AF8C4
:101B80006F603B4333431646B4F81170002D18BF05
:101B90003E44002B18BF16469AF86D209AF8733011
:101BA0009AF870701A4335463A43B4F81B3000294E
:101BB00018BF1D44002A18BF35460398189F9BF88C
:101BC0002C6007431B989BF82E4038439BF87D30D0
:101BD00030439BF80E1020439BF810201843084315
:101BE00010433B430006AAF8285018BFAAF826C0A5
:101BF000194311431A9A9BF82B001143084300061E
:101C00001399DDE910321CBF0020AAF828001498AF
:101C10008BF83D10AAF8340016988BF83720AAF8F4
:101C2000360021988BF838E0AAF8480040F200000E
:101C3000C2F20000838018988BF83A908BF8190054
:101C400012988BF83B0015988BF83C0029988BF87C
:101C50003E0020988BF839002BB0BDE8F08F0000D3
:101C600070B540F2DC16C2F20006B07C002800F02D
:101C7000B080F07D052800F0AC8040F2D830C2F290
:101C8000000040F600441030C4F201040DF088FA60
:101C9000204608210CF048FEF17D052900F29780CE
:101CA0000546DFE801F003971B3C76AA4FF47F401E
:101CB000A6F813000020B0752046102100220CF079
:101CC00041FE0CF045FE40F26034C2F20004606058
:101CD0000CF03EFEE0600120F07570BD40F2012086
:101CE000A6F8130020461021012201240CF02AFE40
:101CF00040F2D600C2F2000000218170018040F263
:101D00003D003476C2F20000032404700CF020FE83
:101D100040F26031C2F200014860F47570BD0CF011
:101D200017FE40F26034C2F20004A16840F23D05A3
:101D3000401AB0F5FA7FC2F2000509D3297842F2C1
:101D40002820C2F2000012F02DFB0CF001FEA06072
:101D5000287840F2D601C2F20001014411F8031CB8
:101D600061B1317E01302870481C30760CF0F0FDF6
:101D700029786060062924BF0520F0750CF0E8FD85
:101D80006168401A41F28931884222D30520F075FA
:101D900070BDB07D03280AD30020F074B07D1021FF
:101DA0003075204601220CF0CDFD0520F0750CF0B9
:101DB000CFFD40F26031C2F200014968401A43F69B
:101DC0009921884238BF70BD0520F07570BD05208F
:101DD000F07570BD0CF0BCFD40F26034C2F200043E
:101DE000012D0DD1E168401AB0F5FA7FF1D9042038
:101DF000F0750CF0ADFD606070BD0020B07470BD7A
:101E00006168401A40F6B931884224BF0220F0755B
:101E10000CF09EFDE06070BD2DE9F04F83B040F204
:101E2000DC1AC2F2000A9AF81300012840F0C784B5
:101E30000CF08EFD9AF80C10032900F2C084804645
:101E4000DFE811F004004000A1032D0440F2E4207B
:101E5000C2F200008068010400B200EBE17080EA89
:101E6000E170C928C0F2AB8440F2D601C2F2000191
:101E70000878002840F26820C2F2000000F0A28436
:101E800090F86B20002A40F09D8444F27D32C2F22B
:101E90000002B2F93320002A48BF5242142A00F34C
:101EA000918444F21432C2F20002D37F13F0060F81
:101EB00040F0888492F82020D20600F1838400212B
:101EC00000F0BFBC40F2682BC2F2000BDBF87800D8
:101ED00040F6B931A8EB00008842C0F070849AF84F
:101EE0000D0044F27D3300EB0012C2F2000303EB5D
:101EF0008202BBF83A10B2F83520C31C881A40F2AF
:101F0000DC51022488424FF0020500F3EC844FF6C6
:101F10002321CFF6FF71884200F3E48401208AF880
:101F20000F009620ADF8040001A93E200222009384
:101F300011F054F840F2D830C2F2000000F1100560
:101F400028460DF02DF942F27806C2F200063068FC
:101F500000214162416AB1F57A7F0BD2416AC9081A
:101F60007C2907D8416AC9087C2903D8416AB1F5A0
:101F70007A7FEFD328460DF013F9306800214162D3
:101F8000416AB1F57A7F0BD2416AC9087C2907D82A
:101F9000416AC9087C2903D8416AB1F57A7FEFD339
:101FA00040F600092846C4F201090DF0F9F8484648
:101FB0000421002200240CF0C5FC48460221002226
:101FC0004F460CF0BFFC28460DF0EAF8306844623A
:101FD000416AB1F57A7F0BD2416AC9087C2907D8DA
:101FE000416AC9087C2903D8416AB1F57A7FEFD3E9
:101FF00028460DF0D5F8306800214162416AB1F5FC
:102000007A7F0BD2416AC9087C2907D8416AC9087E
:102010007C2903D8416AB1F57A7FEFD328460DF0C9
:10202000BFF8306800214162416AB1F57A7F0BD276
:10203000416AC9087C2907D8416AC9087C2903D8A4
:10204000416AB1F57A7FEFD328460DF0A9F83068E0
:1020500000214162416AB1F57A7F0BD2416AC90819
:102060007C2907D8416AC9087C2903D8416AB1F59F
:102070007A7FEFD328460DF093F830680021416253
:10208000416AB1F57A7F0BD2416AC9087C2907D829
:10209000416AC9087C2903D8416AB1F57A7FEFD338
:1020A00028460DF07DF8306800214162416AB1F5A3
:1020B0007A7F0BD2416AC9087C2907D8416AC908CE
:1020C0007C2903D8416AB1F57A7FEFD328460DF019
:1020D00067F8306800214162416AB1F57A7F0BD21E
:1020E000416AC9087C2907D8416AC9087C2903D8F4
:1020F000416AB1F57A7FEFD328460DF051F8306888
:1021000000214162416AB1F57A7F0BD2416AC90868
:102110007C2907D8416AC9087C2903D8416AB1F5EE
:102120007A7FEFD328460DF03BF8306800214162FA
:10213000416AB1F57A7F0BD2416AC9087C2907D878
:10214000416AC9087C2903D8416AB1F57A7FEFD387
:1021500028460DF025F8306800214162416AB1F54A
:102160007A7F0BD2416AC9087C2907D8416AC9081D
:102170007C2903D8416AB1F57A7FEFD328460DF068
:102180000FF8306800214162416AB1F57A7F0BD2C5
:10219000416AC9087C2907D8416AC9087C2903D843
:1021A000416AB1F57A7FEFD328460CF0F9FF306829
:1021B00000214162416AB1F57A7F0BD2416AC908B8
:1021C0007C2907D8416AC9087C2903D8416AB1F53E
:1021D0007A7FEFD328460CF0E3FF3068002141629C
:1021E000416AB1F57A7F0BD2416AC9087C2907D8C8
:1021F000416AC9087C2903D8416AB1F57A7FEFD3D7
:1022000028460CF0CDFF306800214162416AB1F5EB
:102210007A7F0BD2416AC9087C2907D8416AC9086C
:102220007C2903D8416AB1F57A7FEFD328460CF0B8
:10223000B7FF306800214162416AB1F57A7F0BD265
:10224000416AC9087C2907D8416AC9087C2903D892
:10225000416AB1F57A7FEFD328460CF0A1FF3068D0
:1022600000214162416AB1F57A7F0BD2416AC90807
:102270007C2907D8416AC9087C2903D8416AB1F58D
:102280007A7FEFD328460CF08BFF30680021416243
:10229000416AB1F57A7F0BD2416AC9087C2907D817
:1022A000416AC9087C2903D8416AB1F57A7FEFD326
:1022B00028460CF075FF306800214162416AB1F593
:1022C0007A7F0BD2416AC9087C2907D8416AC908BC
:1022D0007C2903D8416AB1F57A7FEFD328460CF008
:1022E0005FFF306800214162416AB1F57A7F0BD20D
:1022F000416AC9087C2907D8416AC9087C2903D8E2
:10230000416AB1F57A7FEFD328460CF049FF306877
:1023100000214162416AB1F57A7F0BD2416AC90856
:102320007C2907D8416AC9087C2903D8416AB1F5DC
:102330007A7FEFD328460CF033FF07F58060202129
:1023400001220CF0FFFA28460CF02AFF3068002129
:102350004162416AB1F57A7F0BD2416AC9087C2992
:1023600007D8416AC9087C2903D8416AB1F57A7F48
:10237000EFD328460CF014FF306800214162416A17
:10238000B1F57A7F0BD2416AC9087C2907D8416A26
:10239000C9087C2903D8416AB1F57A7FEFD3284672
:1023A0000CF0FEFE306800214162416AB1F57A7F8F
:1023B0000BD2416AC9087C2907D8416AC9087C291F
:1023C00003D8416AB1F57A7FEFD328460CF0E8FED6
:1023D000306800214162416AB1F57A7F0BD2416ACF
:1023E000C9087C2907D8416AC9087C2903D8416AF1
:1023F000B1F57A7FEFD328460CF0D2FE3068002189
:102400004162416AB1F57A7F0BD2416AC9087C29E1
:1024100007D8416AC9087C2903D8416AB1F57A7F97
:10242000EFD328460CF0BCFE306800214162416ABF
:10243000B1F57A7F0BD2416AC9087C2907D8416A75
:10244000C9087C2903D8416AB1F57A7FEFD32846C1
:102450000CF0A6FE306800214162416AB1F57A7F36
:102460000BD2416AC9087C2907D8416AC9087C296E
:1024700003D8416AB1F57A7FEFD328460CF090FE7D
:10248000306800214162416AB1F57A7F0BD2416A1E
:10249000C9087C2907D8416AC9087C2903D8416A40
:1024A000B1F57A7FEFD328460CF07AFE3068002130
:1024B0004162416AB1F57A7F0BD2416AC9087C2931
:1024C00007D8416AC9087C2903D8416AB1F57A7FE7
:1024D000EFD328460CF064FE306800214162416A67
:1024E000B1F57A7F0BD2416AC9087C2907D8416AC5
:1024F000C9087C2903D8416AB1F57A7FEFD3284611
:102500000CF04EFE9420ADF806000DF106013E20C1
:10251000022210F063FD28460CF042FE30680021D4
:102520004162416AB1F57A7F0BD2416AC9087C29C0
:1025300007D8416AC9087C2903D8416AB1F57A7F76
:10254000EFD328460CF02CFE306800214162416A2E
:10255000B1F57A7F0BD2416AC9087C2907D8416A54
:10256000C9087C2903D8416AB1F57A7FEFD32846A0
:102570000CF016FE38460421012201250CF0E2F988
:10258000009B0224AFE19AF80F0044F27D39002845
:10259000C2F2000900F06A819AF80D0040F2682149
:1025A00000EB001009EB8000C2F20001B0F835002A
:1025B000498F401AB0F57A7F80F258819620ADF8A5
:1025C000080002A93E20022210F008FD40F2D83097
:1025D000C2F2000000F1100528460CF0E1FD42F2C5
:1025E0007804C2F20004206800214162416AB1F51A
:1025F0007A7F0BD2416AC9087C2907D8416AC90889
:102600007C2903D8416AB1F57A7FEFD328460CF0D4
:10261000C7FD206800214162416AB1F57A7F0BD283
:10262000416AC9087C2907D8416AC9087C2903D8AE
:10263000416AB1F57A7FEFD340F6000B2846C4F229
:10264000010B0CF0ADFD58460421002200270CF0D0
:1026500079F95846022100220CF074F928460CF052
:102660009FFD002607E000BF28460CF099FD0136CB
:10267000322E00F0F2802068476200BF416AB1F557
:102680007A7FF1D2416AC9087C29EDD8416AC9082C
:102690007C29E9D8416AB1F57A7FEFD3E4E79AF86B
:1026A0000F00002878D09620ADF80A000DF10A013D
:1026B0003E20022210F092FC40F2D830C2F200001C
:1026C00000F1100420460CF06BFD42F27806C2F2D5
:1026D0000006306800214162416AB1F57A7F0BD271
:1026E000416AC9087C2907D8416AC9087C2903D8EE
:1026F000416AB1F57A7FEFD320460CF051FD306886
:1027000000214162416AB1F57A7F0BD2416AC90862
:102710007C2907D8416AC9087C2903D8416AB1F5E8
:102720007A7FEFD340F600082046C4F201080CF08F
:1027300037FD40460421002200270CF003F94046F3
:10274000022100220CF0FEF820460CF029FD0025A5
:1027500006E000BF20460CF023FD0135322D12D0DB
:1027600030684762416AB1F57A7FF3D2416AC9089D
:102770007C29EFD8416AC9087C29EBD8416AB1F5B8
:102780007A7FEFD3E6E708F580602021002200245D
:102790000CF0D8F88AF80F409AF80D0040F2682142
:1027A000C2F20001084490F86810052924BF0121F5
:1027B00080F86B1000208AF80E008AF80C0003B035
:1027C000BDE8F08F4A78E2B190F86C20CAB944F2C3
:1027D0007D32C2F20002B2F97720002A48BF52428D
:1027E000142A0EDC44F21432C2F2000292F8423093
:1027F00013F0060F05D192F84320D20601D401212F
:102800001FE089780029DAD090F86D100029D6D120
:1028100044F27D31C2F20001B1F9BB10002948BF7A
:1028200049421429CBDC44F21431C2F2000191F880
:10283000652012F0060FC2D191F86610C906BED409
:1028400002218AF80D1001218AF80C10C0F8788056
:10285000AAF80E1003B0BDE8F08F0BF580602021C0
:10286000002200240CF06EF88AF80F409AF80D0050
:1028700040F2D601C2F20001095C09B300EB00117D
:1028800009EB8101B1F93310002948BF49420A29F7
:102890000BDC44F21431C2F20001232200FB0211CE
:1028A000C97F01F0060106290AD140F26821C2F26F
:1028B00000010844002180F8681003208AF80C0009
:1028C00040F26820C2F20000806F43F69921A8EB25
:1028D00000008842FFF473AF03208AF80C0003B0B5
:1028E000BDE8F08F032542F22820D9B2C2F20000E1
:1028F0002A4611F035FD9AF80D008AF80C4058442C
:1029000090F86810013180F86810CBF8788003B037
:10291000BDE8F08FB0B540F2F450C2F200004FF4C1
:102920000061FDF76FFE40F2404444F24C40C2F2B9
:1029300000040025C2F200008021C4E90855C4E962
:102940000A55C4E90C55C4E90E55FDF75BFE42F289
:102950009040C2F200008021FDF754FE42F2782040
:10296000C2F200008021FDF74DFE40F27450C2F229
:102970000000002142184550203180291584A2F81A
:102980004050A2F86050C2F82250C2F84250C2F83B
:1029900062509580C2F80650C2F82650C2F84650E0
:1029A000C2F86650C2F80A50C2F82A50C2F84A501B
:1029B000C2F86A50D581D585A2F84E50A2F86E5063
:1029C000156115631565156755615563556555673F
:1029D0009561956395659567D561D563D565D5672F
:1029E000C8D140F2A0400025C2F200002421C4E971
:1029F0001055C4E91255C4E91455C4E91655FDF73C
:102A000001FE40F2E420C2F20000C0E90D55C563AA
:102A100040F2DC10C2F20000A0F80350457140F211
:102A20006820C2F200004FF0FF31C0F85A106FF476
:102A30000041C0F85E10C0F83A50A0F84050B0BD58
:102A40002DE9F04182B041F20044C4F201040020BB
:102A50008DF80700ADF804008DF8030020464FF410
:102A6000006100220BF06EFF20464FF4006100224F
:102A70000BF068FF20464FF4006100220BF062FF6C
:102A800040F60865C2F2000505F1180041F2101188
:102A9000FDF7B8FD40F2297040F22571C0F6030041
:102AA000C0F6030140F22D7244F6C50347F6755790
:102AB00047F6A156C0F60302C0F60203C0F60207AD
:102AC000C0F6020685E88F0028464EF616716E6144
:102AD0001DF022FEB0B940F60860C2F200000021ED
:102AE0001DF07AFB70B940F60860C2F200000021C8
:102AF0001DF06CFB30B940F60860C2F200001CF01B
:102B000017FC50B120464FF400610122012410F05F
:102B1000AFFE204602B0BDE8F08140F60865C2F283
:102B2000000528461CF04EFA28461DF09BF840F29E
:102B3000D830C2F2000000F1100528460CF030FB3E
:102B400042F278080026C2F20008002706E000BF23
:102B500028460CF025FB0137642F14D0D8F800006C
:102B6000466200BF416AB1F57A7FF1D2416AC90875
:102B70007C29EDD8416AC9087C29E9D8416AB1F5B8
:102B80007A7FEFD3E4E740F60860C2F200000DF16F
:102B9000070101AA1CF0EAFA0028B3D19DF807004A
:102BA000EF28AFD19DF804004028ABD19DF8050077
:102BB0001728A7D140F60866C2F2000630461CF07E
:102BC0006BFA3046002100271DF00EFB3046002135
:102BD0001DF056FC28460CF0E3FAD8F800004762D6
:102BE000416AB1F57A7F0BD2416AC9087C2907D8BE
:102BF000416AC9087C2903D8416AB1F57A7FEFD3CD
:102C000028460CF0CDFAD8F8000000214162416A54
:102C1000B1F57A7F0BD2416AC9087C2907D8416A8D
:102C2000C9087C2903D8416AB1F57A7FEFD32846D9
:102C30000CF0B6FAD8F8000000214162416AB1F503
:102C40007A7F0BD2416AC9087C2907D8416AC90832
:102C50007C2903D8416AB1F57A7FEFD328460CF07E
:102C60009FFAD8F8000000214162416AB1F57A7FED
:102C70000BD2416AC9087C2907D8416AC9087C2956
:102C800003D8416AB1F57A7FEFD328460CF088FA71
:102C9000D8F8000000214162416AB1F57A7F0BD279
:102CA000416AC9087C2907D8416AC9087C2903D828
:102CB000416AB1F57A7FEFD328460CF071FAD8F863
:102CC000000000214162416AB1F57A7F0BD2416A6E
:102CD000C9087C2907D8416AC9087C2903D8416AF8
:102CE000B1F57A7FEFD328460CF05AFAD8F80000F5
:102CF00000214162416AB1F57A7F0BD2416AC9086D
:102D00007C2907D8416AC9087C2903D8416AB1F5F2
:102D10007A7FEFD328460CF043FAD8F80000002160
:102D20004162416AB1F57A7F0BD2416AC9087C29B8
:102D300007D8416AC9087C2903D8416AB1F57A7F6E
:102D4000EFD328460CF02CFAD8F80000002141629D
:102D5000416AB1F57A7F0BD2416AC9087C2907D84C
:102D6000416AC9087C2903D8416AB1F57A7FEFD35B
:102D700028460CF015FAD8F8000000214162416A9B
:102D8000B1F57A7F0BD2416AC9087C2907D8416A1C
:102D9000C9087C2903D8416AB1F57A7FEFD3284668
:102DA0000CF0FEF9D8F8000000214162416AB1F54B
:102DB0007A7F0BD2416AC9087C2907D8416AC908C1
:102DC0007C2903D8416AB1F57A7FEFD328460CF00D
:102DD000E7F9D8F8000000214162416AB1F57A7F35
:102DE0000BD2416AC9087C2907D8416AC9087C29E5
:102DF00003D8416AB1F57A7FEFD328460CF0D0F9B9
:102E0000D8F8000000214162416AB1F57A7F0BD207
:102E1000416AC9087C2907D8416AC9087C2903D8B6
:102E2000416AB1F57A7FEFD328460CF0B9F9D8F8AA
:102E3000000000214162416AB1F57A7F0BD2416AFC
:102E4000C9087C2907D8416AC9087C2903D8416A86
:102E5000B1F57A7FEFD328460CF0A2F9D8F800003C
:102E600000214162416AB1F57A7F0BD2416AC908FB
:102E70007C2907D8416AC9087C2903D8416AB1F581
:102E80007A7FEFD328460CF08BF9D8F800000021A8
:102E90004162416AB1F57A7F0BD2416AC9087C2947
:102EA00007D8416AC9087C2903D8416AB1F57A7FFD
:102EB000EFD328460CF074F9D8F8000000214162E5
:102EC000416AB1F57A7F0BD2416AC9087C2907D8DB
:102ED000416AC9087C2903D8416AB1F57A7FEFD3EA
:102EE00028460CF05DF9D8F8000000214162416AE3
:102EF000B1F57A7F0BD2416AC9087C2907D8416AAB
:102F0000C9087C2903D8416AB1F57A7FEFD32846F6
:102F10000CF046F9D8F8000000214162416AB1F591
:102F20007A7F0BD2416AC9087C2907D8416AC9084F
:102F30007C2903D8416AB1F57A7FEFD328460CF09B
:102F40002FF9D8F8000000214162416AB1F57A7F7B
:102F50000BD2416AC9087C2907D8416AC9087C2973
:102F600003D8416AB1F57A7FEFD328460CF018F9FF
:102F700040F60860C2F200000DF103011CF06CF98C
:102F80009DF8030010F07C0F7FF4BCAD40F2DC1024
:102F9000C2F20000012180F87E1020464FF400614B
:102FA00001220BF0CFFC0024204602B0BDE8F081E6
:102FB0002DE9F04141F60008C4F2010840464FF403
:102FC00080710BF0B1FC054640464FF400710BF0E8
:102FD000ABFCB0FA80F0470940464FF480610BF03B
:102FE000A3FC002840464FF4006108BF02370BF0F5
:102FF0009BFC002808BF043740F2E421002D42F278
:1030000028254FEA0730C2F20001C2F200054860ED
:10301000686840F2DC164FF4E134C2F2000608BFE3
:103020004FF41654A042777512D028460DF0B8FC24
:1030300028466C600DF0F4FF002858D142F2282099
:1030400006F10B01C2F2000001220EF047FA777D73
:1030500057B100200521012FB074F1750DD140F258
:103060000120A6F8130011E0307D0238102807D89F
:103070000020B0740520F07508E0F074781C04E0BE
:10308000012070820020F075FF203075A8F54060A7
:103090001021002200250BF055FC40F2D830C2F27E
:1030A000000000F1100420460CF07AF842F2780695
:1030B000C2F20006002707E020460CF071F8013745
:1030C000642F08BFBDE8F08130684562416AB1F500
:1030D0007A7FF1D2416AC9087C29EDD8416AC908D2
:1030E0007C29E9D8416AB1F57A7FEFD3E4E709F0AA
:1030F000F7F900002DE9F04F83B041F20008C4F267
:10310000010840464FF400510BF00EFC0138B0FAB4
:1031100080F040F268294FEA501BC2F2000940F0EB
:10312000248140464FF4804101220BF00BFC99F8BA
:10313000130040F2603AC2F2000A00210028CAF8E7
:10314000301040F02D8240F21614C2F200042078B4
:10315000012840F02182FFF72BFF06F01BFEA8F5A7
:10316000006528460421002200260BF0EBFB2846D0
:10317000022100220BF0E6FB9620ADF8080002A920
:103180003E2002220FF02AFF40F2D830C2F20000A7
:1031900000F1100528460CF003F842F27807C2F25D
:1031A00000073868466200BF416AB1F57A7F0BD2EA
:1031B000416AC9087C2907D8416AC9087C2903D813
:1031C000416AB1F57A7FEFD328460BF0E9FF386802
:1031D00000214162416AB1F57A7F0BD2416AC90888
:1031E0007C2907D8416AC9087C2903D8416AB1F50E
:1031F0007A7FEFD328460BF0D3FF40F21410C2F2CF
:1032000000000121017040F2F4500026C2F20000DB
:103210004FF400612670FDF7F5F940F2404444F2A6
:103220004C40C2F20004C2F200008021C4E90866EA
:10323000C4E90A66C4E90C66C4E90E66FDF7E2F962
:1032400042F29040C2F200008021FDF7DBF942F229
:103250007820C2F200008021FDF7D4F940F27450CA
:10326000C2F20000002100BF4218465020318029E0
:103270001684A2F84060A2F86060C2F82260C2F82A
:103280004260C2F862609680C2F80660C2F82660AA
:10329000C2F84660C2F86660C2F80A60C2F82A60E6
:1032A000C2F84A60C2F86A60D681D685A2F84E603C
:1032B000A2F86E601661166316651667566156634E
:1032C000566556679661966396659667D661D6632E
:1032D000D665D667C8D140F2A0400026C2F20000F1
:1032E0002421C4E91066C4E91266C4E91466C4E97D
:1032F0001666FDF787F940F2E420C2F20000C0E94B
:103300000D66C6634FF0FF3040F2DC11C9F85A0079
:103310006FF40040C2F20001C9F85E000120C1F85C
:1033200002002846C9F83A60A9F840600BF038FF5F
:10333000002406E028460BF033FF0134FA2C00F09D
:103340001B813868466200BF416AB1F57A7FF1D2CD
:10335000416AC9087C29EDD8416AC9087C29E9D8A5
:10336000416AB1F57A7FEFD3E4E799F8130040F2B0
:10337000603AC2F2000A48B10BF0EAFACAF830002B
:1033800040B989F813B003B0BDE8F08FDAF8300027
:103390000028F6D00BF0DCFADAF83010401A40F6CC
:1033A000B9318842EDD340F21610C2F20000007825
:1033B0000028E6D140F2DC14C2F200040120E076DD
:1033C00006F0B4FCA8F580601021002201900027CF
:1033D0000BF0B8FA9520ADF80A000DF10A013E2075
:1033E00002220FF0FBFD40F2D830C2F2000000F1E3
:1033F000100528460BF0D4FE42F27806C2F2000611
:1034000030684762416AB1F57A7F0BD2416AC908D8
:103410007C2907D8416AC9087C2903D8416AB1F5DB
:103420007A7FEFD328460BF0BBFE30680021416263
:10343000416AB1F57A7F0BD2416AC9087C2907D865
:10344000416AC9087C2903D8416AB1F57A7FEFD374
:1034500028460BF0A5FEA8F5006738460421012296
:103460000BF070FA3846022101220BF06BFA94F847
:103470007E0028B1207F18B900F01AFC01202077C7
:1034800038464FF480710022002410F0F1F94046D4
:103490004FF40071002210F0EBF940464FF48071B8
:1034A000002210F0E5F940468021002210F0E0F9FA
:1034B00040464021002210F0DBF908F580673846CD
:1034C0004FF40051002210F0D3F938464FF48041F8
:1034D000002210F0CDF938464FF40041002210F0E0
:1034E000C7F938464FF48051002210F0C1F940F27C
:1034F0001510C2F2000004700198012100220BF0A7
:1035000021FA40F21610C2F200000121017040F2CF
:103510001410C2F20000047028460BF041FE002790
:1035200006E000BF28460BF03BFE0137C82F12D043
:1035300030684462416AB1F57A7FF3D2416AC908C2
:103540007C29EFD8416AC9087C29EBD8416AB1F5DA
:103550007A7FEFD3E6E728460BF022FE40464FF491
:103560008041002200240BF0EDF9CAF8304089F8C0
:1035700013B003B0BDE8F08F02F044FF03F068FA27
:10358000A9F8400013F0ACFC40F2DC110020C2F2BC
:1035900000018870012008720BF0DAF9CAF82C00DB
:1035A00040F2161040F2DC14C2F20000C2F2000435
:1035B0000078A17C08431CD10BF0CAF9DAF82C1072
:1035C000401A41F28931884213D30025A8F5806062
:1035D00010210022A4F81350A5750BF0B3F90120B7
:1035E000A074E5750BF0B4F942F210710844CAF802
:1035F0002C000020A4F81B0089F813B003B0BDE82C
:10360000F08F000040F21410C2F20000C078704742
:103610002DE9F04F9BB040F2DC10C2F2000090F8B0
:103620007E00002800F0DC8148F2203640F6086871
:10363000CEF6B8560027C2F2000805AC4FF00009DC
:103640004FF0000B4FF0000A04E000BF0137102FCD
:1036500000F089803903404622462A231CF076F97F
:103660000028F3D14FF0FF326FF0010021188B7862
:10367000C9785A4086EA5203D50708BF530886EA3C
:103680005302DD0708BF5A0886EA5203D50708BF70
:10369000530886EA5302DD0708BF5A0886EA520338
:1036A000D50708BF530886EA5302DD0708BF5A084A
:1036B00086EA5203D50708BF530886EA5302DD079E
:1036C00008BF5A08514086EA5102CB0708BF4A0892
:1036D00086EA5201D30708BF510886EA5102CB0798
:1036E00008BF4A0886EA5201D30708BF510886EA94
:1036F0005102CB0708BF4A0886EA5201D30708BF28
:10370000510886EA5103CA0708BF4B0886EA5302EC
:10371000D90700F1020008BF5A082428A6D1DDF815
:103720003A00D143884291D10A9848458ED905ADD7
:103730002ECD0DF1400C8CE80E0009994FF0010BD5
:10374000CDE91351DDE90A12BA46CDE91512DDE9DA
:103750000D218146CDE918210C99BDF83C20179127
:10376000ADF8682072E7CDF810B040F6086B002085
:10377000CDF804A04FF000084FF4003AC2F2000B5D
:1037800003900020029005E008F10108B8F5807F61
:1037900000F090800AEB0821584622462A231CF0AC
:1037A000D5F80028F0D14FEA08204FF0FF336FF032
:1037B000010100BF62189778D2787B4086EA5307F0
:1037C000DD0708BF5F0886EA5703FD0708BF7B08CF
:1037D00086EA5307DD0708BF5F0886EA5703FD073F
:1037E00008BF7B0886EA5307DD0708BF5F0886EA43
:1037F0005703FD0708BF7B0886EA5307DD0708BFAC
:103800005F0886EA5703FD0708BF7B085A4086EA2F
:103810005203D70708BF530886EA5302DF0708BFE1
:103820005A0886EA5203D70708BF530886EA5302AC
:10383000DF0708BF5A0886EA5203D70708BF5308B4
:1038400086EA5302DF0708BF5A0886EA5207D30701
:1038500008BF570886EA5703FA0701F1020108BFBB
:103860007B082429A6D1DDF83A10DA4391428BD1A6
:103870000A99494588D905AF8CCF0DF1400C089DB8
:103880008CE88C00099A8946CDE91352DDE90A23B8
:10389000CDE91523DDE90D32CDE918320C9ABDF8DA
:1038A0003C3017920122CDE902200120ADF86830AA
:1038B000049069E70498002800F09780019840F28E
:1038C0006828013000F00F00C2F2000888F80F00ED
:1038D000039840F2603A00F58070C2F2000A80B2AC
:1038E000CAF820004FF0FF336FF0010010A9CAF8AA
:1038F000109000BF0A189778D2787B4086EA530769
:10390000DD0708BF5F0886EA5703FD0708BF7B088D
:1039100086EA5307DD0708BF5F0886EA5703FD07FD
:1039200008BF7B0886EA5307DD0708BF5F0886EA01
:103930005703FD0708BF7B0886EA5307DD0708BF6A
:103940005F0886EA5703FD0708BF7B085A4086EAEE
:103950005203D70708BF530886EA5302DF0708BFA0
:103960005A0886EA5203D70708BF530886EA53026B
:10397000DF0708BF5A0886EA5203D70708BF530873
:1039800086EA5302DF0708BF5A0886EA5207D307C0
:1039900008BF570886EA5703FA0700F1020008BF7C
:1039A0007B082428A6D1DDF86600D943884209D1D6
:1039B000BDF8405042F60410854203D8BDF842607D
:1039C00086423ED9042402992046002C08BF6FF09D
:1039D0006600002908BF2046C0B21BB0BDE8F08FCA
:1039E0000120C0B21BB0BDE8F08F40F2603440F25D
:1039F0006821C2F200040020C2F200012061C873F5
:103A000005A805F0D7FD9DF818009DF81A209DF82F
:103A1000191040F26D1302FB0300C1EB011100EB22
:103A200041001F38606141F20040C4F201004FF4D0
:103A3000006100220FF01CFF0520C0B21BB0BDE8E2
:103A4000F08F28461EF0F6F90024C4F2C82421465F
:103A50001EF0A6F840F20001C2F2000108613046F3
:103A60000F461EF0E7F921461EF09AF87861DDE96D
:103A70001194DDE913B040F2E42747F60041C2F2A9
:103A800000070490C4F692012046C7F820901EF06B
:103A90002CF800281CBF45F20024C4F699041598A0
:103AA00040F20001C2F200018C61CAE9040BDDE9B9
:103AB000160140F2DC12B86739671898049938602B
:103AC000B9659DF864009DF86510A8F86450A8F8E1
:103AD000666041F20048C2F20002C4F201081075AB
:103AE000D17440464FF400610122CAF818900AF0E0
:103AF00029FF40F2D830C2F2000000F1100528463C
:103B00000BF04EFB42F278060024C2F200060027BA
:103B100007E000BF28460BF043FB0137B7F5967F5F
:103B200013D03068446200BF416AB1F57A7FF1D2A8
:103B3000416AC9087C29EDD8416AC9087C29E9D8BD
:103B4000416AB1F57A7FEFD3E4E740464FF4006174
:103B5000002200240AF0F6FE35E70000B0B540F27E
:103B6000DC10C2F20000C07C012840F0A0800AF006
:103B7000EFFE40F26035C2F20005696B401AB0F505
:103B80007A7F38BFB0BD0AF0E3FE40F2D604C2F23D
:103B9000000421786863C9B1481E0106207015D160
:103BA00044F27D30C2F200004421FCF709FD44F2EA
:103BB0001430C2F200002321FCF702FD40F2F600AF
:103BC000C2F20000002101814160016040F26825DD
:103BD000C2F2000595F86B00012807D142F22820B7
:103BE000C2F200000321952210F03EFB607818B16C
:103BF0000138010660701FD095F86C00012807D1CC
:103C000042F22820C2F200000421952210F02CFB81
:103C1000A07818B101380106A0702CD095F86D007D
:103C2000012844D142F22820C2F200000521952249
:103C3000BDE8B04010F018BB44F27D30C2F2000085
:103C400044304421FCF7BCFC44F21430C2F20000C2
:103C500023302321FCF7B4FC40F2F600C2F200004E
:103C600000214182C0F80E10C0F80A1095F86C00CF
:103C70000128C5D0CCE744F27D30C2F20000883084
:103C80004421FCF79DFC44F21430C2F2000046309F
:103C90002321FCF795FC40F2F600C2F2000000215F
:103CA00081838161416195F86D000128BAD0B0BD72
:103CB0002DE9F04F8BB040F2DC18C2F2000898F802
:103CC0007E00002800F00B8140F26031C2F200015A
:103CD000D1E9040A40F20009461C0E6140F20001DD
:103CE000C2F2000101F1100B9BE82108C4F2C829BF
:103CF00048F220374946CEF6B8571EF017F91DF0A6
:103D00004AFB1EF043F80446ADF800002846494639
:103D10001EF00CF91DF03FFB1EF038F840F2E422D3
:103D2000C2F20002116AADF8020092F85800CDE923
:103D3000011B8DF81000B2F8590092F85B10ADF835
:103D400011008DF81310906F116FCDF80CA005962F
:103D5000CDE906014FF2E870C1F6FF709346D0E955
:103D6000001280685140484040F24621C4F6D541D7
:103D700048404FEAF060089098F8140098F8131043
:103D80008DF824008DF8251000204FF0FF33694690
:103D9000CDF82600E2B25A4087EA5203D60708BFA0
:103DA000530887EA5302DE0708BF5A0887EA52031E
:103DB000D60708BF530887EA5302DE0708BF5A0830
:103DC00087EA5203D60708BF530887EA5302DE0783
:103DD00008BF5A0887EA5203D60708BF5308DA0714
:103DE00001EB0002557887EA530608BF5E0886EAB1
:103DF000050387EA5306DD0708BF5E0887EA560316
:103E0000F50708BF730887EA5306DD0708BF5E0899
:103E100087EA5603F50708BF730887EA5306DD07EC
:103E200008BF5E0887EA5603F50708BF730887EAEC
:103E30005306DD0708BF5E0887EA5603F50708BF8B
:103E40007308242802D094780230A3E740F2682156
:103E5000D843C2F20001C97BCDF8260040F2D83029
:103E600040F60867C2F2000042F278064FEA013AD3
:103E70004FF00009C2F200070DF12B0400F110050C
:103E8000C2F200064FF0000808E000BF28460BF021
:103E900087F908F10108B8F57A7F2DD03846214618
:103EA0001BF0DAF940BB9DF82B00C0071CD0284658
:103EB0000BF076F93068C0F8249000BF416AB1F584
:103EC0007A7FE3D2416AC9087C29DFD8416AC908F0
:103ED0007C29DBD8416AB1F57A7FEFD3D6E701249C
:103EE00020460BB0BDE8F08F40F60860C2F200003B
:103EF00051461BF021FF68B141F20040C4F20100BD
:103F00004FF40061032203240FF0B2FC20460BB0F3
:103F1000BDE8F08F40F608684FF00009C2F20008D3
:103F20000DF12B07002406E028460BF039F9013487
:103F3000B4F57A7FE0D0404639461BF08DF9002871
:103F4000DAD19DF82B00C00717D028460BF028F9CE
:103F50003068C0F8249000BF416AB1F57A7FE3D29F
:103F6000416AC9087C29DFD8416AC9087C29DBD8A5
:103F7000416AB1F57A7FEFD3D6E740F60860C2F226
:103F800000006A4651462A231CF016FD0028B3D1D2
:103F900040F608684FF00009C2F200080DF12B0747
:103FA000002405E028460BF0FBF80134642CA3D074
:103FB000404639461BF050F900289DD19DF82B0052
:103FC000C00716D028460BF0EBF83068C0F82490F4
:103FD000416AB1F57A7FE5D2416AC9087C29E1D806
:103FE000416AC9087C29DDD8416AB1F57A7FEFD3EF
:103FF000D8E740F26822C2F20002D07B009901307B
:1040000000F00F00D073516640F26032C2F200023D
:10401000DBF82000D16941F200489061481CC4F2ED
:104020000108D06140464FF4006101220AF08AFC89
:1040300028460BF0B5F80024002705E028460BF0D1
:10404000AFF80137642F12D030684462416AB1F58D
:104050007A7FF3D2416AC9087C29EFD8416AC9083E
:104060007C29EBD8416AB1F57A7FEFD3E6E7404689
:104070004FF40061002200240AF064FC20460BB0DB
:10408000BDE8F08F2DE9F04F85B040F2DC16C2F2AA
:104090000006F07C012800F0338296F82E0096F896
:1040A0003110F27E084396F87D1096F842300843AE
:1040B00096F843101043084396F84410184396F8B6
:1040C0004520084396F84610104396F847200843C9
:1040D00096F84B10104396F84A20084396F84E1075
:1040E000104396F84D20084396F84810104396F870
:1040F0006B200843104312D040F60044C4F2010480
:10410000204620210AF010FC012840F0F9812046C9
:104110002021002205B0BDE8F04F0AF013BC40F2A8
:10412000D001C2F2000196F82B00097896F84020E1
:1041300096F82C4042EA0005F1B10AF009FC40F281
:10414000DC01C2F2000109684FF0000A401A42F295
:104150000F71884214D840F2EC00C2F2000090F9CE
:104160000900C0F38002002848BF4FF0010A514601
:10417000C0F38010924605E001204FF0000A00E0F5
:1041800001200121B5FA85F25209B4FA84F35B09E2
:1041900002EA000B96F86E0040F6004703EA0105BC
:1041A00096F86D10C4F2010700F07F005C4641EA0A
:1041B00040083846202165F341040AF0B5FB444528
:1041C000814600F08A81BAF1000F08BFB9F1010FF2
:1041D0004DD05BEA050000F0BC80002D00F0FC80B3
:1041E000BBF1000F00F038819620ADF812000DF100
:1041F00012013E2002220EF0F1FE40F2D830C2F24F
:10420000000000F1100630460AF0CAFF42F27805BD
:10421000C2F20005286800214162416AB1F57A7F47
:104220000BD2416AC9087C2907D8416AC9087C2990
:1042300003D8416AB1F57A7FEFD330460AF0B0FF78
:10424000286800214162416AB1F57A7F80F042819D
:10425000416AC9087C2900F23D81416AC9087C296C
:1042600000F23881416AB1F57A7FECD332E19620D1
:10427000ADF80A000DF10A013E2002220EF0AEFE5A
:1042800040F2D830C2F2000000F1100630460AF0C9
:1042900087FF42F27805C2F20005286800214162DA
:1042A000416AB1F57A7F0BD2416AC9087C2907D8E7
:1042B000416AC9087C2903D8416AB1F57A7FEFD3F6
:1042C0003046CDE900980AF06BFF28680021416272
:1042D000416AB1F57A7F0BD2416AC9087C2907D8B7
:1042E000416AC9087C2903D8416AB1F57A7FEFD3C6
:1042F00030460AF055FF30460AF052FF4FF00008F2
:104300004FF0000908E000BF30460AF049FF09F10C
:104310000109B9F1320F14D02868C0F8248000BF19
:10432000416AB1F57A7FEFD2416AC9087C29EBD89E
:10433000416AC9087C29E7D8416AB1F57A7FEFD391
:10434000E2E73846202100220AF0FCFADDE9009875
:10435000C3E09520ADF80C0003A93E2002220EF028
:104360003DFE40F2D830C2F2000000F110063046A7
:104370000AF016FF42F27805C2F200052868002113
:10438000416200BF416AB1F57A7F0BD2416AC90828
:104390007C2907D8416AC9087C2903D8416AB1F54C
:1043A0007A7FEFD330460AF0FBFE28680021416295
:1043B000416AB1F57A7F80F08D80416AC9087C2915
:1043C00000F28880416AC9087C2900F28380416A32
:1043D000B1F57A7FECD37DE09420ADF80E000DF1BD
:1043E0000E013E2002220EF0F9FD40F2D830C2F25A
:1043F000000000F1100630460AF0D2FE42F27805C5
:10440000C2F20005286800214162416AB1F57A7F55
:104410000BD2416AC9087C2907D8416AC9087C299E
:1044200003D8416AB1F57A7FEFD330460AF0B8FE7F
:10443000286800214162416AB1F57A7F4AD2416A17
:10444000C9087C2946D8416AC9087C2942D8416AF2
:10445000B1F57A7FEFD33DE09320ADF8100004A9C9
:104460003E2002220EF0BAFD40F2D830C2F2000027
:1044700000F1100630460AF093FE42F27805C2F2CF
:104480000005286800214162416AB1F57A7F0BD2AC
:10449000416AC9087C2907D8416AC9087C2903D820
:1044A000416AB1F57A7FEFD330460AF079FE286889
:1044B00000214162416AB1F57A7F0BD2416AC90895
:1044C0007C2907D8416AC9087C2903D8416AB1F51B
:1044D0007A7FEFD330460AF063FEBAF1000F0AD0BC
:1044E0009BF0010007D138462021012205B0BDE82C
:1044F000F04F0AF027BAB9F1010F08BF444502D0C6
:1045000005B0BDE8F08F384602E600002DE9F04F17
:104510008BB040F2DC15C2F20005E87C012840F0C7
:104520004D8740F2682344F27D38C2F20003C2F2A4
:104530000008B8F835005C8F40F2D606844228BFE8
:10454000204693F86B10C2F2000693F86C2093F8A3
:104550006D30002918BF2046317877780029B8F8E7
:104560007910B67808BF2046884228BF0146002A45
:1045700018BF0146002F08BF0146B8F8BD008AB237
:10458000824228BF0846002B18BF084640F6000CA0
:10459000002E08BF0846C4F2010C87B24FF001306C
:1045A000CDE9090000200CF58066089030462021F6
:1045B0000AF0BAF940F2603CC2F2000C9CF82410F8
:1045C0003C1B0497009629B30AF0C2F9B4F57A7F30
:1045D0003ADD40F2D831C2F20001C96B401A4AF606
:1045E0008001C0F2121188422ED800208DF82800D8
:1045F0000121012040F2682440F2D60340F2603CE1
:1046000002908DF82010C2F20004C2F20003C2F240
:10461000000C4BE040F2DC518C4226DD01248CF88A
:1046200024400AF095F940F2D831C2F2000140F27C
:10463000603CC8630020C2F2000C8DF82800012005
:1046400002908DF8204029E040F2603C01200021DA
:10465000C2F2000C8DF828008DF8240000208CF8A0
:10466000241002908DF8201018E095F840100138C1
:10467000B0FA80F095F86D20B1FA81F1400995F813
:104680006E304909002A18BF012211408DF8200020
:1046900000208DF828308DF82410029040F2682414
:1046A00040F2D603C2F20004C2F200030AA80130AD
:1046B000039040F2F600C2F2000000F1090B09A8D5
:1046C00008F1350901300CF12408002501900CE0B7
:1046D0004FF0000A4046284401350BF10A0B032D28
:1046E00009F1440980F801A078D0585D0028EFD086
:1046F000601990F86B000128EAD09BF800000CEBE1
:104700000507B9F80010C0F3800A97F82520002AA1
:10471000049AA2EB01061BD00AF01AF9B6F57A7FCB
:104720003ADD40F2D831C2F2000101EB8501096C9B
:10473000401A4AF68001C0F2121188422CD8039820
:10474000002141554FF0010A08A8012102912DE0F6
:1047500040F2DD518E4236DB4FF0010A87F825A08A
:104760000AF0F6F840F2D831C2F2000101EB8501FF
:1047700008640398002140F2603C40F2D60340F206
:10478000682441550121C2F2000CC2F20003C2F2BA
:10479000000408A802919EE7039801214155019861
:1047A0004FF0000A87F825A0415508A840F2682478
:1047B00040F2D60340F2603CC2F20004C2F20003B1
:1047C000C2F2000C87E79BF80010039AC00950550D
:1047D000C1F380100199485508A87CE740F2DC1825
:1047E000C2F2000898F8436098F842C098F8443044
:1047F0004CEA060298F845E01A4342EA0E0798F898
:10480000462098F84730174398F84B501F4398F8C4
:104810004A002F4398F84E50074398F84D002F4315
:1048200098F84850074398F86B002F4398F82E10DB
:10483000074398F831000F43384398F87D7098F893
:104840001B1098F80E50384308432843029888F804
:10485000100017D0002E1EBF00208DF82B00ADF8E1
:1048600029004EEA0C00104340F2D6021843C2F26F
:10487000000200F0CF8400208DF82700ADF825005D
:1048800000F0C8BC98F82C0000281CBF00200A903B
:1048900098F82B0000281ABF4FF00009CDF824909B
:1048A0009DF824909DF820004946002818BF01205B
:1048B000B9F1000F18BF0121A27C00EA010A52459C
:1048C00000F05F839620ADF8140005A93E20022277
:1048D0000EF084FB40F2D830C2F2000000F1100567
:1048E00028460AF05DFC42F27804C2F20004206817
:1048F00000214162416AB1F57A7F0BD2416AC90851
:104900007C2907D8416AC9087C2903D8416AB1F5D6
:104910007A7FEFD328460AF043FC206800214162E9
:10492000416AB1F57A7F0BD2416AC9087C2907D860
:10493000416AC9087C2903D8416AB1F57A7FEFD36F
:1049400028460AF02DFC40F60007C4F2010738465D
:1049500004210022002609F0F5FF3846022100223A
:1049600009F0F0FF28460AF01BFCBAF1000F00F036
:10497000DB822068466200BF416AB1F57A7F0BD2C4
:10498000416AC9087C2907D8416AC9087C2903D82B
:10499000416AB1F57A7FEFD328460AF001FC20681E
:1049A00000214162416AB1F57A7F0BD2416AC908A0
:1049B0007C2907D8416AC9087C2903D8416AB1F526
:1049C0007A7FEFD328460AF0EBFB20680021416292
:1049D000416AB1F57A7F0BD2416AC9087C2907D8B0
:1049E000416AC9087C2903D8416AB1F57A7FEFD3BF
:1049F00028460AF0D5FB206800214162416AB1F5E2
:104A00007A7F0BD2416AC9087C2907D8416AC90854
:104A10007C2903D8416AB1F57A7FEFD328460AF0A2
:104A2000BFFB206800214162416AB1F57A7F0BD259
:104A3000416AC9087C2907D8416AC9087C2903D87A
:104A4000416AB1F57A7FEFD328460AF0A9FB2068C6
:104A500000214162416AB1F57A7F0BD2416AC908EF
:104A60007C2907D8416AC9087C2903D8416AB1F575
:104A70007A7FEFD328460AF093FB20680021416239
:104A8000416AB1F57A7F0BD2416AC9087C2907D8FF
:104A9000416AC9087C2903D8416AB1F57A7FEFD30E
:104AA00028460AF07DFB206800214162416AB1F589
:104AB0007A7F0BD2416AC9087C2907D8416AC908A4
:104AC0007C2903D8416AB1F57A7FEFD328460AF0F2
:104AD00067FB206800214162416AB1F57A7F0BD201
:104AE000416AC9087C2907D8416AC9087C2903D8CA
:104AF000416AB1F57A7FEFD328460AF051FB20686E
:104B000000214162416AB1F57A7F0BD2416AC9083E
:104B10007C2907D8416AC9087C2903D8416AB1F5C4
:104B20007A7FEFD328460AF03BFB206800214162E0
:104B3000416AB1F57A7F0BD2416AC9087C2907D84E
:104B4000416AC9087C2903D8416AB1F57A7FEFD35D
:104B500028460AF025FB206800214162416AB1F530
:104B60007A7F0BD2416AC9087C2907D8416AC908F3
:104B70007C2903D8416AB1F57A7FEFD328460AF041
:104B80000FFB206800214162416AB1F57A7F0BD2A8
:104B9000416AC9087C2907D8416AC9087C2903D819
:104BA000416AB1F57A7FEFD328460AF0F9FA206816
:104BB00000214162416AB1F57A7F0BD2416AC9088E
:104BC0007C2907D8416AC9087C2903D8416AB1F514
:104BD0007A7FEFD328460AF0E3FA20680021416289
:104BE000416AB1F57A7F0BD2416AC9087C2907D89E
:104BF000416AC9087C2903D8416AB1F57A7FEFD3AD
:104C000028460AF0CDFA206800214162416AB1F5D8
:104C10007A7F0BD2416AC9087C2907D8416AC90842
:104C20007C2903D8416AB1F57A7FEFD328460AF090
:104C3000B7FA206800214162416AB1F57A7F0BD250
:104C4000416AC9087C2907D8416AC9087C2903D868
:104C5000416AB1F57A7FEFD328460AF0A1FA2068BD
:104C600000214162416AB1F57A7F0BD2416AC908DD
:104C70007C2907D8416AC9087C2903D8416AB1F563
:104C80007A7FEFD328460AF08BFA20680021416230
:104C9000416AB1F57A7F0BD2416AC9087C2907D8ED
:104CA000416AC9087C2903D8416AB1F57A7FEFD3FC
:104CB00028460AF075FA206800214162416AB1F580
:104CC0007A7F0BD2416AC9087C2907D8416AC90892
:104CD0007C2903D8416AB1F57A7FEFD328460AF0E0
:104CE0005FFA00982021012209F02CFE28460AF0E4
:104CF00057FA206800214162416AB1F57A7F0BD2F0
:104D0000416AC9087C2907D8416AC9087C2903D8A7
:104D1000416AB1F57A7FEFD328460AF041FA20685C
:104D200000214162416AB1F57A7F0BD2416AC9081C
:104D30007C2907D8416AC9087C2903D8416AB1F5A2
:104D40007A7FEFD328460AF02BFA206800214162CF
:104D5000416AB1F57A7F0BD2416AC9087C2907D82C
:104D6000416AC9087C2903D8416AB1F57A7FEFD33B
:104D700028460AF015FA206800214162416AB1F51F
:104D80007A7F0BD2416AC9087C2907D8416AC908D1
:104D90007C2903D8416AB1F57A7FEFD328460AF01F
:104DA000FFF9206800214162416AB1F57A7F0BD298
:104DB000416AC9087C2907D8416AC9087C2903D8F7
:104DC000416AB1F57A7FEFD328460AF0E9F9206805
:104DD00000214162416AB1F57A7F0BD2416AC9086C
:104DE0007C2907D8416AC9087C2903D8416AB1F5F2
:104DF0007A7FEFD328460AF0D3F920680021416278
:104E0000416AB1F57A7F0BD2416AC9087C2907D87B
:104E1000416AC9087C2903D8416AB1F57A7FEFD38A
:104E200028460AF0BDF9206800214162416AB1F5C7
:104E30007A7F0BD2416AC9087C2907D8416AC90820
:104E40007C2903D8416AB1F57A7FEFD328460AF06E
:104E5000A7F9206800214162416AB1F57A7F0BD23F
:104E6000416AC9087C2907D8416AC9087C2903D846
:104E7000416AB1F57A7FEFD328460AF091F92068AC
:104E800000214162416AB1F57A7F0BD2416AC908BB
:104E90007C2907D8416AC9087C2903D8416AB1F541
:104EA0007A7FEFD328460AF07BF99420ADF81400FE
:104EB00005A93E2002220EF091F828460AF070F96A
:104EC00020680021416200BF416AB1F57A7F0BD2B0
:104ED000416AC9087C2907D8416AC9087C2903D8D6
:104EE000416AB1F57A7FEFD328460AF059F9206874
:104EF00000214162416AB1F57A7F0BD2416AC9084B
:104F00007C2907D8416AC9087C2903D8416AB1F5D0
:104F10007A7FEFD328460AF043F940F60000C4F246
:104F20000100042101221DE0002705E028460AF0C7
:104F300037F90137322F12D020684662416AB1F545
:104F40007A7FF3D2416AC9087C29EFD8416AC9083F
:104F50007C29EBD8416AB1F57A7FEFD3E6E7009878
:104F60002021002209F0EEFC40F26824C2F2000485
:104F700084F812A009F0ECFC40F26031C2F20001AA
:104F8000886240F2D602BAF1000FC2F2000240F08D
:104F9000418198F86E0098F86D109DF8285000F047
:104FA0007F0041EA400049EA4501C9B2814200F070
:104FB000318109F0CDFC40F26031C2F20001896A12
:104FC00040F2D60240F26824401AC2F20002C2F255
:104FD0000004B0F5FA6F40F21D8155EA090048D08F
:104FE000002D00F08880B9F1000F00F0C3809620FA
:104FF000ADF8140005A93E2002220DF0EFFF40F2AB
:10500000D830C2F2000000F1100528460AF0C8F8B6
:1050100042F27804C2F20004206800214162416A31
:10502000B1F57A7F0BD2416AC9087C2907D8416A59
:10503000C9087C2903D8416AB1F57A7FEFD32846A5
:105040000AF0AEF8206800214162416AB1F57A7F2A
:1050500080F0CE80416AC9087C2900F2C980416A8B
:10506000C9087C2900F2C480416AB1F57A7FECD38B
:10507000BEE09520ADF8140005A93E2002220DF0F7
:10508000ADFF40F2D830C2F2000000F11005284612
:105090000AF086F842F27804C2F200042068002187
:1050A0004162416AB1F57A7F0BD2416AC9087C2915
:1050B00007D8416AC9087C2903D8416AB1F57A7FCB
:1050C000EFD328460AF06CF8206800214162416A5B
:1050D000B1F57A7F80F08C80416AC9087C2900F2A2
:1050E0008780416AC9087C2900F28280416AB1F553
:1050F0007A7FECD37CE09420ADF8140005A93E2023
:1051000002220DF06BFF40F2D830C2F2000000F135
:10511000100528460AF044F842F27804C2F200046E
:10512000206800214162416AB1F57A7F0BD2416A61
:10513000C9087C2907D8416AC9087C2903D8416A73
:10514000B1F57A7FEFD328460AF02AF820680021CB
:105150004162416AB1F57A7F4AD2416AC9087C2925
:1051600046D8416AC9087C2942D8416AB1F57A7F9C
:10517000EFD33DE09320ADF8140005A93E200222B4
:105180000DF02CFF40F2D830C2F2000000F1100503
:1051900028460AF005F842F27804C2F200042068BA
:1051A00000214162416AB1F57A7F0BD2416AC90898
:1051B0007C2907D8416AC9087C2903D8416AB1F51E
:1051C0007A7FEFD3284609F0EBFF20680021416287
:1051D000416AB1F57A7F0BD2416AC9087C2907D8A8
:1051E000416AC9087C2903D8416AB1F57A7FEFD3B7
:1051F000284609F0D5FF09F0ABFB40F2603140F2E0
:10520000682440F2D602C2F20001C2F20004C2F2E7
:105210000002886210784EF200180028CAF6007862
:1052200044D09DF829700321FE019DF825208DF8BA
:105230001410314662F3861194F86E2094F87130A0
:1052400000201A439DF821204FF0040303EA820353
:1052500001EB030207F00101A78BC1F1000101EA94
:105260000701ADF81B00CDF815808DF81D20ADF8B5
:10527000191004D0ADF81B0046EA030004E0E08BEF
:10528000ADF81B0042F040008DF81D0042F22820CE
:10529000C2F2000005AA03210FF040F840F2682492
:1052A00040F2D602C2F20004C2F200025078002896
:1052B00045D094F86F3094F872609DF82A703343AB
:1052C0004FEAC7159DF82630294663F386119DF8ED
:1052D00022304FF004028DF8142002EA830201EB21
:1052E000020307F00101A78BC1F100014FF000009C
:1052F00001EA0701ADF81B00CDF815808DF81D30CF
:10530000ADF8191004D0ADF81B0045EA020004E026
:10531000E08BADF81B0043F040008DF81D0042F219
:105320002820C2F2000005AA04210EF0F7FF40F287
:10533000682440F2D602C2F20004C2F20002907861
:10534000E0B39DF82B700521FE019DF827208DF814
:105350001410314662F3861194F8702094F873307B
:1053600000201A439DF823204FF0040303EA820330
:1053700001EB030207F00101A78BC1F1000101EA73
:105380000701CDF81580ADF81B008DF81D20ADF894
:10539000191004D0ADF81B0046EA030004E0E08BCE
:1053A000ADF81B0042F040008DF81D0042F22820AD
:1053B000C2F2000005AA05210EF0B0FF0BB0BDE857
:1053C000F08F00002DE9F04782B040F20008C2F2F1
:1053D0000008D8F810000021D8F81840CCF2C821F5
:1053E0001CF0DEFB4FF07E511CF0FAFA014620461D
:1053F0001CF09CFD40F2E42A4CF6CD41C2F2000ABA
:10540000C4F24C21CAF828001CF090FDCAF8240010
:105410008220ADF806000DF106013E2002220DF0BB
:10542000DDFD40F2D839C2F2000909F1100420462E
:1054300009F0B6FE42F27805C2F2000528680021A4
:10544000416200BF416AB1F57A7F0BD2416AC90857
:105450007C2907D8416AC9087C2903D8416AB1F57B
:105460007A7FEFD3204609F09BFE28680021416235
:10547000416AB1F57A7F0BD2416AC9087C2907D805
:10548000416AC9087C2903D8416AB1F57A7FEFD314
:10549000204609F085FE204609F082FE00270026FE
:1054A00006E000BF204609F07BFE0136642E12D0D4
:1054B00028684762416AB1F57A7FF3D2416AC90828
:1054C0007C29EFD8416AC9087C29EBD8416AB1F53B
:1054D0007A7FEFD3E6E701F007FCDAF81C00DAF890
:1054E00028101CF07DFAD8F81010CAF8780009F1DD
:1054F0002C004FF07E524FF0804312F065FED8F83A
:10550000141009F11C004FF07E524FF0804302B09E
:10551000BDE8F04712F058BEB0B582B040F2682442
:10552000C2F2000404F13801622002220CF0ACFD4A
:1055300000284AD194F8381094F8390041EA002242
:10554000002A42D08DF806108DF807000DF10601F3
:10555000622002220DF042FD40F2D830C2F200007B
:1055600000F11004204609F01BFE42F27805C2F259
:105570000005286800214162416AB1F57A7F0BD2AB
:10558000416AC9087C2907D8416AC9087C2903D81F
:10559000416AB1F57A7FEFD3204609F001FE286811
:1055A00000214162416AB1F57A7F0BD2416AC90894
:1055B0007C2907D8416AC9087C2903D8416AB1F51A
:1055C0007A7FEFD3204609F0EBFD02B0B0BD0000BA
:1055D00070B582B010F050F99020ADF8040001A928
:1055E0003E2002220DF0FAFC054640F2D830C2F20D
:1055F000000000F11004204609F0D2FD42F27806C6
:10560000C2F2000630680021416200BF416AB1F574
:105610007A7F0BD2416AC9087C2907D8416AC90838
:105620007C2903D8416AB1F57A7FEFD3204609F08F
:10563000B7FD306800214162416AB1F57A7F0BD233
:10564000416AC9087C2907D8416AC9087C2903D85E
:10565000416AB1F57A7FEFD3204609F0A1FD0DB183
:1056600002B070BD49F2801000210222002501F035
:105670001DFC49F282100021022201F017FC49F2C0
:1056800084100021022201F011FC49F28610002151
:10569000022201F00BFC49F288100021022201F0E5
:1056A00005FC49F28A100021022201F0FFFB49F2B9
:1056B0008C100021022201F0F9FB49F28E1000212A
:1056C000022201F0F3FB49F290100021022201F0C6
:1056D000EDFB49F292100021022201F0E7FB49F2B2
:1056E00094100021022201F0E1FB49F29610002102
:1056F000022201F0DBFB49F298100021022201F0A6
:10570000D5FB49F29A100021022201F0CFFB49F2A9
:105710009C100021022201F0C9FB49F29E100021D9
:10572000022201F0C3FB49F2A0100021022201F085
:10573000BDFB49F2A2100021022201F0B7FB49F2A1
:10574000A4100021022201F0B1FB49F2A6100021B1
:10575000022201F0ABFB48F63711C4F2952149F261
:10576000A810042201F0A2FB42F28431C4F6AA314F
:1057700049F2AC10042201F099FB49F2B01000216B
:10578000022201F093FB49F2B2100021022201F043
:105790008DFB49F2C6104021022201F087FB49F23D
:1057A000C8101221022201F081FB49F2CA10002127
:1057B000012201F07BFB49F2CB100021012201F014
:1057C00075FB49F2CC100021012201F06FFB49F278
:1057D000CD100021012201F069FB49F2CE10002119
:1057E000012201F063FB49F2CF100021012201F0F8
:1057F0005DFB49F2D0100021012201F057FB49F274
:10580000D1100021012201F051FB49F2D2100021F8
:10581000012201F04BFB49F2D3100021012201F0DB
:1058200045FB49F2E21046F22E31022201F03EFB26
:1058300049F2E41040F6D831022201F037FB49F278
:10584000E61043F6FF71022201F030FB49F2E81046
:1058500041F6EB01022201F029FB49F2EA104CF279
:105860005C31022201F022FB49F2EC1046F2377162
:10587000022201F01BFB49F2EE104AF2787102227B
:1058800001F014FB49F2F01047F2A201022201F0EC
:105890000DFB49F2F2104FF42871022201F006FBD1
:1058A00049F2F4104FF68D61022201F0FFFA49F23D
:1058B000F6104FF43171022201F0F8FA49F2F810B3
:1058C0004FF25621022201F0F1FA49F2FA1041F2A8
:1058D000BB31022201F0EAFA49F2FE1042F6B7515A
:1058E000022201F0E3FA4FF412404BF69731022204
:1058F00001F0DCFA49F2022046F29F41022201F057
:10590000D5FA49F204204AF2D731022201F0CEFA48
:1059100049F2062047F6AF51022201F0C7FA49F2D8
:10592000082040F62A01022201F0C0FA49F20A20BA
:105930004FF2F971022201F0B9FA49F20C2040F657
:105940008B31022201F0B2FA49F20E204FF29D2172
:10595000022201F0ABFA49F2102041F22111022299
:1059600001F0A4FA49F2142044F25E31022201F05F
:105970009DFA49F216200021022201F097FA49F21D
:1059800018200021022201F091FA49F21A20002188
:10599000022201F08BFA49F21C200021022201F0C0
:1059A00085FA49F21E200021022201F07FFA49F215
:1059B00020200021022201F079FA49F22220002160
:1059C000022201F073FA49F224200021022201F0A0
:1059D0006DFA49F226200021022201F067FA49F20D
:1059E00028200021022201F061FA49F22A20002138
:1059F000022201F05BFA49F22D200921012201F077
:105A000055FA49F2D4104FF6FF71022201F04EFA16
:105A100049F2D6104FF6FF71022201F047FA49F21F
:105A2000342042F6B041022201F040FA49F2362019
:105A30000021012201F03AFA49F237200021012227
:105A400001F034FA49F238200021012201F02EFA47
:105A500049F239201221012201F028FA49F23A20B4
:105A60000021012201F022FA49F23C2020210122EA
:105A700001F01CFA49F23D200021012201F016FA42
:105A800049F2FB204621012201F010FA49F2FA20E6
:105A90000221012201F00AFA49F2FC2082210122AE
:105AA00001F004FA49F2FD200721012201F0FEF97C
:105AB00049F2FE200721012201F0F8F949F2FF2006
:105AC0000721012201F0F2F94FF4134007210122CE
:105AD00001F0ECF949F201300121012201F0E6F96F
